{
  "contractName": "DigitalAsset",
  "abi": [
    {
      "inputs": [
        {
          "internalType": "address",
          "name": "rbacAddress",
          "type": "address"
        }
      ],
      "stateMutability": "nonpayable",
      "type": "constructor"
    },
    {
      "anonymous": false,
      "inputs": [
        {
          "indexed": true,
          "internalType": "address",
          "name": "owner",
          "type": "address"
        },
        {
          "indexed": true,
          "internalType": "address",
          "name": "approved",
          "type": "address"
        },
        {
          "indexed": true,
          "internalType": "uint256",
          "name": "tokenId",
          "type": "uint256"
        }
      ],
      "name": "Approval",
      "type": "event"
    },
    {
      "anonymous": false,
      "inputs": [
        {
          "indexed": true,
          "internalType": "address",
          "name": "owner",
          "type": "address"
        },
        {
          "indexed": true,
          "internalType": "address",
          "name": "operator",
          "type": "address"
        },
        {
          "indexed": false,
          "internalType": "bool",
          "name": "approved",
          "type": "bool"
        }
      ],
      "name": "ApprovalForAll",
      "type": "event"
    },
    {
      "anonymous": false,
      "inputs": [
        {
          "indexed": true,
          "internalType": "uint256",
          "name": "tokenId",
          "type": "uint256"
        },
        {
          "indexed": true,
          "internalType": "address",
          "name": "burner",
          "type": "address"
        },
        {
          "indexed": false,
          "internalType": "uint256",
          "name": "timestamp",
          "type": "uint256"
        }
      ],
      "name": "AssetBurned",
      "type": "event"
    },
    {
      "anonymous": false,
      "inputs": [
        {
          "indexed": true,
          "internalType": "uint256",
          "name": "tokenId",
          "type": "uint256"
        },
        {
          "indexed": true,
          "internalType": "address",
          "name": "certifier",
          "type": "address"
        },
        {
          "indexed": false,
          "internalType": "string",
          "name": "comment",
          "type": "string"
        },
        {
          "indexed": false,
          "internalType": "uint256",
          "name": "timestamp",
          "type": "uint256"
        }
      ],
      "name": "AssetCertified",
      "type": "event"
    },
    {
      "anonymous": false,
      "inputs": [
        {
          "indexed": true,
          "internalType": "uint256",
          "name": "tokenId",
          "type": "uint256"
        },
        {
          "indexed": true,
          "internalType": "address",
          "name": "registrant",
          "type": "address"
        },
        {
          "indexed": false,
          "internalType": "string",
          "name": "cid",
          "type": "string"
        },
        {
          "indexed": false,
          "internalType": "uint256",
          "name": "timestamp",
          "type": "uint256"
        }
      ],
      "name": "AssetRegistered",
      "type": "event"
    },
    {
      "anonymous": false,
      "inputs": [
        {
          "indexed": true,
          "internalType": "uint256",
          "name": "tokenId",
          "type": "uint256"
        },
        {
          "indexed": false,
          "internalType": "string",
          "name": "newCid",
          "type": "string"
        },
        {
          "indexed": false,
          "internalType": "uint256",
          "name": "newVersion",
          "type": "uint256"
        },
        {
          "indexed": false,
          "internalType": "uint256",
          "name": "timestamp",
          "type": "uint256"
        }
      ],
      "name": "MetadataUpdated",
      "type": "event"
    },
    {
      "anonymous": false,
      "inputs": [
        {
          "indexed": true,
          "internalType": "address",
          "name": "from",
          "type": "address"
        },
        {
          "indexed": true,
          "internalType": "address",
          "name": "to",
          "type": "address"
        },
        {
          "indexed": true,
          "internalType": "uint256",
          "name": "tokenId",
          "type": "uint256"
        }
      ],
      "name": "Transfer",
      "type": "event"
    },
    {
      "inputs": [
        {
          "internalType": "address",
          "name": "to",
          "type": "address"
        },
        {
          "internalType": "uint256",
          "name": "tokenId",
          "type": "uint256"
        }
      ],
      "name": "approve",
      "outputs": [],
      "stateMutability": "nonpayable",
      "type": "function"
    },
    {
      "inputs": [
        {
          "internalType": "address",
          "name": "owner",
          "type": "address"
        }
      ],
      "name": "balanceOf",
      "outputs": [
        {
          "internalType": "uint256",
          "name": "",
          "type": "uint256"
        }
      ],
      "stateMutability": "view",
      "type": "function",
      "constant": true
    },
    {
      "inputs": [
        {
          "internalType": "uint256",
          "name": "tokenId",
          "type": "uint256"
        }
      ],
      "name": "burn",
      "outputs": [],
      "stateMutability": "nonpayable",
      "type": "function"
    },
    {
      "inputs": [
        {
          "internalType": "uint256",
          "name": "tokenId",
          "type": "uint256"
        }
      ],
      "name": "getApproved",
      "outputs": [
        {
          "internalType": "address",
          "name": "",
          "type": "address"
        }
      ],
      "stateMutability": "view",
      "type": "function",
      "constant": true
    },
    {
      "inputs": [
        {
          "internalType": "address",
          "name": "owner",
          "type": "address"
        },
        {
          "internalType": "address",
          "name": "operator",
          "type": "address"
        }
      ],
      "name": "isApprovedForAll",
      "outputs": [
        {
          "internalType": "bool",
          "name": "",
          "type": "bool"
        }
      ],
      "stateMutability": "view",
      "type": "function",
      "constant": true
    },
    {
      "inputs": [],
      "name": "name",
      "outputs": [
        {
          "internalType": "string",
          "name": "",
          "type": "string"
        }
      ],
      "stateMutability": "view",
      "type": "function",
      "constant": true
    },
    {
      "inputs": [
        {
          "internalType": "uint256",
          "name": "tokenId",
          "type": "uint256"
        }
      ],
      "name": "ownerOf",
      "outputs": [
        {
          "internalType": "address",
          "name": "",
          "type": "address"
        }
      ],
      "stateMutability": "view",
      "type": "function",
      "constant": true
    },
    {
      "inputs": [],
      "name": "rbac",
      "outputs": [
        {
          "internalType": "contract RBAC",
          "name": "",
          "type": "address"
        }
      ],
      "stateMutability": "view",
      "type": "function",
      "constant": true
    },
    {
      "inputs": [
        {
          "internalType": "address",
          "name": "from",
          "type": "address"
        },
        {
          "internalType": "address",
          "name": "to",
          "type": "address"
        },
        {
          "internalType": "uint256",
          "name": "tokenId",
          "type": "uint256"
        }
      ],
      "name": "safeTransferFrom",
      "outputs": [],
      "stateMutability": "nonpayable",
      "type": "function"
    },
    {
      "inputs": [
        {
          "internalType": "address",
          "name": "from",
          "type": "address"
        },
        {
          "internalType": "address",
          "name": "to",
          "type": "address"
        },
        {
          "internalType": "uint256",
          "name": "tokenId",
          "type": "uint256"
        },
        {
          "internalType": "bytes",
          "name": "data",
          "type": "bytes"
        }
      ],
      "name": "safeTransferFrom",
      "outputs": [],
      "stateMutability": "nonpayable",
      "type": "function"
    },
    {
      "inputs": [
        {
          "internalType": "address",
          "name": "operator",
          "type": "address"
        },
        {
          "internalType": "bool",
          "name": "approved",
          "type": "bool"
        }
      ],
      "name": "setApprovalForAll",
      "outputs": [],
      "stateMutability": "nonpayable",
      "type": "function"
    },
    {
      "inputs": [],
      "name": "symbol",
      "outputs": [
        {
          "internalType": "string",
          "name": "",
          "type": "string"
        }
      ],
      "stateMutability": "view",
      "type": "function",
      "constant": true
    },
    {
      "inputs": [
        {
          "internalType": "uint256",
          "name": "tokenId",
          "type": "uint256"
        }
      ],
      "name": "tokenURI",
      "outputs": [
        {
          "internalType": "string",
          "name": "",
          "type": "string"
        }
      ],
      "stateMutability": "view",
      "type": "function",
      "constant": true
    },
    {
      "inputs": [
        {
          "internalType": "address",
          "name": "from",
          "type": "address"
        },
        {
          "internalType": "address",
          "name": "to",
          "type": "address"
        },
        {
          "internalType": "uint256",
          "name": "tokenId",
          "type": "uint256"
        }
      ],
      "name": "transferFrom",
      "outputs": [],
      "stateMutability": "nonpayable",
      "type": "function"
    },
    {
      "inputs": [
        {
          "internalType": "address",
          "name": "to",
          "type": "address"
        },
        {
          "internalType": "string",
          "name": "cid",
          "type": "string"
        },
        {
          "internalType": "bytes32",
          "name": "contentHash",
          "type": "bytes32"
        },
        {
          "internalType": "string",
          "name": "encryptedKey",
          "type": "string"
        },
        {
          "internalType": "bytes",
          "name": "signature",
          "type": "bytes"
        }
      ],
      "name": "registerAsset",
      "outputs": [
        {
          "internalType": "uint256",
          "name": "",
          "type": "uint256"
        }
      ],
      "stateMutability": "nonpayable",
      "type": "function"
    },
    {
      "inputs": [
        {
          "internalType": "uint256",
          "name": "tokenId",
          "type": "uint256"
        },
        {
          "internalType": "string",
          "name": "comment",
          "type": "string"
        },
        {
          "internalType": "bytes[]",
          "name": "signatures",
          "type": "bytes[]"
        }
      ],
      "name": "certifyAsset",
      "outputs": [],
      "stateMutability": "nonpayable",
      "type": "function"
    },
    {
      "inputs": [
        {
          "internalType": "uint256",
          "name": "tokenId",
          "type": "uint256"
        },
        {
          "internalType": "string",
          "name": "newCid",
          "type": "string"
        },
        {
          "internalType": "bytes32",
          "name": "newHash",
          "type": "bytes32"
        },
        {
          "internalType": "string",
          "name": "newKey",
          "type": "string"
        }
      ],
      "name": "updateMetadata",
      "outputs": [],
      "stateMutability": "nonpayable",
      "type": "function"
    },
    {
      "inputs": [
        {
          "internalType": "uint256",
          "name": "tokenId",
          "type": "uint256"
        }
      ],
      "name": "getAssetMetadata",
      "outputs": [
        {
          "components": [
            {
              "internalType": "string",
              "name": "cid",
              "type": "string"
            },
            {
              "internalType": "bytes32",
              "name": "contentHash",
              "type": "bytes32"
            },
            {
              "internalType": "address",
              "name": "registrant",
              "type": "address"
            },
            {
              "internalType": "uint256",
              "name": "registrationDate",
              "type": "uint256"
            },
            {
              "internalType": "bool",
              "name": "isCertified",
              "type": "bool"
            },
            {
              "internalType": "string",
              "name": "encryptedKey",
              "type": "string"
            },
            {
              "internalType": "uint256",
              "name": "version",
              "type": "uint256"
            }
          ],
          "internalType": "struct DigitalAsset.AssetMetadata",
          "name": "",
          "type": "tuple"
        }
      ],
      "stateMutability": "view",
      "type": "function",
      "constant": true
    },
    {
      "inputs": [
        {
          "internalType": "uint256",
          "name": "tokenId",
          "type": "uint256"
        }
      ],
      "name": "getCertificationHistory",
      "outputs": [
        {
          "components": [
            {
              "internalType": "address",
              "name": "certifier",
              "type": "address"
            },
            {
              "internalType": "uint256",
              "name": "timestamp",
              "type": "uint256"
            },
            {
              "internalType": "string",
              "name": "comment",
              "type": "string"
            }
          ],
          "internalType": "struct DigitalAsset.Certification[]",
          "name": "",
          "type": "tuple[]"
        }
      ],
      "stateMutability": "view",
      "type": "function",
      "constant": true
    },
    {
      "inputs": [
        {
          "internalType": "uint256",
          "name": "tokenId",
          "type": "uint256"
        },
        {
          "internalType": "bytes32",
          "name": "hash",
          "type": "bytes32"
        }
      ],
      "name": "verifyIntegrity",
      "outputs": [
        {
          "internalType": "bool",
          "name": "",
          "type": "bool"
        }
      ],
      "stateMutability": "view",
      "type": "function",
      "constant": true
    },
    {
      "inputs": [
        {
          "internalType": "bytes4",
          "name": "interfaceId",
          "type": "bytes4"
        }
      ],
      "name": "supportsInterface",
      "outputs": [
        {
          "internalType": "bool",
          "name": "",
          "type": "bool"
        }
      ],
      "stateMutability": "view",
      "type": "function",
      "constant": true
    },
    {
      "inputs": [
        {
          "internalType": "uint256",
          "name": "tokenId",
          "type": "uint256"
        }
      ],
      "name": "burnAsset",
      "outputs": [],
      "stateMutability": "nonpayable",
      "type": "function"
    }
  ],
  "bytecode": "0x60806040523480156200001157600080fd5b50604051620032c8380380620032c883398101604081905262000034916200012f565b6040518060400160405280601681526020017f456e74657270726973654469676974616c4173736574000000000000000000008152506040518060400160405280600381526020016245444160e81b815250816000908162000097919062000206565b506001620000a6828262000206565b50506001600655506001600160a01b038116620001095760405162461bcd60e51b815260206004820152601460248201527f496e76616c696420524241432061646472657373000000000000000000000000604482015260640160405180910390fd5b600780546001600160a01b0319166001600160a01b0392909216919091179055620002d2565b6000602082840312156200014257600080fd5b81516001600160a01b03811681146200015a57600080fd5b9392505050565b634e487b7160e01b600052604160045260246000fd5b600181811c908216806200018c57607f821691505b602082108103620001ad57634e487b7160e01b600052602260045260246000fd5b50919050565b601f8211156200020157600081815260208120601f850160051c81016020861015620001dc5750805b601f850160051c820191505b81811015620001fd57828155600101620001e8565b5050505b505050565b81516001600160401b0381111562000222576200022262000161565b6200023a8162000233845462000177565b84620001b3565b602080601f831160018114620002725760008415620002595750858301515b600019600386901b1c1916600185901b178555620001fd565b600085815260208120601f198616915b82811015620002a35788860151825594840194600190910190840162000282565b5085821015620002c25787850151600019600388901b60f8161c191681555b5050505050600190811b01905550565b612fe680620002e26000396000f3fe608060405234801561001057600080fd5b50600436106101425760003560e01c806383faa6c4116100b8578063a8ecc7f11161007c578063a8ecc7f1146102b8578063b88d4fde146102cb578063b9722965146102de578063c87b56dd146102f1578063cf2acf8414610304578063e985e9c51461032457600080fd5b806383faa6c4146102575780638f08d44d1461026a5780639103c42f1461027d57806395d89b411461029d578063a22cb465146102a557600080fd5b806323b872dd1161010a57806323b872dd146101d757806342842e0e146101ea57806342966c68146101fd57806354fa159d146102105780636352211e1461022357806370a082311461023657600080fd5b806301ffc9a71461014757806306fdde031461016f578063081812fc14610184578063095ea7b3146101af5780631e1555e8146101c4575b600080fd5b61015a610155366004612527565b610360565b60405190151581526020015b60405180910390f35b610177610371565b6040516101669190612594565b6101976101923660046125a7565b610403565b6040516001600160a01b039091168152602001610166565b6101c26101bd3660046125dc565b61042a565b005b6101c26101d23660046126bd565b610544565b6101c26101e53660046127b0565b610ab7565b6101c26101f83660046127b0565b610ae9565b6101c261020b3660046125a7565b610b04565b6101c261021e3660046127ec565b610b35565b6101976102313660046125a7565b610cf2565b610249610244366004612863565b610d52565b604051908152602001610166565b61024961026536600461287e565b610dd8565b6101c26102783660046125a7565b6112ab565b61029061028b3660046125a7565b6113fa565b6040516101669190612921565b610177611539565b6101c26102b33660046129b7565b611548565b600754610197906001600160a01b031681565b6101c26102d93660046129ee565b611557565b61015a6102ec366004612a4a565b611589565b6101776102ff3660046125a7565b6115c8565b6103176103123660046125a7565b61163c565b6040516101669190612a6c565b61015a610332366004612aef565b6001600160a01b03918216600090815260056020908152604080832093909416825291909152205460ff1690565b600061036b82611820565b92915050565b60606000805461038090612b22565b80601f01602080910402602001604051908101604052809291908181526020018280546103ac90612b22565b80156103f95780601f106103ce576101008083540402835291602001916103f9565b820191906000526020600020905b8154815290600101906020018083116103dc57829003601f168201915b5050505050905090565b600061040e82611870565b506000908152600460205260409020546001600160a01b031690565b600061043582610cf2565b9050806001600160a01b0316836001600160a01b0316036104a75760405162461bcd60e51b815260206004820152602160248201527f4552433732313a20617070726f76616c20746f2063757272656e74206f776e656044820152603960f91b60648201526084015b60405180910390fd5b336001600160a01b03821614806104c357506104c38133610332565b6105355760405162461bcd60e51b815260206004820152603d60248201527f4552433732313a20617070726f76652063616c6c6572206973206e6f7420746f60448201527f6b656e206f776e6572206f7220617070726f76656420666f7220616c6c000000606482015260840161049e565b61053f83836118c0565b505050565b600754604080516369d0b51760e01b815290516001600160a01b03909216916391d148549183916369d0b517916004808201926020929091908290030181865afa158015610596573d6000803e3d6000fd5b505050506040513d601f19601f820116820180604052508101906105ba9190612b5c565b6040516001600160e01b031960e084901b1681526004810191909152336024820152604401602060405180830381865afa1580156105fc573d6000803e3d6000fd5b505050506040513d601f19601f820116820180604052508101906106209190612b75565b61066c5760405162461bcd60e51b815260206004820152601960248201527f43616c6c6572206973206e6f7420612063657274696669657200000000000000604482015260640161049e565b6106758361192e565b6106915760405162461bcd60e51b815260040161049e90612b92565b6002815110156106d85760405162461bcd60e51b81526020600482015260126024820152715265717569726573206d756c74692d73696760701b604482015260640161049e565b600083836040516020016106ed929190612bbb565b60408051601f198184030181529082905280516020918201207f19457468657265756d205369676e6564204d6573736167653a0a33320000000091830191909152603c820152605c016040516020818303038152906040528051906020012090506000825167ffffffffffffffff81111561076a5761076a612606565b604051908082528060200260200182016040528015610793578160200160208202803683370190505b50905060005b83518110156109dc576107c5838583815181106107b8576107b8612be1565b602002602001015161194b565b8282815181106107d7576107d7612be1565b6001600160a01b03928316602091820292909201810191909152600754604080516369d0b51760e01b8152905191909316926391d148549284926369d0b5179260048082019392918290030181865afa158015610838573d6000803e3d6000fd5b505050506040513d601f19601f8201168201806040525081019061085c9190612b5c565b84848151811061086e5761086e612be1565b60200260200101516040518363ffffffff1660e01b81526004016108a59291909182526001600160a01b0316602082015260400190565b602060405180830381865afa1580156108c2573d6000803e3d6000fd5b505050506040513d601f19601f820116820180604052508101906108e69190612b75565b6109265760405162461bcd60e51b815260206004820152601160248201527024b73b30b634b21031b2b93a34b334b2b960791b604482015260640161049e565b60005b818110156109c95782818151811061094357610943612be1565b60200260200101516001600160a01b031683838151811061096657610966612be1565b60200260200101516001600160a01b0316036109b75760405162461bcd60e51b815260206004820152601060248201526f223ab83634b1b0ba329039b4b3b732b960811b604482015260640161049e565b806109c181612bf7565b915050610929565b50806109d481612bf7565b915050610799565b5060008581526009602090815260408083206004018054600160ff199091168117909155600a83528184208251606081018452338152428186019081529381018a81528254808501845592875294909520855160039092020180546001600160a01b0319166001600160a01b0390921691909117815591519082015590516002820190610a699082612c6c565b505050336001600160a01b0316857f2d19605611c52f4be2cfdb84951e70a10fabc0e8da4cbb26c930512e3b54319e8642604051610aa8929190612d2c565b60405180910390a35050505050565b610ac2335b8261196f565b610ade5760405162461bcd60e51b815260040161049e90612d4e565b61053f8383836119ee565b61053f83838360405180602001604052806000815250611557565b610b0d33610abc565b610b295760405162461bcd60e51b815260040161049e90612d4e565b610b3281611b52565b50565b610b3d611be7565b33610b4785610cf2565b6001600160a01b031614610b8f5760405162461bcd60e51b815260206004820152600f60248201526e2737ba1030b9b9b2ba1037bbb732b960891b604482015260640161049e565b600b83604051610b9f9190612d9b565b9081526040519081900360200190205460ff1615610bf45760405162461bcd60e51b815260206004820152601260248201527143494420616c72656164792065786973747360701b604482015260640161049e565b6000848152600960205260408082209051909190600b90610c16908490612db7565b908152604051908190036020019020805491151560ff1990921691909117905580610c418582612c6c565b506001810183905560058101610c578382612c6c565b50600681018054906000610c6a83612bf7565b91905055506001600b85604051610c819190612d9b565b908152604051908190036020018120805492151560ff1990931692909217909155600682015486917fa8ac72d53712678b1afd2575b423ef027b476e6cd04f9ced5f1b38968a981be691610cd9918891904290612e2d565b60405180910390a250610cec6001600655565b50505050565b6000818152600260205260408120546001600160a01b03168061036b5760405162461bcd60e51b8152602060048201526018602482015277115490cdcc8c4e881a5b9d985b1a59081d1bdad95b88125160421b604482015260640161049e565b60006001600160a01b038216610dbc5760405162461bcd60e51b815260206004820152602960248201527f4552433732313a2061646472657373207a65726f206973206e6f7420612076616044820152683634b21037bbb732b960b91b606482015260840161049e565b506001600160a01b031660009081526003602052604090205490565b6000610de2611be7565b6007546040805163f68e955360e01b815290516001600160a01b03909216916391d1485491839163f68e9553916004808201926020929091908290030181865afa158015610e34573d6000803e3d6000fd5b505050506040513d601f19601f82011682018060405250810190610e589190612b5c565b6040516001600160e01b031960e084901b1681526004810191909152336024820152604401602060405180830381865afa158015610e9a573d6000803e3d6000fd5b505050506040513d601f19601f82011682018060405250810190610ebe9190612b75565b610f0a5760405162461bcd60e51b815260206004820152601960248201527f43616c6c6572206973206e6f7420612072656769737472617200000000000000604482015260640161049e565b600b85604051610f1a9190612d9b565b9081526040519081900360200190205460ff1615610f735760405162461bcd60e51b815260206004820152601660248201527510d25108185b1c9958591e481c9959da5cdd195c995960521b604482015260640161049e565b604080518082018252600c81526b111a59da5d185b105cdcd95d60a21b6020918201528151808301835260018152603160f81b9082015281517f8b73c3c69bb8fe3d512ecc4cf759cc79239f7b179b0ffacaa9a75d522b39400f818301527fc4288bf992b417abfe26d2360a292dbbc12bd7580e6086c5e27482f7338ed3ee818401527fc89efdaa54c0f20c7adf612882df0950f5a951637e0307cdcb4c672f298b8bc660608201524660808201523060a0808301919091528351808303909101815260c08201808552815191909301206101208201909352602880835260009291612f899060e00139805160209182012060408051928301919091526001600160a01b038a16908201526060810187905260800160405160208183030381529060405280519060200120905060006110c6838360405161190160f01b8152600281019290925260228201526042902090565b905060006110d4828761194b565b9050896001600160a01b0316816001600160a01b03161461112b5760405162461bcd60e51b8152602060048201526011602482015270496e76616c6964207369676e617475726560781b604482015260640161049e565b600880546000918261113c83612bf7565b91905055905061114c8b82611c40565b6040805160e0810182528b815260208082018c90526001600160a01b038e168284015242606083015260006080830181905260a083018c9052600160c0840152848152600990915291909120815181906111a69082612c6c565b506020820151600182015560408201516002820180546001600160a01b0319166001600160a01b0390921691909117905560608201516003820155608082015160048201805460ff191691151591909117905560a0820151600582019061120d9082612c6c565b5060c082015181600601559050506001600b8b60405161122d9190612d9b565b908152604051908190036020018120805492151560ff19909316929092179091556001600160a01b038c169082907f17bfbb947caca86ac77ea06397ced8c4f77a1a6c82a21b5a05a738ceddc1f6609061128a908e904290612d2c565b60405180910390a39450505050506112a26001600655565b95945050505050565b6112b433610abc565b6113005760405162461bcd60e51b815260206004820152601f60248201527f43616c6c6572206973206e6f74206f776e6572206f7220617070726f76656400604482015260640161049e565b6000818152600960205260408120805461131990612b22565b80601f016020809104026020016040519081016040528092919081815260200182805461134590612b22565b80156113925780601f1061136757610100808354040283529160200191611392565b820191906000526020600020905b81548152906001019060200180831161137557829003601f168201915b505050505090506113a4816000611c5a565b6113ad82611c8f565b6113b682611cf1565b6113bf82611b52565b604051428152339083907f50c209a01cac1c5d1739b480c343e6851226e861fab7ddcf49f08a2447c6dab09060200160405180910390a35050565b60606114058261192e565b6114215760405162461bcd60e51b815260040161049e90612b92565b6000828152600a6020908152604080832080548251818502810185019093528083529193909284015b8282101561152e576000848152602090819020604080516060810182526003860290920180546001600160a01b031683526001810154938301939093526002830180549293929184019161149d90612b22565b80601f01602080910402602001604051908101604052809291908181526020018280546114c990612b22565b80156115165780601f106114eb57610100808354040283529160200191611516565b820191906000526020600020905b8154815290600101906020018083116114f957829003601f168201915b5050505050815250508152602001906001019061144a565b505050509050919050565b60606001805461038090612b22565b611553338383611d08565b5050565b611561338361196f565b61157d5760405162461bcd60e51b815260040161049e90612d4e565b610cec84848484611dd6565b60006115948361192e565b6115b05760405162461bcd60e51b815260040161049e90612b92565b50600091825260096020526040909120600101541490565b60606115d382611870565b60006115ea60408051602081019091526000815290565b9050600081511161160a5760405180602001604052806000815250611635565b8061161484611e09565b604051602001611625929190612e52565b6040516020818303038152906040525b9392505050565b6040805160e08101825260608082526000602083018190529282018390528082018390526080820183905260a082015260c081019190915261167d8261192e565b6116995760405162461bcd60e51b815260040161049e90612b92565b60008281526009602052604090819020815160e081019092528054829082906116c190612b22565b80601f01602080910402602001604051908101604052809291908181526020018280546116ed90612b22565b801561173a5780601f1061170f5761010080835404028352916020019161173a565b820191906000526020600020905b81548152906001019060200180831161171d57829003601f168201915b50505091835250506001820154602082015260028201546001600160a01b0316604082015260038201546060820152600482015460ff161515608082015260058201805460a09092019161178d90612b22565b80601f01602080910402602001604051908101604052809291908181526020018280546117b990612b22565b80156118065780601f106117db57610100808354040283529160200191611806565b820191906000526020600020905b8154815290600101906020018083116117e957829003601f168201915b505050505081526020016006820154815250509050919050565b60006001600160e01b031982166380ac58cd60e01b148061185157506001600160e01b03198216635b5e139f60e01b145b8061036b57506301ffc9a760e01b6001600160e01b031983161461036b565b6118798161192e565b610b325760405162461bcd60e51b8152602060048201526018602482015277115490cdcc8c4e881a5b9d985b1a59081d1bdad95b88125160421b604482015260640161049e565b600081815260046020526040902080546001600160a01b0319166001600160a01b03841690811790915581906118f582610cf2565b6001600160a01b03167f8c5be1e5ebec7d5bd14f71427d1e84f3dd0314c0f7b2291e5b200ac8c7c3b92560405160405180910390a45050565b6000908152600260205260409020546001600160a01b0316151590565b600080600061195a8585611e9c565b9150915061196781611ee1565b509392505050565b60008061197b83610cf2565b9050806001600160a01b0316846001600160a01b031614806119c257506001600160a01b0380821660009081526005602090815260408083209388168352929052205460ff165b806119e65750836001600160a01b03166119db84610403565b6001600160a01b0316145b949350505050565b826001600160a01b0316611a0182610cf2565b6001600160a01b031614611a275760405162461bcd60e51b815260040161049e90612e81565b6001600160a01b038216611a895760405162461bcd60e51b8152602060048201526024808201527f4552433732313a207472616e7366657220746f20746865207a65726f206164646044820152637265737360e01b606482015260840161049e565b826001600160a01b0316611a9c82610cf2565b6001600160a01b031614611ac25760405162461bcd60e51b815260040161049e90612e81565b600081815260046020908152604080832080546001600160a01b03199081169091556001600160a01b0387811680865260038552838620805460001901905590871680865283862080546001019055868652600290945282852080549092168417909155905184937fddf252ad1be2c89b69c2b068fc378daa952ba7f163c4a11628f55a4df523b3ef91a4505050565b6000611b5d82610cf2565b9050611b6882610cf2565b600083815260046020908152604080832080546001600160a01b03199081169091556001600160a01b0385168085526003845282852080546000190190558785526002909352818420805490911690555192935084927fddf252ad1be2c89b69c2b068fc378daa952ba7f163c4a11628f55a4df523b3ef908390a45050565b600260065403611c395760405162461bcd60e51b815260206004820152601f60248201527f5265656e7472616e637947756172643a207265656e7472616e742063616c6c00604482015260640161049e565b6002600655565b61155382826040518060200160405280600081525061202b565b80600b83604051611c6b9190612d9b565b908152604051908190036020019020805491151560ff199092169190911790555050565b600081815260096020526040812090611ca88282612468565b6000600183018190556002830180546001600160a01b03191690556003830181905560048301805460ff19169055611ce4906005840190612468565b6006820160009055505050565b6000818152600a60205260408120610b32916124a2565b816001600160a01b0316836001600160a01b031603611d695760405162461bcd60e51b815260206004820152601960248201527f4552433732313a20617070726f766520746f2063616c6c657200000000000000604482015260640161049e565b6001600160a01b03838116600081815260056020908152604080832094871680845294825291829020805460ff191686151590811790915591519182527f17307eab39ab6107e8899845ad3d59bd9653f200f220920489ca2b5937696c31910160405180910390a3505050565b611de18484846119ee565b611ded8484848461205e565b610cec5760405162461bcd60e51b815260040161049e90612ec6565b60606000611e168361215f565b600101905060008167ffffffffffffffff811115611e3657611e36612606565b6040519080825280601f01601f191660200182016040528015611e60576020820181803683370190505b5090508181016020015b600019016f181899199a1a9b1b9c1cb0b131b232b360811b600a86061a8153600a8504945084611e6a57509392505050565b6000808251604103611ed25760208301516040840151606085015160001a611ec687828585612237565b94509450505050611eda565b506000905060025b9250929050565b6000816004811115611ef557611ef5612f18565b03611efd5750565b6001816004811115611f1157611f11612f18565b03611f5e5760405162461bcd60e51b815260206004820152601860248201527f45434453413a20696e76616c6964207369676e61747572650000000000000000604482015260640161049e565b6002816004811115611f7257611f72612f18565b03611fbf5760405162461bcd60e51b815260206004820152601f60248201527f45434453413a20696e76616c6964207369676e6174757265206c656e67746800604482015260640161049e565b6003816004811115611fd357611fd3612f18565b03610b325760405162461bcd60e51b815260206004820152602260248201527f45434453413a20696e76616c6964207369676e6174757265202773272076616c604482015261756560f01b606482015260840161049e565b61203583836122fb565b612042600084848461205e565b61053f5760405162461bcd60e51b815260040161049e90612ec6565b60006001600160a01b0384163b1561215457604051630a85bd0160e11b81526001600160a01b0385169063150b7a02906120a2903390899088908890600401612f2e565b6020604051808303816000875af19250505080156120dd575060408051601f3d908101601f191682019092526120da91810190612f6b565b60015b61213a573d80801561210b576040519150601f19603f3d011682016040523d82523d6000602084013e612110565b606091505b5080516000036121325760405162461bcd60e51b815260040161049e90612ec6565b805181602001fd5b6001600160e01b031916630a85bd0160e11b1490506119e6565b506001949350505050565b60008072184f03e93ff9f4daa797ed6e38ed64bf6a1f0160401b831061219e5772184f03e93ff9f4daa797ed6e38ed64bf6a1f0160401b830492506040015b6d04ee2d6d415b85acef810000000083106121ca576d04ee2d6d415b85acef8100000000830492506020015b662386f26fc1000083106121e857662386f26fc10000830492506010015b6305f5e1008310612200576305f5e100830492506008015b612710831061221457612710830492506004015b60648310612226576064830492506002015b600a831061036b5760010192915050565b6000807f7fffffffffffffffffffffffffffffff5d576e7357a4501ddfe92f46681b20a083111561226e57506000905060036122f2565b6040805160008082526020820180845289905260ff881692820192909252606081018690526080810185905260019060a0016020604051602081039080840390855afa1580156122c2573d6000803e3d6000fd5b5050604051601f1901519150506001600160a01b0381166122eb576000600192509250506122f2565b9150600090505b94509492505050565b6001600160a01b0382166123515760405162461bcd60e51b815260206004820181905260248201527f4552433732313a206d696e7420746f20746865207a65726f2061646472657373604482015260640161049e565b61235a8161192e565b156123a75760405162461bcd60e51b815260206004820152601c60248201527f4552433732313a20746f6b656e20616c7265616479206d696e74656400000000604482015260640161049e565b6123b08161192e565b156123fd5760405162461bcd60e51b815260206004820152601c60248201527f4552433732313a20746f6b656e20616c7265616479206d696e74656400000000604482015260640161049e565b6001600160a01b038216600081815260036020908152604080832080546001019055848352600290915280822080546001600160a01b0319168417905551839291907fddf252ad1be2c89b69c2b068fc378daa952ba7f163c4a11628f55a4df523b3ef908290a45050565b50805461247490612b22565b6000825580601f10612484575050565b601f016020900490600052602060002090810190610b3291906124c3565b5080546000825560030290600052602060002090810190610b3291906124dc565b5b808211156124d857600081556001016124c4565b5090565b808211156124d85780546001600160a01b03191681556000600182018190556125086002830182612468565b506003016124dc565b6001600160e01b031981168114610b3257600080fd5b60006020828403121561253957600080fd5b813561163581612511565b60005b8381101561255f578181015183820152602001612547565b50506000910152565b60008151808452612580816020860160208601612544565b601f01601f19169290920160200192915050565b6020815260006116356020830184612568565b6000602082840312156125b957600080fd5b5035919050565b80356001600160a01b03811681146125d757600080fd5b919050565b600080604083850312156125ef57600080fd5b6125f8836125c0565b946020939093013593505050565b634e487b7160e01b600052604160045260246000fd5b604051601f8201601f1916810167ffffffffffffffff8111828210171561264557612645612606565b604052919050565b600082601f83011261265e57600080fd5b813567ffffffffffffffff81111561267857612678612606565b61268b601f8201601f191660200161261c565b8181528460208386010111156126a057600080fd5b816020850160208301376000918101602001919091529392505050565b6000806000606084860312156126d257600080fd5b8335925060208085013567ffffffffffffffff808211156126f257600080fd5b6126fe8883890161264d565b9450604087013591508082111561271457600080fd5b818701915087601f83011261272857600080fd5b81358181111561273a5761273a612606565b8060051b61274985820161261c565b918252838101850191858101908b84111561276357600080fd5b86860192505b8383101561279f578235858111156127815760008081fd5b61278f8d89838a010161264d565b8352509186019190860190612769565b809750505050505050509250925092565b6000806000606084860312156127c557600080fd5b6127ce846125c0565b92506127dc602085016125c0565b9150604084013590509250925092565b6000806000806080858703121561280257600080fd5b84359350602085013567ffffffffffffffff8082111561282157600080fd5b61282d8883890161264d565b945060408701359350606087013591508082111561284a57600080fd5b506128578782880161264d565b91505092959194509250565b60006020828403121561287557600080fd5b611635826125c0565b600080600080600060a0868803121561289657600080fd5b61289f866125c0565b9450602086013567ffffffffffffffff808211156128bc57600080fd5b6128c889838a0161264d565b95506040880135945060608801359150808211156128e557600080fd5b6128f189838a0161264d565b9350608088013591508082111561290757600080fd5b506129148882890161264d565b9150509295509295909350565b60006020808301818452808551808352604092508286019150828160051b87010184880160005b8381101561299b57888303603f19018552815180516001600160a01b031684528781015188850152860151606087850181905261298781860183612568565b968901969450505090860190600101612948565b509098975050505050505050565b8015158114610b3257600080fd5b600080604083850312156129ca57600080fd5b6129d3836125c0565b915060208301356129e3816129a9565b809150509250929050565b60008060008060808587031215612a0457600080fd5b612a0d856125c0565b9350612a1b602086016125c0565b925060408501359150606085013567ffffffffffffffff811115612a3e57600080fd5b6128578782880161264d565b60008060408385031215612a5d57600080fd5b50508035926020909101359150565b602081526000825160e06020840152612a89610100840182612568565b90506020840151604084015260018060a01b036040850151166060840152606084015160808401526080840151151560a084015260a0840151601f198483030160c0850152612ad88282612568565b91505060c084015160e08401528091505092915050565b60008060408385031215612b0257600080fd5b612b0b836125c0565b9150612b19602084016125c0565b90509250929050565b600181811c90821680612b3657607f821691505b602082108103612b5657634e487b7160e01b600052602260045260246000fd5b50919050565b600060208284031215612b6e57600080fd5b5051919050565b600060208284031215612b8757600080fd5b8151611635816129a9565b6020808252600f908201526e105cdcd95d081b9bdd08195e1a5cdd608a1b604082015260600190565b82815260008251612bd3816020850160208701612544565b919091016020019392505050565b634e487b7160e01b600052603260045260246000fd5b600060018201612c1757634e487b7160e01b600052601160045260246000fd5b5060010190565b601f82111561053f57600081815260208120601f850160051c81016020861015612c455750805b601f850160051c820191505b81811015612c6457828155600101612c51565b505050505050565b815167ffffffffffffffff811115612c8657612c86612606565b612c9a81612c948454612b22565b84612c1e565b602080601f831160018114612ccf5760008415612cb75750858301515b600019600386901b1c1916600185901b178555612c64565b600085815260208120601f198616915b82811015612cfe57888601518255948401946001909101908401612cdf565b5085821015612d1c5787850151600019600388901b60f8161c191681555b5050505050600190811b01905550565b604081526000612d3f6040830185612568565b90508260208301529392505050565b6020808252602d908201527f4552433732313a2063616c6c6572206973206e6f7420746f6b656e206f776e6560408201526c1c881bdc88185c1c1c9bdd9959609a1b606082015260800190565b60008251612dad818460208701612544565b9190910192915050565b6000808354612dc581612b22565b60018281168015612ddd5760018114612df257612e21565b60ff1984168752821515830287019450612e21565b8760005260208060002060005b85811015612e185781548a820152908401908201612dff565b50505082870194505b50929695505050505050565b606081526000612e406060830186612568565b60208301949094525060400152919050565b60008351612e64818460208801612544565b835190830190612e78818360208801612544565b01949350505050565b60208082526025908201527f4552433732313a207472616e736665722066726f6d20696e636f72726563742060408201526437bbb732b960d91b606082015260800190565b60208082526032908201527f4552433732313a207472616e7366657220746f206e6f6e20455243373231526560408201527131b2b4bb32b91034b6b83632b6b2b73a32b960711b606082015260800190565b634e487b7160e01b600052602160045260246000fd5b6001600160a01b0385811682528416602082015260408101839052608060608201819052600090612f6190830184612568565b9695505050505050565b600060208284031215612f7d57600080fd5b81516116358161251156fe5265676973746572286164647265737320746f2c6279746573333220636f6e74656e744861736829a26469706673582212202bda54c33a947a2fc4d3460a6dc84b6ebe36259b984d282e16d5f067369f38b164736f6c63430008130033",
  "immutableReferences": {},
  "source": "// SPDX-License-Identifier: MIT\r\npragma solidity ^0.8.19;\r\n\r\nimport \"@openzeppelin/contracts/token/ERC721/ERC721.sol\";\r\nimport \"@openzeppelin/contracts/token/ERC721/extensions/ERC721Burnable.sol\";\r\nimport \"@openzeppelin/contracts/utils/cryptography/ECDSA.sol\";\r\nimport \"@openzeppelin/contracts/security/ReentrancyGuard.sol\";\r\nimport \"./RBAC.sol\"; //  RBAC \r\n\r\n/**\r\n * @title DigitalAsset\r\n * @dev \r\n */\r\ncontract DigitalAsset is ERC721, ERC721Burnable, ReentrancyGuard {\r\n    using ECDSA for bytes32;\r\n\r\n    // RBAC \r\n    RBAC public rbac;\r\n\r\n    // \r\n    struct AssetMetadata {\r\n        string cid;                // IPFS\r\n        bytes32 contentHash;       // \r\n        address registrant;        // \r\n        uint256 registrationDate; // \r\n        bool isCertified;         // \r\n        string encryptedKey;      // \r\n        uint256 version;          // \r\n    }\r\n\r\n    // \r\n    struct Certification {\r\n        address certifier;        // \r\n        uint256 timestamp;        // \r\n        string comment;           // \r\n    }\r\n\r\n    // \r\n    uint256 private _tokenIdCounter; // Token ID \r\n    mapping(uint256 => AssetMetadata) private _metadata; // Token ID \r\n    mapping(uint256 => Certification[]) private _certificationHistory; // Token ID \r\n    mapping(string => bool) private _cidRegistry; // CID \r\n\r\n    // \r\n    event AssetRegistered(\r\n        uint256 indexed tokenId,\r\n        address indexed registrant,\r\n        string cid,\r\n        uint256 timestamp\r\n    );\r\n    event AssetCertified(\r\n        uint256 indexed tokenId,\r\n        address indexed certifier,\r\n        string comment,\r\n        uint256 timestamp\r\n    );\r\n    event MetadataUpdated(\r\n        uint256 indexed tokenId,\r\n        string newCid,\r\n        uint256 newVersion,\r\n        uint256 timestamp\r\n    );\r\n    event AssetBurned(\r\n        uint256 indexed tokenId,\r\n        address indexed burner,\r\n        uint256 timestamp\r\n    );\r\n\r\n    /**\r\n     * @dev \r\n     * @param rbacAddress RBAC\r\n     */\r\n    constructor(address rbacAddress) ERC721(\"EnterpriseDigitalAsset\", \"EDA\") {\r\n        require(rbacAddress != address(0), \"Invalid RBAC address\");\r\n        rbac = RBAC(rbacAddress);\r\n    }\r\n\r\n    /**\r\n     * @dev \r\n     */\r\n    modifier onlyRegistrar() {\r\n        require(\r\n            rbac.hasRole(rbac.REGISTRAR_ROLE(), msg.sender),\r\n            \"Caller is not a registrar\"\r\n        );\r\n        _;\r\n    }\r\n\r\n    /**\r\n     * @dev \r\n     */\r\n    modifier onlyCertifier() {\r\n        require(\r\n            rbac.hasRole(rbac.CERTIFIER_ROLE(), msg.sender),\r\n            \"Caller is not a certifier\"\r\n        );\r\n        _;\r\n    }\r\n\r\n    /**\r\n     * @dev \r\n     * @param to \r\n     * @param cid IPFS\r\n     * @param contentHash \r\n     * @param encryptedKey \r\n     * @param signature \r\n     */\r\n    function registerAsset(\r\n        address to,\r\n        string memory cid,\r\n        bytes32 contentHash,\r\n        string memory encryptedKey,\r\n        bytes memory signature\r\n    ) external nonReentrant onlyRegistrar returns (uint256) {\r\n        require(!_cidRegistry[cid], \"CID already registered\");\r\n\r\n        //  EIP-712 \r\n        bytes32 domainSeparator = keccak256(abi.encode(\r\n            keccak256(\"EIP712Domain(string name,string version,uint256 chainId,address verifyingContract)\"),\r\n            keccak256(bytes(\"DigitalAsset\")),\r\n            keccak256(bytes(\"1\")),\r\n            block.chainid,\r\n            address(this)\r\n        ));\r\n\r\n        bytes32 structHash = keccak256(abi.encode(\r\n            keccak256(bytes(\"Register(address to,bytes32 contentHash)\")),\r\n            to,\r\n            contentHash\r\n        ));\r\n\r\n        bytes32 messageHash = ECDSA.toTypedDataHash(domainSeparator, structHash);\r\n\r\n        // \r\n        address recovered = ECDSA.recover(messageHash, signature);\r\n        require(recovered == to, \"Invalid signature\");\r\n\r\n        //  Token ID  NFT\r\n        uint256 tokenId = _tokenIdCounter++;\r\n        _safeMint(to, tokenId);\r\n\r\n        // \r\n        _metadata[tokenId] = AssetMetadata({\r\n            cid: cid,\r\n            contentHash: contentHash,\r\n            registrant: to,\r\n            registrationDate: block.timestamp,\r\n            isCertified: false,\r\n            encryptedKey: encryptedKey,\r\n            version: 1\r\n        });\r\n\r\n        //  CID \r\n        _cidRegistry[cid] = true;\r\n\r\n        // \r\n        emit AssetRegistered(tokenId, to, cid, block.timestamp);\r\n        return tokenId;\r\n    }\r\n\r\n    /**\r\n     * @dev \r\n     * @param tokenId  ID\r\n     * @param comment \r\n     * @param signatures \r\n     */\r\n    function certifyAsset(\r\n        uint256 tokenId,\r\n        string memory comment,\r\n        bytes[] memory signatures\r\n    ) external onlyCertifier {\r\n        require(_exists(tokenId), \"Asset not exist\");\r\n        require(signatures.length >= 2, \"Requires multi-sig\");\r\n\r\n        // \r\n        bytes32 messageHash = keccak256(\r\n            abi.encodePacked(\r\n                \"\\x19Ethereum Signed Message:\\n32\",\r\n                keccak256(abi.encodePacked(tokenId, comment))\r\n            )\r\n        );\r\n\r\n        // \r\n        address[] memory signers = new address[](signatures.length);\r\n        for (uint i = 0; i < signatures.length; i++) {\r\n            signers[i] = ECDSA.recover(messageHash, signatures[i]);\r\n            require(\r\n                rbac.hasRole(rbac.CERTIFIER_ROLE(), signers[i]),\r\n                \"Invalid certifier\"\r\n            );\r\n\r\n            // \r\n            for (uint j = 0; j < i; j++) {\r\n                require(signers[i] != signers[j], \"Duplicate signer\");\r\n            }\r\n        }\r\n\r\n        // \r\n        _metadata[tokenId].isCertified = true;\r\n\r\n        // \r\n        _certificationHistory[tokenId].push(Certification({\r\n            certifier: msg.sender,\r\n            timestamp: block.timestamp,\r\n            comment: comment\r\n        }));\r\n\r\n        // \r\n        emit AssetCertified(tokenId, msg.sender, comment, block.timestamp);\r\n    }\r\n\r\n    /**\r\n     * @dev \r\n     * @param tokenId  ID\r\n     * @param newCid  CID\r\n     * @param newHash \r\n     * @param newKey \r\n     */\r\n    function updateMetadata(\r\n        uint256 tokenId,\r\n        string memory newCid,\r\n        bytes32 newHash,\r\n        string memory newKey\r\n    ) external nonReentrant {\r\n        require(ownerOf(tokenId) == msg.sender, \"Not asset owner\"); // \r\n        require(!_cidRegistry[newCid], \"CID already exists\");       //  CID \r\n\r\n        // \r\n        AssetMetadata storage meta = _metadata[tokenId];\r\n        _cidRegistry[meta.cid] = false; //  CID\r\n        meta.cid = newCid;\r\n        meta.contentHash = newHash;\r\n        meta.encryptedKey = newKey;\r\n        meta.version++;\r\n        _cidRegistry[newCid] = true; //  CID \r\n\r\n        // \r\n        emit MetadataUpdated(tokenId, newCid, meta.version, block.timestamp);\r\n    }\r\n\r\n    /**\r\n     * @dev \r\n     * @param tokenId  ID\r\n     */\r\n    function getAssetMetadata(uint256 tokenId) \r\n        external \r\n        view \r\n        returns (AssetMetadata memory) \r\n    {\r\n        require(_exists(tokenId), \"Asset not exist\"); // \r\n        return _metadata[tokenId];\r\n    }\r\n\r\n    /**\r\n     * @dev \r\n     * @param tokenId  ID\r\n     */\r\n    function getCertificationHistory(uint256 tokenId)\r\n        external\r\n        view\r\n        returns (Certification[] memory)\r\n    {\r\n        require(_exists(tokenId), \"Asset not exist\"); // \r\n        return _certificationHistory[tokenId];\r\n    }\r\n\r\n    /**\r\n     * @dev \r\n     * @param tokenId  ID\r\n     * @param hash \r\n     */\r\n    function verifyIntegrity(uint256 tokenId, bytes32 hash) \r\n        external \r\n        view \r\n        returns (bool) \r\n    {\r\n        require(_exists(tokenId), \"Asset not exist\"); // \r\n        return _metadata[tokenId].contentHash == hash;\r\n    }\r\n\r\n    /**\r\n     * @dev \r\n     */\r\n    function supportsInterface(bytes4 interfaceId)\r\n        public\r\n        view\r\n        override(ERC721)\r\n        returns (bool)\r\n    {\r\n        return super.supportsInterface(interfaceId);\r\n    }\r\n\r\n    // \r\n    function _setCIDRegistry(string memory cid, bool value) internal {\r\n        _cidRegistry[cid] = value;\r\n    }\r\n\r\n    function _deleteMetadata(uint256 tokenId) internal {\r\n        delete _metadata[tokenId];\r\n    }\r\n\r\n    function _deleteCertificationHistory(uint256 tokenId) internal {\r\n        delete _certificationHistory[tokenId];\r\n    }\r\n\r\n    /**\r\n     * @dev  - \r\n     * @param tokenId ID\r\n     */\r\n    function burnAsset(uint256 tokenId) external {\r\n        require(_isApprovedOrOwner(_msgSender(), tokenId), \"Caller is not owner or approved\");\r\n        \r\n        // CID\r\n        string memory cid = _metadata[tokenId].cid;\r\n        \r\n        // CID\r\n        _setCIDRegistry(cid, false);\r\n        \r\n        // \r\n        _deleteMetadata(tokenId);\r\n        _deleteCertificationHistory(tokenId);\r\n        \r\n        // NFT (ERC721_burn)\r\n        _burn(tokenId);\r\n        \r\n        // \r\n        emit AssetBurned(tokenId, _msgSender(), block.timestamp);\r\n    }\r\n}",
  "sourcePath": "D:\\work\\2025BlockAsset\\digital-asset-system\\contracts\\DigitalAsset.sol",
  "compiler": {
    "name": "solc",
    "version": "0.8.19+commit.7dd6d404.Emscripten.clang"
  },
  "schemaVersion": "3.4.16",
  "updatedAt": "2025-03-22T09:35:43.312Z",
  "networkType": "ethereum",
  "devdoc": {
    "details": "",
    "events": {
      "Approval(address,address,uint256)": {
        "details": "Emitted when `owner` enables `approved` to manage the `tokenId` token."
      },
      "ApprovalForAll(address,address,bool)": {
        "details": "Emitted when `owner` enables or disables (`approved`) `operator` to manage all of its assets."
      },
      "Transfer(address,address,uint256)": {
        "details": "Emitted when `tokenId` token is transferred from `from` to `to`."
      }
    },
    "kind": "dev",
    "methods": {
      "approve(address,uint256)": {
        "details": "See {IERC721-approve}."
      },
      "balanceOf(address)": {
        "details": "See {IERC721-balanceOf}."
      },
      "burn(uint256)": {
        "details": "Burns `tokenId`. See {ERC721-_burn}. Requirements: - The caller must own `tokenId` or be an approved operator."
      },
      "burnAsset(uint256)": {
        "details": " - ",
        "params": {
          "tokenId": "ID"
        }
      },
      "certifyAsset(uint256,string,bytes[])": {
        "details": "",
        "params": {
          "comment": "",
          "signatures": "",
          "tokenId": " ID"
        }
      },
      "constructor": {
        "details": "",
        "params": {
          "rbacAddress": "RBAC"
        }
      },
      "getApproved(uint256)": {
        "details": "See {IERC721-getApproved}."
      },
      "getAssetMetadata(uint256)": {
        "details": "",
        "params": {
          "tokenId": " ID"
        }
      },
      "getCertificationHistory(uint256)": {
        "details": "",
        "params": {
          "tokenId": " ID"
        }
      },
      "isApprovedForAll(address,address)": {
        "details": "See {IERC721-isApprovedForAll}."
      },
      "name()": {
        "details": "See {IERC721Metadata-name}."
      },
      "ownerOf(uint256)": {
        "details": "See {IERC721-ownerOf}."
      },
      "registerAsset(address,string,bytes32,string,bytes)": {
        "details": "",
        "params": {
          "cid": "IPFS",
          "contentHash": "",
          "encryptedKey": "",
          "signature": "",
          "to": ""
        }
      },
      "safeTransferFrom(address,address,uint256)": {
        "details": "See {IERC721-safeTransferFrom}."
      },
      "safeTransferFrom(address,address,uint256,bytes)": {
        "details": "See {IERC721-safeTransferFrom}."
      },
      "setApprovalForAll(address,bool)": {
        "details": "See {IERC721-setApprovalForAll}."
      },
      "supportsInterface(bytes4)": {
        "details": ""
      },
      "symbol()": {
        "details": "See {IERC721Metadata-symbol}."
      },
      "tokenURI(uint256)": {
        "details": "See {IERC721Metadata-tokenURI}."
      },
      "transferFrom(address,address,uint256)": {
        "details": "See {IERC721-transferFrom}."
      },
      "updateMetadata(uint256,string,bytes32,string)": {
        "details": "",
        "params": {
          "newCid": " CID",
          "newHash": "",
          "newKey": "",
          "tokenId": " ID"
        }
      },
      "verifyIntegrity(uint256,bytes32)": {
        "details": "",
        "params": {
          "hash": "",
          "tokenId": " ID"
        }
      }
    },
    "title": "DigitalAsset",
    "version": 1
  },
  "userdoc": {
    "kind": "user",
    "methods": {},
    "version": 1
  }
}