{
  "contractName": "DIDRegistry",
  "abi": [
    {
      "inputs": [],
      "stateMutability": "nonpayable",
      "type": "constructor"
    },
    {
      "inputs": [],
      "name": "InvalidShortString",
      "type": "error"
    },
    {
      "inputs": [
        {
          "internalType": "string",
          "name": "str",
          "type": "string"
        }
      ],
      "name": "StringTooLong",
      "type": "error"
    },
    {
      "anonymous": false,
      "inputs": [
        {
          "indexed": true,
          "internalType": "address",
          "name": "owner",
          "type": "address"
        }
      ],
      "name": "DIDDeactivated",
      "type": "event"
    },
    {
      "anonymous": false,
      "inputs": [
        {
          "indexed": true,
          "internalType": "address",
          "name": "owner",
          "type": "address"
        },
        {
          "indexed": false,
          "internalType": "bytes32",
          "name": "docHash",
          "type": "bytes32"
        }
      ],
      "name": "DIDRegistered",
      "type": "event"
    },
    {
      "anonymous": false,
      "inputs": [
        {
          "indexed": true,
          "internalType": "address",
          "name": "owner",
          "type": "address"
        },
        {
          "indexed": false,
          "internalType": "bytes32",
          "name": "newDocHash",
          "type": "bytes32"
        }
      ],
      "name": "DIDUpdated",
      "type": "event"
    },
    {
      "anonymous": false,
      "inputs": [],
      "name": "EIP712DomainChanged",
      "type": "event"
    },
    {
      "anonymous": false,
      "inputs": [
        {
          "indexed": true,
          "internalType": "address",
          "name": "previousOwner",
          "type": "address"
        },
        {
          "indexed": true,
          "internalType": "address",
          "name": "newOwner",
          "type": "address"
        }
      ],
      "name": "OwnershipTransferStarted",
      "type": "event"
    },
    {
      "anonymous": false,
      "inputs": [
        {
          "indexed": true,
          "internalType": "address",
          "name": "previousOwner",
          "type": "address"
        },
        {
          "indexed": true,
          "internalType": "address",
          "name": "newOwner",
          "type": "address"
        }
      ],
      "name": "OwnershipTransferred",
      "type": "event"
    },
    {
      "anonymous": false,
      "inputs": [
        {
          "indexed": true,
          "internalType": "address",
          "name": "target",
          "type": "address"
        },
        {
          "indexed": true,
          "internalType": "address",
          "name": "operator",
          "type": "address"
        },
        {
          "indexed": false,
          "internalType": "uint256",
          "name": "newScore",
          "type": "uint256"
        },
        {
          "indexed": false,
          "internalType": "int256",
          "name": "delta",
          "type": "int256"
        }
      ],
      "name": "ReputationChanged",
      "type": "event"
    },
    {
      "anonymous": false,
      "inputs": [
        {
          "indexed": true,
          "internalType": "address",
          "name": "owner",
          "type": "address"
        },
        {
          "indexed": false,
          "internalType": "uint256",
          "name": "amount",
          "type": "uint256"
        }
      ],
      "name": "StakeWithdrawn",
      "type": "event"
    },
    {
      "inputs": [],
      "name": "CREATE_TYPEHASH",
      "outputs": [
        {
          "internalType": "bytes32",
          "name": "",
          "type": "bytes32"
        }
      ],
      "stateMutability": "view",
      "type": "function",
      "constant": true
    },
    {
      "inputs": [],
      "name": "INITIAL_REPUTATION",
      "outputs": [
        {
          "internalType": "uint256",
          "name": "",
          "type": "uint256"
        }
      ],
      "stateMutability": "view",
      "type": "function",
      "constant": true
    },
    {
      "inputs": [],
      "name": "MAX_REPUTATION",
      "outputs": [
        {
          "internalType": "uint256",
          "name": "",
          "type": "uint256"
        }
      ],
      "stateMutability": "view",
      "type": "function",
      "constant": true
    },
    {
      "inputs": [],
      "name": "MIN_REPUTATION",
      "outputs": [
        {
          "internalType": "uint256",
          "name": "",
          "type": "uint256"
        }
      ],
      "stateMutability": "view",
      "type": "function",
      "constant": true
    },
    {
      "inputs": [],
      "name": "REPUTATION_TYPEHASH",
      "outputs": [
        {
          "internalType": "bytes32",
          "name": "",
          "type": "bytes32"
        }
      ],
      "stateMutability": "view",
      "type": "function",
      "constant": true
    },
    {
      "inputs": [],
      "name": "SIGNATURE_VALIDITY",
      "outputs": [
        {
          "internalType": "uint256",
          "name": "",
          "type": "uint256"
        }
      ],
      "stateMutability": "view",
      "type": "function",
      "constant": true
    },
    {
      "inputs": [],
      "name": "STAKE_AMOUNT",
      "outputs": [
        {
          "internalType": "uint256",
          "name": "",
          "type": "uint256"
        }
      ],
      "stateMutability": "view",
      "type": "function",
      "constant": true
    },
    {
      "inputs": [],
      "name": "UPDATE_DID_TYPEHASH",
      "outputs": [
        {
          "internalType": "bytes32",
          "name": "",
          "type": "bytes32"
        }
      ],
      "stateMutability": "view",
      "type": "function",
      "constant": true
    },
    {
      "inputs": [],
      "name": "WITHDRAW_TYPEHASH",
      "outputs": [
        {
          "internalType": "bytes32",
          "name": "",
          "type": "bytes32"
        }
      ],
      "stateMutability": "view",
      "type": "function",
      "constant": true
    },
    {
      "inputs": [],
      "name": "acceptOwnership",
      "outputs": [],
      "stateMutability": "nonpayable",
      "type": "function"
    },
    {
      "inputs": [],
      "name": "eip712Domain",
      "outputs": [
        {
          "internalType": "bytes1",
          "name": "fields",
          "type": "bytes1"
        },
        {
          "internalType": "string",
          "name": "name",
          "type": "string"
        },
        {
          "internalType": "string",
          "name": "version",
          "type": "string"
        },
        {
          "internalType": "uint256",
          "name": "chainId",
          "type": "uint256"
        },
        {
          "internalType": "address",
          "name": "verifyingContract",
          "type": "address"
        },
        {
          "internalType": "bytes32",
          "name": "salt",
          "type": "bytes32"
        },
        {
          "internalType": "uint256[]",
          "name": "extensions",
          "type": "uint256[]"
        }
      ],
      "stateMutability": "view",
      "type": "function",
      "constant": true
    },
    {
      "inputs": [
        {
          "internalType": "address",
          "name": "",
          "type": "address"
        }
      ],
      "name": "nonces",
      "outputs": [
        {
          "internalType": "uint256",
          "name": "",
          "type": "uint256"
        }
      ],
      "stateMutability": "view",
      "type": "function",
      "constant": true
    },
    {
      "inputs": [],
      "name": "owner",
      "outputs": [
        {
          "internalType": "address",
          "name": "",
          "type": "address"
        }
      ],
      "stateMutability": "view",
      "type": "function",
      "constant": true
    },
    {
      "inputs": [],
      "name": "pendingOwner",
      "outputs": [
        {
          "internalType": "address",
          "name": "",
          "type": "address"
        }
      ],
      "stateMutability": "view",
      "type": "function",
      "constant": true
    },
    {
      "inputs": [],
      "name": "renounceOwnership",
      "outputs": [],
      "stateMutability": "nonpayable",
      "type": "function"
    },
    {
      "inputs": [
        {
          "internalType": "address",
          "name": "newOwner",
          "type": "address"
        }
      ],
      "name": "transferOwnership",
      "outputs": [],
      "stateMutability": "nonpayable",
      "type": "function"
    },
    {
      "inputs": [
        {
          "internalType": "bytes32",
          "name": "docHash",
          "type": "bytes32"
        },
        {
          "internalType": "bytes",
          "name": "signature",
          "type": "bytes"
        }
      ],
      "name": "createDID",
      "outputs": [],
      "stateMutability": "payable",
      "type": "function",
      "payable": true
    },
    {
      "inputs": [
        {
          "internalType": "bytes32",
          "name": "newDocHash",
          "type": "bytes32"
        },
        {
          "internalType": "uint256",
          "name": "deadline",
          "type": "uint256"
        },
        {
          "internalType": "bytes",
          "name": "signature",
          "type": "bytes"
        }
      ],
      "name": "updateDID",
      "outputs": [],
      "stateMutability": "nonpayable",
      "type": "function"
    },
    {
      "inputs": [
        {
          "internalType": "address",
          "name": "user",
          "type": "address"
        }
      ],
      "name": "getDID",
      "outputs": [
        {
          "internalType": "bytes32",
          "name": "docHash",
          "type": "bytes32"
        },
        {
          "internalType": "uint256",
          "name": "created",
          "type": "uint256"
        },
        {
          "internalType": "uint256",
          "name": "reputation",
          "type": "uint256"
        },
        {
          "internalType": "bool",
          "name": "active",
          "type": "bool"
        },
        {
          "internalType": "address",
          "name": "controller",
          "type": "address"
        }
      ],
      "stateMutability": "view",
      "type": "function",
      "constant": true
    },
    {
      "inputs": [
        {
          "internalType": "address",
          "name": "user",
          "type": "address"
        }
      ],
      "name": "isDIDActive",
      "outputs": [
        {
          "internalType": "bool",
          "name": "",
          "type": "bool"
        }
      ],
      "stateMutability": "view",
      "type": "function",
      "constant": true
    },
    {
      "inputs": [
        {
          "internalType": "bytes32",
          "name": "docHash",
          "type": "bytes32"
        }
      ],
      "name": "getDocHashOwner",
      "outputs": [
        {
          "internalType": "address",
          "name": "",
          "type": "address"
        }
      ],
      "stateMutability": "view",
      "type": "function",
      "constant": true
    },
    {
      "inputs": [
        {
          "internalType": "address",
          "name": "user",
          "type": "address"
        }
      ],
      "name": "getReputationHistory",
      "outputs": [
        {
          "internalType": "address[]",
          "name": "operators",
          "type": "address[]"
        },
        {
          "internalType": "int256[]",
          "name": "deltas",
          "type": "int256[]"
        },
        {
          "internalType": "uint256[]",
          "name": "timestamps",
          "type": "uint256[]"
        },
        {
          "internalType": "string[]",
          "name": "reasons",
          "type": "string[]"
        }
      ],
      "stateMutability": "view",
      "type": "function",
      "constant": true
    }
  ],
  "bytecode": "0x6101606040523480156200001257600080fd5b50604080518082018252600b81526a444944526567697374727960a81b602080830191909152825180840190935260018352603160f81b90830152906200005b82600062000119565b610120526200006c81600162000119565b61014052815160208084019190912060e052815190820120610100524660a052620000fa60e05161010051604080517f8b73c3c69bb8fe3d512ecc4cf759cc79239f7b179b0ffacaa9a75d522b39400f60208201529081019290925260608201524660808201523060a082015260009060c00160405160208183030381529060405280519060200120905090565b60805250503060c0526001600255620001133362000152565b620003f4565b60006020835110156200013957620001318362000170565b90506200014c565b81620001468482620002b3565b5060ff90505b92915050565b600480546001600160a01b03191690556200016d81620001bc565b50565b600080829050601f81511115620001a7578260405163305a27a960e01b81526004016200019e91906200037f565b60405180910390fd5b8051620001b482620003cf565b179392505050565b600380546001600160a01b038381166001600160a01b0319831681179093556040519116919082907f8be0079c531659141344cd1fd0a4f28419497f9722a3daafe3b4186f6b6457e090600090a35050565b634e487b7160e01b600052604160045260246000fd5b600181811c908216806200023957607f821691505b6020821081036200025a57634e487b7160e01b600052602260045260246000fd5b50919050565b601f821115620002ae57600081815260208120601f850160051c81016020861015620002895750805b601f850160051c820191505b81811015620002aa5782815560010162000295565b5050505b505050565b81516001600160401b03811115620002cf57620002cf6200020e565b620002e781620002e0845462000224565b8462000260565b602080601f8311600181146200031f5760008415620003065750858301515b600019600386901b1c1916600185901b178555620002aa565b600085815260208120601f198616915b8281101562000350578886015182559484019460019091019084016200032f565b50858210156200036f5787850151600019600388901b60f8161c191681555b5050505050600190811b01905550565b600060208083528351808285015260005b81811015620003ae5785810183015185820160400152820162000390565b506000604082860101526040601f19601f8301168501019250505092915050565b805160208083015191908110156200025a5760001960209190910360031b1b16919050565b60805160a05160c05160e0516101005161012051610140516118e16200044f6000396000610af901526000610acf015260006112550152600061122d01526000611188015260006111b2015260006111dc01526118e16000f3fe6080604052600436106101355760003560e01c80637ecebe00116100ab578063e28019ae1161006f578063e28019ae146103a7578063e30c3978146103db578063f2fde38b146103f9578063f64e30b014610419578063faf5625f146104d2578063fd0dccd5146104ed57600080fd5b80637ecebe001461030b57806384b0196e146103385780638da5cb5b14610360578063ca9ab59c1461037e578063d213c0f21461039157600080fd5b8063697c6045116100fd578063697c60451461023757806371422e5d1461024c578063715018a61461029857806376c5d758146102ad57806379ba5097146102e15780637b057258146102f657600080fd5b806311ba17411461013a5780632a73dead146101815780633e45be7b1461019757806348bb0fe4146101e55780634fa5102314610215575b600080fd5b34801561014657600080fd5b5061016e7f3bf667f9b697a6d2a774a4963e1d4aacaee038ab6ca4d43b9027325db3c7ee9b81565b6040519081526020015b60405180910390f35b34801561018d57600080fd5b5061016e61012c81565b3480156101a357600080fd5b506101cd6101b2366004611521565b6000908152600660205260409020546001600160a01b031690565b6040516001600160a01b039091168152602001610178565b3480156101f157600080fd5b5061020561020036600461153a565b610521565b60405161017894939291906115eb565b34801561022157600080fd5b506102356102303660046116f9565b61083a565b005b34801561024357600080fd5b5061016e600081565b34801561025857600080fd5b5061028861026736600461153a565b6001600160a01b031660009081526005602052604090206003015460ff1690565b6040519015158152602001610178565b3480156102a457600080fd5b50610235610a33565b3480156102b957600080fd5b5061016e7f6af34c8a8bd3dc4589e72d10e0e17dd60cebe3c2cdcda3d3540dd97f53d8ba7d81565b3480156102ed57600080fd5b50610235610a47565b34801561030257600080fd5b5061016e606481565b34801561031757600080fd5b5061016e61032636600461153a565b60086020526000908152604090205481565b34801561034457600080fd5b5061034d610ac1565b604051610178979695949392919061174c565b34801561036c57600080fd5b506003546001600160a01b03166101cd565b61023561038c3660046117bc565b610b49565b34801561039d57600080fd5b5061016e6103e881565b3480156103b357600080fd5b5061016e7f7aeb8aeb1c6b82ca4bcf9771c7b16aefe695272929e7acb5ff134aa4417e508c81565b3480156103e757600080fd5b506004546001600160a01b03166101cd565b34801561040557600080fd5b5061023561041436600461153a565b610db0565b34801561042557600080fd5b5061049f61043436600461153a565b6001600160a01b03908116600090815260056020908152604091829020825160a08101845281548082526001830154938201849052600283015494820185905260039092015460ff811615156060830181905261010090910490951660809091018190529094919391565b60408051958652602086019490945292840191909152151560608301526001600160a01b0316608082015260a001610178565b3480156104de57600080fd5b5061016e662386f26fc1000081565b3480156104f957600080fd5b5061016e7fa862bb879d101151b4d014ef569baae4919809ae20ce23fa4a6ab2970a21739c81565b6001600160a01b038116600090815260076020526040902080546060918291829182918067ffffffffffffffff81111561055d5761055d611808565b604051908082528060200260200182016040528015610586578160200160208202803683370190505b5095508067ffffffffffffffff8111156105a2576105a2611808565b6040519080825280602002602001820160405280156105cb578160200160208202803683370190505b5094508067ffffffffffffffff8111156105e7576105e7611808565b604051908082528060200260200182016040528015610610578160200160208202803683370190505b5093508067ffffffffffffffff81111561062c5761062c611808565b60405190808252806020026020018201604052801561065f57816020015b606081526020019060019003908161064a5790505b50925060005b818110156108305782818154811061067f5761067f61181e565b600091825260209091206004909102015487516001600160a01b03909116908890839081106106b0576106b061181e565b60200260200101906001600160a01b031690816001600160a01b0316815250508281815481106106e2576106e261181e565b9060005260206000209060040201600101548682815181106107065761070661181e565b6020026020010181815250508281815481106107245761072461181e565b9060005260206000209060040201600201548582815181106107485761074861181e565b6020026020010181815250508281815481106107665761076661181e565b9060005260206000209060040201600301805461078290611834565b80601f01602080910402602001604051908101604052809291908181526020018280546107ae90611834565b80156107fb5780601f106107d0576101008083540402835291602001916107fb565b820191906000526020600020905b8154815290600101906020018083116107de57829003601f168201915b50505050508482815181106108125761081261181e565b602002602001018190525080806108289061186e565b915050610665565b5050509193509193565b3360008181526005602052604090206003015460ff166108905760405162461bcd60e51b815260206004820152600c60248201526b44494420696e61637469766560a01b60448201526064015b60405180910390fd5b834211156108ca5760405162461bcd60e51b8152602060048201526007602482015266115e1c1a5c995960ca1b6044820152606401610887565b6000858152600660205260409020546001600160a01b0316156109205760405162461bcd60e51b815260206004820152600e60248201526d446f63486173682065786973747360901b6044820152606401610887565b3360009081526008602090815260408083205481517f7aeb8aeb1c6b82ca4bcf9771c7b16aefe695272929e7acb5ff134aa4417e508c9381019390935290820188905260608201526080810186905260a00160405160208183030381529060405280519060200120905061099681858533610e21565b3360009081526008602052604081208054916109b18361186e565b9091555050336000818152600560209081526040808320805484526006835281842080546001600160a01b03199081169091558b82558b85529382902080549094168517909355518981529192917f59c1474d45b6dafc1b2fe740b741ce1371d018996e63e9a86ad283563820452c910160405180910390a250505050505050565b610a3b610f22565b610a456000610f7c565b565b60045433906001600160a01b03168114610ab55760405162461bcd60e51b815260206004820152602960248201527f4f776e61626c6532537465703a2063616c6c6572206973206e6f7420746865206044820152683732bb9037bbb732b960b91b6064820152608401610887565b610abe81610f7c565b50565b600060608082808083610af47f000000000000000000000000000000000000000000000000000000000000000083610f95565b610b1f7f00000000000000000000000000000000000000000000000000000000000000006001610f95565b60408051600080825260208201909252600f60f81b9b939a50919850469750309650945092509050565b610b51611042565b662386f26fc100003414610b975760405162461bcd60e51b815260206004820152600d60248201526c496e76616c6964207374616b6560981b6044820152606401610887565b6000838152600660205260409020546001600160a01b031615610bed5760405162461bcd60e51b815260206004820152600e60248201526d446f63486173682065786973747360901b6044820152606401610887565b3360009081526005602052604090206003015460ff1615610c3d5760405162461bcd60e51b815260206004820152600a6024820152694449442065786973747360b01b6044820152606401610887565b3360009081526008602090815260408083205481517f3bf667f9b697a6d2a774a4963e1d4aacaee038ab6ca4d43b9027325db3c7ee9b938101939093529082018690526060820152608001604051602081830303815290604052805190602001209050610cac81848433610e21565b336000908152600860205260408120805491610cc78361186e565b9091555050600084815260066020908152604080832080546001600160a01b03191633908117909155815160a08101835288815242818501908152606482850190815260016060840181815260808501868152868a52600589529887902094518555925190840155516002830155516003909101805495516001600160a01b031661010002610100600160a81b0319921515929092166001600160a81b03199096169590951717909355518681527fa3c17eb7da90583049fca37ba7d2ca99968a8ad5f8b1857ee761b91143f00e4b910160405180910390a250610dab6001600255565b505050565b610db8610f22565b600480546001600160a01b0383166001600160a01b03199091168117909155610de96003546001600160a01b031690565b6001600160a01b03167f38d16b8cac22d99fc7c124b9cd0de2d3fa1faef420bfe791d8c362d765e2270060405160405180910390a350565b6000610e2c85611099565b90506000610e7285858080601f01602080910402602001604051908101604052809392919081815260200183838082843760009201919091525086939250506110c69050565b9050826001600160a01b0316816001600160a01b031614610ec95760405162461bcd60e51b8152602060048201526011602482015270496e76616c6964207369676e617475726560781b6044820152606401610887565b6001600160a01b038116610f1a5760405162461bcd60e51b815260206004820152601860248201527745434453413a20696e76616c6964207369676e617475726560401b6044820152606401610887565b505050505050565b6003546001600160a01b03163314610a455760405162461bcd60e51b815260206004820181905260248201527f4f776e61626c653a2063616c6c6572206973206e6f7420746865206f776e65726044820152606401610887565b600480546001600160a01b0319169055610abe816110ea565b606060ff8314610faf57610fa88361113c565b905061103c565b818054610fbb90611834565b80601f0160208091040260200160405190810160405280929190818152602001828054610fe790611834565b80156110345780601f1061100957610100808354040283529160200191611034565b820191906000526020600020905b81548152906001019060200180831161101757829003601f168201915b505050505090505b92915050565b60028054036110935760405162461bcd60e51b815260206004820152601f60248201527f5265656e7472616e637947756172643a207265656e7472616e742063616c6c006044820152606401610887565b60028055565b600061103c6110a661117b565b8360405161190160f01b8152600281019290925260228201526042902090565b60008060006110d585856112ab565b915091506110e2816112f0565b509392505050565b600380546001600160a01b038381166001600160a01b0319831681179093556040519116919082907f8be0079c531659141344cd1fd0a4f28419497f9722a3daafe3b4186f6b6457e090600090a35050565b6060600061114983611435565b604080516020808252818301909252919250600091906020820181803683375050509182525060208101929092525090565b6000306001600160a01b037f0000000000000000000000000000000000000000000000000000000000000000161480156111d457507f000000000000000000000000000000000000000000000000000000000000000046145b156111fe57507f000000000000000000000000000000000000000000000000000000000000000090565b6112a6604080517f8b73c3c69bb8fe3d512ecc4cf759cc79239f7b179b0ffacaa9a75d522b39400f60208201527f0000000000000000000000000000000000000000000000000000000000000000918101919091527f000000000000000000000000000000000000000000000000000000000000000060608201524660808201523060a082015260009060c00160405160208183030381529060405280519060200120905090565b905090565b60008082516041036112e15760208301516040840151606085015160001a6112d58782858561145d565b945094505050506112e9565b506000905060025b9250929050565b600081600481111561130457611304611895565b0361130c5750565b600181600481111561132057611320611895565b036113685760405162461bcd60e51b815260206004820152601860248201527745434453413a20696e76616c6964207369676e617475726560401b6044820152606401610887565b600281600481111561137c5761137c611895565b036113c95760405162461bcd60e51b815260206004820152601f60248201527f45434453413a20696e76616c6964207369676e6174757265206c656e677468006044820152606401610887565b60038160048111156113dd576113dd611895565b03610abe5760405162461bcd60e51b815260206004820152602260248201527f45434453413a20696e76616c6964207369676e6174757265202773272076616c604482015261756560f01b6064820152608401610887565b600060ff8216601f81111561103c57604051632cd44ac360e21b815260040160405180910390fd5b6000807f7fffffffffffffffffffffffffffffff5d576e7357a4501ddfe92f46681b20a08311156114945750600090506003611518565b6040805160008082526020820180845289905260ff881692820192909252606081018690526080810185905260019060a0016020604051602081039080840390855afa1580156114e8573d6000803e3d6000fd5b5050604051601f1901519150506001600160a01b03811661151157600060019250925050611518565b9150600090505b94509492505050565b60006020828403121561153357600080fd5b5035919050565b60006020828403121561154c57600080fd5b81356001600160a01b038116811461156357600080fd5b9392505050565b600081518084526020808501945080840160005b8381101561159a5781518752958201959082019060010161157e565b509495945050505050565b6000815180845260005b818110156115cb576020818501810151868301820152016115af565b506000602082860101526020601f19601f83011685010191505092915050565b6080808252855190820181905260009060209060a0840190828901845b8281101561162d5781516001600160a01b031684529284019290840190600101611608565b50505083810382850152611641818861156a565b90508381036040850152611655818761156a565b905083810360608501528085518083528383019150838160051b84010184880160005b838110156116a657601f198684030185526116948383516115a5565b94870194925090860190600101611678565b50909b9a5050505050505050505050565b60008083601f8401126116c957600080fd5b50813567ffffffffffffffff8111156116e157600080fd5b6020830191508360208285010111156112e957600080fd5b6000806000806060858703121561170f57600080fd5b8435935060208501359250604085013567ffffffffffffffff81111561173457600080fd5b611740878288016116b7565b95989497509550505050565b60ff60f81b8816815260e06020820152600061176b60e08301896115a5565b828103604084015261177d81896115a5565b606084018890526001600160a01b038716608085015260a0840186905283810360c085015290506117ae818561156a565b9a9950505050505050505050565b6000806000604084860312156117d157600080fd5b83359250602084013567ffffffffffffffff8111156117ef57600080fd5b6117fb868287016116b7565b9497909650939450505050565b634e487b7160e01b600052604160045260246000fd5b634e487b7160e01b600052603260045260246000fd5b600181811c9082168061184857607f821691505b60208210810361186857634e487b7160e01b600052602260045260246000fd5b50919050565b60006001820161188e57634e487b7160e01b600052601160045260246000fd5b5060010190565b634e487b7160e01b600052602160045260246000fdfea26469706673582212200f0a46626fa62b558d52a84bb8e0d074a3a8a0fb2b73a71d3081324ba389fa1264736f6c63430008130033",
  "immutableReferences": {
    "3232": [
      {
        "length": 32,
        "start": 4572
      }
    ],
    "3234": [
      {
        "length": 32,
        "start": 4530
      }
    ],
    "3236": [
      {
        "length": 32,
        "start": 4488
      }
    ],
    "3238": [
      {
        "length": 32,
        "start": 4653
      }
    ],
    "3240": [
      {
        "length": 32,
        "start": 4693
      }
    ],
    "3243": [
      {
        "length": 32,
        "start": 2767
      }
    ],
    "3246": [
      {
        "length": 32,
        "start": 2809
      }
    ]
  },
  "source": "// SPDX-License-Identifier: MIT\r\npragma solidity ^0.8.19;\r\n\r\nimport \"@openzeppelin/contracts/access/Ownable2Step.sol\";\r\nimport \"@openzeppelin/contracts/security/ReentrancyGuard.sol\";\r\nimport \"@openzeppelin/contracts/utils/cryptography/ECDSA.sol\";\r\nimport \"@openzeppelin/contracts/utils/cryptography/EIP712.sol\";\r\n\r\ncontract DIDRegistry is EIP712, ReentrancyGuard, Ownable2Step {\r\n    using ECDSA for bytes32;\r\n\r\n    // EIP-712\r\n    bytes32 public constant CREATE_TYPEHASH = \r\n        keccak256(\"CreateDID(bytes32 docHash,uint256 nonce)\");\r\n    bytes32 public constant UPDATE_DID_TYPEHASH = \r\n        keccak256(\"UpdateDID(bytes32 newDocHash,uint256 nonce,uint256 deadline)\");\r\n    bytes32 public constant WITHDRAW_TYPEHASH = \r\n        keccak256(\"Withdraw(uint256 nonce,uint256 deadline)\");\r\n    bytes32 public constant REPUTATION_TYPEHASH = \r\n        keccak256(\"Reputation(address target,int256 delta,string reason,uint256 nonce,uint256 deadline)\");\r\n\r\n    // DID\r\n    struct DID {\r\n        bytes32 docHash;\r\n        uint256 created;\r\n        uint256 reputation;\r\n        bool active;\r\n        address controller; // \r\n    }\r\n\r\n    struct ReputationChange {\r\n        address operator;\r\n        int256 delta;\r\n        uint256 timestamp;\r\n        string reason;\r\n    }\r\n\r\n    // \r\n    uint256 public constant STAKE_AMOUNT = 0.01 ether;\r\n    uint256 public constant MAX_REPUTATION = 1000;\r\n    uint256 public constant MIN_REPUTATION = 0;\r\n    uint256 public constant INITIAL_REPUTATION = 100;\r\n    uint256 public constant SIGNATURE_VALIDITY = 300;\r\n\r\n    mapping(address => DID) private _dids;\r\n    mapping(bytes32 => address) private _docHashToOwner;\r\n    mapping(address => ReputationChange[]) private _reputationHistory;\r\n    mapping(address => uint256) public nonces;\r\n\r\n    event DIDRegistered(address indexed owner, bytes32 docHash);\r\n    event DIDUpdated(address indexed owner, bytes32 newDocHash);\r\n    event DIDDeactivated(address indexed owner);\r\n    event ReputationChanged(\r\n        address indexed target,\r\n        address indexed operator,\r\n        uint256 newScore,\r\n        int256 delta\r\n    );\r\n    event StakeWithdrawn(address indexed owner, uint256 amount);\r\n\r\n    modifier onlyActiveDID(address user) {\r\n        require(_dids[user].active, \"DID inactive\");\r\n        _;\r\n    }\r\n\r\n    constructor() EIP712(\"DIDRegistry\", \"1\") {}\r\n\r\n    // =====================  =====================\r\n    function createDID(\r\n        bytes32 docHash,\r\n        bytes calldata signature\r\n    ) external payable nonReentrant {\r\n        require(msg.value == STAKE_AMOUNT, \"Invalid stake\");\r\n        require(_docHashToOwner[docHash] == address(0), \"DocHash exists\");\r\n        require(!_dids[msg.sender].active, \"DID exists\");\r\n\r\n        // \r\n        bytes32 structHash = keccak256(abi.encode(\r\n            CREATE_TYPEHASH,\r\n            docHash,\r\n            nonces[msg.sender]\r\n        ));\r\n        _verifySignature(structHash, signature, msg.sender);\r\n        nonces[msg.sender]++;\r\n\r\n        _docHashToOwner[docHash] = msg.sender;\r\n        _dids[msg.sender] = DID({\r\n            docHash: docHash,\r\n            created: block.timestamp,\r\n            reputation: INITIAL_REPUTATION,\r\n            active: true,\r\n            controller: msg.sender\r\n        });\r\n\r\n        emit DIDRegistered(msg.sender, docHash);\r\n    }\r\n\r\n    function updateDID(\r\n        bytes32 newDocHash,\r\n        uint256 deadline,\r\n        bytes calldata signature\r\n    ) external onlyActiveDID(msg.sender) {\r\n        require(block.timestamp <= deadline, \"Expired\");\r\n        require(_docHashToOwner[newDocHash] == address(0), \"DocHash exists\");\r\n\r\n        bytes32 structHash = keccak256(abi.encode(\r\n            UPDATE_DID_TYPEHASH,\r\n            newDocHash,\r\n            nonces[msg.sender],\r\n            deadline\r\n        ));\r\n        _verifySignature(structHash, signature, msg.sender);\r\n        nonces[msg.sender]++;\r\n\r\n        DID storage did = _dids[msg.sender];\r\n        _docHashToOwner[did.docHash] = address(0);\r\n        did.docHash = newDocHash;\r\n        _docHashToOwner[newDocHash] = msg.sender;\r\n\r\n        emit DIDUpdated(msg.sender, newDocHash);\r\n    }\r\n\r\n    // =====================  =====================\r\n    function _verifySignature(\r\n        bytes32 structHash,\r\n        bytes calldata signature,\r\n        address expectedSigner\r\n    ) internal view {\r\n        bytes32 digest = _hashTypedDataV4(structHash);\r\n        address signer = digest.recover(signature);\r\n        require(signer == expectedSigner, \"Invalid signature\");\r\n        require(signer != address(0), \"ECDSA: invalid signature\");\r\n    }\r\n\r\n    // =====================  =====================\r\n    function getDID(address user) external view returns (\r\n        bytes32 docHash,\r\n        uint256 created,\r\n        uint256 reputation,\r\n        bool active,\r\n        address controller\r\n    ) {\r\n        DID memory did = _dids[user];\r\n        return (\r\n            did.docHash,\r\n            did.created,\r\n            did.reputation,\r\n            did.active,\r\n            did.controller\r\n        );\r\n    }\r\n\r\n    function isDIDActive(address user) external view returns (bool) {\r\n        return _dids[user].active;\r\n    }\r\n\r\n    function getDocHashOwner(bytes32 docHash) external view returns (address) {\r\n        return _docHashToOwner[docHash];\r\n    }\r\n\r\n    function getReputationHistory(address user) external view returns (\r\n        address[] memory operators,\r\n        int256[] memory deltas,\r\n        uint256[] memory timestamps,\r\n        string[] memory reasons\r\n    ) {\r\n        ReputationChange[] storage history = _reputationHistory[user];\r\n        uint256 length = history.length;\r\n        \r\n        operators = new address[](length);\r\n        deltas = new int256[](length);\r\n        timestamps = new uint256[](length);\r\n        reasons = new string[](length);\r\n        \r\n        for (uint256 i = 0; i < length; i++) {\r\n            operators[i] = history[i].operator;\r\n            deltas[i] = history[i].delta;\r\n            timestamps[i] = history[i].timestamp;\r\n            reasons[i] = history[i].reason;\r\n        }\r\n    }\r\n}\r\n",
  "sourcePath": "D:\\work\\2025BlockAsset\\digital-asset-system\\contracts\\DIDRegistry.sol",
  "compiler": {
    "name": "solc",
    "version": "0.8.19+commit.7dd6d404.Emscripten.clang"
  },
  "schemaVersion": "3.4.16",
  "updatedAt": "2025-04-03T08:37:11.563Z",
  "networkType": "ethereum",
  "devdoc": {
    "events": {
      "EIP712DomainChanged()": {
        "details": "MAY be emitted to signal that the domain could have changed."
      }
    },
    "kind": "dev",
    "methods": {
      "acceptOwnership()": {
        "details": "The new owner accepts the ownership transfer."
      },
      "eip712Domain()": {
        "details": "See {EIP-5267}. _Available since v4.9._"
      },
      "owner()": {
        "details": "Returns the address of the current owner."
      },
      "pendingOwner()": {
        "details": "Returns the address of the pending owner."
      },
      "renounceOwnership()": {
        "details": "Leaves the contract without owner. It will not be possible to call `onlyOwner` functions. Can only be called by the current owner. NOTE: Renouncing ownership will leave the contract without an owner, thereby disabling any functionality that is only available to the owner."
      },
      "transferOwnership(address)": {
        "details": "Starts the ownership transfer of the contract to a new account. Replaces the pending transfer if there is one. Can only be called by the current owner."
      }
    },
    "version": 1
  },
  "userdoc": {
    "kind": "user",
    "methods": {},
    "version": 1
  }
}