{
  "contractName": "DigitalAsset",
  "abi": [
    {
      "inputs": [
        {
          "internalType": "address",
          "name": "rbacAddress",
          "type": "address"
        }
      ],
      "stateMutability": "nonpayable",
      "type": "constructor"
    },
    {
      "inputs": [],
      "name": "InvalidShortString",
      "type": "error"
    },
    {
      "inputs": [
        {
          "internalType": "string",
          "name": "str",
          "type": "string"
        }
      ],
      "name": "StringTooLong",
      "type": "error"
    },
    {
      "anonymous": false,
      "inputs": [
        {
          "indexed": true,
          "internalType": "uint256",
          "name": "tokenId",
          "type": "uint256"
        }
      ],
      "name": "AllCertified",
      "type": "event"
    },
    {
      "anonymous": false,
      "inputs": [
        {
          "indexed": true,
          "internalType": "address",
          "name": "owner",
          "type": "address"
        },
        {
          "indexed": true,
          "internalType": "address",
          "name": "approved",
          "type": "address"
        },
        {
          "indexed": true,
          "internalType": "uint256",
          "name": "tokenId",
          "type": "uint256"
        }
      ],
      "name": "Approval",
      "type": "event"
    },
    {
      "anonymous": false,
      "inputs": [
        {
          "indexed": true,
          "internalType": "address",
          "name": "owner",
          "type": "address"
        },
        {
          "indexed": true,
          "internalType": "address",
          "name": "operator",
          "type": "address"
        },
        {
          "indexed": false,
          "internalType": "bool",
          "name": "approved",
          "type": "bool"
        }
      ],
      "name": "ApprovalForAll",
      "type": "event"
    },
    {
      "anonymous": false,
      "inputs": [
        {
          "indexed": true,
          "internalType": "uint256",
          "name": "tokenId",
          "type": "uint256"
        }
      ],
      "name": "AssetBurned",
      "type": "event"
    },
    {
      "anonymous": false,
      "inputs": [
        {
          "indexed": true,
          "internalType": "uint256",
          "name": "tokenId",
          "type": "uint256"
        },
        {
          "indexed": true,
          "internalType": "address",
          "name": "certifier",
          "type": "address"
        }
      ],
      "name": "AssetCertified",
      "type": "event"
    },
    {
      "anonymous": false,
      "inputs": [
        {
          "indexed": true,
          "internalType": "uint256",
          "name": "tokenId",
          "type": "uint256"
        },
        {
          "indexed": true,
          "internalType": "address",
          "name": "registrant",
          "type": "address"
        },
        {
          "indexed": false,
          "internalType": "string",
          "name": "cid",
          "type": "string"
        }
      ],
      "name": "AssetRegistered",
      "type": "event"
    },
    {
      "anonymous": false,
      "inputs": [
        {
          "indexed": true,
          "internalType": "uint256",
          "name": "tokenId",
          "type": "uint256"
        },
        {
          "indexed": false,
          "internalType": "address[]",
          "name": "certifiers",
          "type": "address[]"
        }
      ],
      "name": "CertifiersSet",
      "type": "event"
    },
    {
      "anonymous": false,
      "inputs": [],
      "name": "EIP712DomainChanged",
      "type": "event"
    },
    {
      "anonymous": false,
      "inputs": [
        {
          "indexed": true,
          "internalType": "uint256",
          "name": "tokenId",
          "type": "uint256"
        },
        {
          "indexed": false,
          "internalType": "string",
          "name": "newCid",
          "type": "string"
        }
      ],
      "name": "MetadataUpdated",
      "type": "event"
    },
    {
      "anonymous": false,
      "inputs": [
        {
          "indexed": true,
          "internalType": "address",
          "name": "from",
          "type": "address"
        },
        {
          "indexed": true,
          "internalType": "address",
          "name": "to",
          "type": "address"
        },
        {
          "indexed": true,
          "internalType": "uint256",
          "name": "tokenId",
          "type": "uint256"
        }
      ],
      "name": "Transfer",
      "type": "event"
    },
    {
      "inputs": [
        {
          "internalType": "address",
          "name": "to",
          "type": "address"
        },
        {
          "internalType": "uint256",
          "name": "tokenId",
          "type": "uint256"
        }
      ],
      "name": "approve",
      "outputs": [],
      "stateMutability": "nonpayable",
      "type": "function"
    },
    {
      "inputs": [
        {
          "internalType": "address",
          "name": "owner",
          "type": "address"
        }
      ],
      "name": "balanceOf",
      "outputs": [
        {
          "internalType": "uint256",
          "name": "",
          "type": "uint256"
        }
      ],
      "stateMutability": "view",
      "type": "function",
      "constant": true
    },
    {
      "inputs": [
        {
          "internalType": "uint256",
          "name": "tokenId",
          "type": "uint256"
        }
      ],
      "name": "burn",
      "outputs": [],
      "stateMutability": "nonpayable",
      "type": "function"
    },
    {
      "inputs": [],
      "name": "eip712Domain",
      "outputs": [
        {
          "internalType": "bytes1",
          "name": "fields",
          "type": "bytes1"
        },
        {
          "internalType": "string",
          "name": "name",
          "type": "string"
        },
        {
          "internalType": "string",
          "name": "version",
          "type": "string"
        },
        {
          "internalType": "uint256",
          "name": "chainId",
          "type": "uint256"
        },
        {
          "internalType": "address",
          "name": "verifyingContract",
          "type": "address"
        },
        {
          "internalType": "bytes32",
          "name": "salt",
          "type": "bytes32"
        },
        {
          "internalType": "uint256[]",
          "name": "extensions",
          "type": "uint256[]"
        }
      ],
      "stateMutability": "view",
      "type": "function",
      "constant": true
    },
    {
      "inputs": [
        {
          "internalType": "uint256",
          "name": "tokenId",
          "type": "uint256"
        }
      ],
      "name": "getApproved",
      "outputs": [
        {
          "internalType": "address",
          "name": "",
          "type": "address"
        }
      ],
      "stateMutability": "view",
      "type": "function",
      "constant": true
    },
    {
      "inputs": [
        {
          "internalType": "address",
          "name": "owner",
          "type": "address"
        },
        {
          "internalType": "address",
          "name": "operator",
          "type": "address"
        }
      ],
      "name": "isApprovedForAll",
      "outputs": [
        {
          "internalType": "bool",
          "name": "",
          "type": "bool"
        }
      ],
      "stateMutability": "view",
      "type": "function",
      "constant": true
    },
    {
      "inputs": [],
      "name": "name",
      "outputs": [
        {
          "internalType": "string",
          "name": "",
          "type": "string"
        }
      ],
      "stateMutability": "view",
      "type": "function",
      "constant": true
    },
    {
      "inputs": [
        {
          "internalType": "address",
          "name": "",
          "type": "address"
        }
      ],
      "name": "nonces",
      "outputs": [
        {
          "internalType": "uint256",
          "name": "",
          "type": "uint256"
        }
      ],
      "stateMutability": "view",
      "type": "function",
      "constant": true
    },
    {
      "inputs": [
        {
          "internalType": "uint256",
          "name": "tokenId",
          "type": "uint256"
        }
      ],
      "name": "ownerOf",
      "outputs": [
        {
          "internalType": "address",
          "name": "",
          "type": "address"
        }
      ],
      "stateMutability": "view",
      "type": "function",
      "constant": true
    },
    {
      "inputs": [],
      "name": "rbac",
      "outputs": [
        {
          "internalType": "contract RBAC",
          "name": "",
          "type": "address"
        }
      ],
      "stateMutability": "view",
      "type": "function",
      "constant": true
    },
    {
      "inputs": [
        {
          "internalType": "address",
          "name": "from",
          "type": "address"
        },
        {
          "internalType": "address",
          "name": "to",
          "type": "address"
        },
        {
          "internalType": "uint256",
          "name": "tokenId",
          "type": "uint256"
        }
      ],
      "name": "safeTransferFrom",
      "outputs": [],
      "stateMutability": "nonpayable",
      "type": "function"
    },
    {
      "inputs": [
        {
          "internalType": "address",
          "name": "from",
          "type": "address"
        },
        {
          "internalType": "address",
          "name": "to",
          "type": "address"
        },
        {
          "internalType": "uint256",
          "name": "tokenId",
          "type": "uint256"
        },
        {
          "internalType": "bytes",
          "name": "data",
          "type": "bytes"
        }
      ],
      "name": "safeTransferFrom",
      "outputs": [],
      "stateMutability": "nonpayable",
      "type": "function"
    },
    {
      "inputs": [
        {
          "internalType": "address",
          "name": "operator",
          "type": "address"
        },
        {
          "internalType": "bool",
          "name": "approved",
          "type": "bool"
        }
      ],
      "name": "setApprovalForAll",
      "outputs": [],
      "stateMutability": "nonpayable",
      "type": "function"
    },
    {
      "inputs": [
        {
          "internalType": "bytes4",
          "name": "interfaceId",
          "type": "bytes4"
        }
      ],
      "name": "supportsInterface",
      "outputs": [
        {
          "internalType": "bool",
          "name": "",
          "type": "bool"
        }
      ],
      "stateMutability": "view",
      "type": "function",
      "constant": true
    },
    {
      "inputs": [],
      "name": "symbol",
      "outputs": [
        {
          "internalType": "string",
          "name": "",
          "type": "string"
        }
      ],
      "stateMutability": "view",
      "type": "function",
      "constant": true
    },
    {
      "inputs": [
        {
          "internalType": "uint256",
          "name": "tokenId",
          "type": "uint256"
        }
      ],
      "name": "tokenURI",
      "outputs": [
        {
          "internalType": "string",
          "name": "",
          "type": "string"
        }
      ],
      "stateMutability": "view",
      "type": "function",
      "constant": true
    },
    {
      "inputs": [
        {
          "internalType": "address",
          "name": "from",
          "type": "address"
        },
        {
          "internalType": "address",
          "name": "to",
          "type": "address"
        },
        {
          "internalType": "uint256",
          "name": "tokenId",
          "type": "uint256"
        }
      ],
      "name": "transferFrom",
      "outputs": [],
      "stateMutability": "nonpayable",
      "type": "function"
    },
    {
      "inputs": [
        {
          "internalType": "address",
          "name": "to",
          "type": "address"
        },
        {
          "internalType": "string",
          "name": "cid",
          "type": "string"
        },
        {
          "internalType": "bytes32",
          "name": "contentHash",
          "type": "bytes32"
        },
        {
          "internalType": "bytes",
          "name": "signature",
          "type": "bytes"
        }
      ],
      "name": "registerAsset",
      "outputs": [
        {
          "internalType": "uint256",
          "name": "",
          "type": "uint256"
        }
      ],
      "stateMutability": "nonpayable",
      "type": "function"
    },
    {
      "inputs": [
        {
          "internalType": "uint256",
          "name": "tokenId",
          "type": "uint256"
        },
        {
          "internalType": "address[]",
          "name": "certifiers",
          "type": "address[]"
        },
        {
          "internalType": "bytes",
          "name": "signature",
          "type": "bytes"
        }
      ],
      "name": "setCertifiers",
      "outputs": [],
      "stateMutability": "nonpayable",
      "type": "function"
    },
    {
      "inputs": [
        {
          "internalType": "uint256",
          "name": "tokenId",
          "type": "uint256"
        },
        {
          "internalType": "string",
          "name": "comment",
          "type": "string"
        },
        {
          "internalType": "bytes",
          "name": "signature",
          "type": "bytes"
        }
      ],
      "name": "certifyAsset",
      "outputs": [],
      "stateMutability": "nonpayable",
      "type": "function"
    },
    {
      "inputs": [
        {
          "internalType": "uint256",
          "name": "tokenId",
          "type": "uint256"
        },
        {
          "internalType": "string",
          "name": "newCid",
          "type": "string"
        },
        {
          "internalType": "bytes32",
          "name": "newHash",
          "type": "bytes32"
        },
        {
          "internalType": "bytes",
          "name": "signature",
          "type": "bytes"
        }
      ],
      "name": "updateMetadata",
      "outputs": [],
      "stateMutability": "nonpayable",
      "type": "function"
    },
    {
      "inputs": [
        {
          "internalType": "uint256",
          "name": "tokenId",
          "type": "uint256"
        },
        {
          "internalType": "bytes",
          "name": "signature",
          "type": "bytes"
        }
      ],
      "name": "burnAsset",
      "outputs": [],
      "stateMutability": "nonpayable",
      "type": "function"
    },
    {
      "inputs": [
        {
          "internalType": "uint256",
          "name": "tokenId",
          "type": "uint256"
        }
      ],
      "name": "getMetadata",
      "outputs": [
        {
          "components": [
            {
              "internalType": "string",
              "name": "cid",
              "type": "string"
            },
            {
              "internalType": "bytes32",
              "name": "contentHash",
              "type": "bytes32"
            },
            {
              "internalType": "uint256",
              "name": "registrationDate",
              "type": "uint256"
            },
            {
              "internalType": "uint256",
              "name": "version",
              "type": "uint256"
            },
            {
              "internalType": "bool",
              "name": "isCertified",
              "type": "bool"
            },
            {
              "internalType": "address[]",
              "name": "pendingCertifiers",
              "type": "address[]"
            }
          ],
          "internalType": "struct DigitalAsset.AssetMetadataView",
          "name": "",
          "type": "tuple"
        }
      ],
      "stateMutability": "view",
      "type": "function",
      "constant": true
    },
    {
      "inputs": [
        {
          "internalType": "uint256",
          "name": "tokenId",
          "type": "uint256"
        }
      ],
      "name": "getCertifications",
      "outputs": [
        {
          "components": [
            {
              "internalType": "address",
              "name": "certifier",
              "type": "address"
            },
            {
              "internalType": "uint256",
              "name": "timestamp",
              "type": "uint256"
            },
            {
              "internalType": "string",
              "name": "comment",
              "type": "string"
            }
          ],
          "internalType": "struct DigitalAsset.Certification[]",
          "name": "",
          "type": "tuple[]"
        }
      ],
      "stateMutability": "view",
      "type": "function",
      "constant": true
    },
    {
      "inputs": [
        {
          "internalType": "uint256",
          "name": "tokenId",
          "type": "uint256"
        }
      ],
      "name": "getPendingCertifiers",
      "outputs": [
        {
          "internalType": "address[]",
          "name": "",
          "type": "address[]"
        }
      ],
      "stateMutability": "view",
      "type": "function",
      "constant": true
    },
    {
      "inputs": [
        {
          "internalType": "uint256",
          "name": "tokenId",
          "type": "uint256"
        },
        {
          "internalType": "address",
          "name": "certifier",
          "type": "address"
        }
      ],
      "name": "hasCertified",
      "outputs": [
        {
          "internalType": "bool",
          "name": "",
          "type": "bool"
        }
      ],
      "stateMutability": "view",
      "type": "function",
      "constant": true
    },
    {
      "inputs": [
        {
          "internalType": "address",
          "name": "certifier",
          "type": "address"
        }
      ],
      "name": "getCertificationsByAddress",
      "outputs": [
        {
          "components": [
            {
              "internalType": "uint256",
              "name": "tokenId",
              "type": "uint256"
            },
            {
              "internalType": "address",
              "name": "certifier",
              "type": "address"
            },
            {
              "internalType": "uint256",
              "name": "timestamp",
              "type": "uint256"
            },
            {
              "internalType": "string",
              "name": "comment",
              "type": "string"
            }
          ],
          "internalType": "struct DigitalAsset.CertificationWithTokenId[]",
          "name": "",
          "type": "tuple[]"
        }
      ],
      "stateMutability": "view",
      "type": "function",
      "constant": true
    }
  ],
  "bytecode": "0x6101806040523480156200001257600080fd5b50604051620041a6380380620041a683398101604081905262000035916200025d565b604080518082018252600c8082526b111a59da5d185b105cdcd95d60a21b60208084018290528451808601865260018152603160f81b81830152855180870187529384528382019290925284518086019095526002855261444160f01b9085015291926000620000a6838262000334565b506001620000b5828262000334565b5050600160065550620000ca826007620001e1565b61012052620000db816008620001e1565b61014052815160208084019190912060e052815190820120610100524660a0526200016960e05161010051604080517f8b73c3c69bb8fe3d512ecc4cf759cc79239f7b179b0ffacaa9a75d522b39400f60208201529081019290925260608201524660808201523060a082015260009060c00160405160208183030381529060405280519060200120905090565b60805250503060c0526001600160a01b038116620001ce5760405162461bcd60e51b815260206004820152601460248201527f496e76616c69642052424143206164647265737300000000000000000000000060448201526064015b60405180910390fd5b6001600160a01b03166101605262000475565b60006020835110156200020157620001f9836200021a565b905062000214565b816200020e848262000334565b5060ff90505b92915050565b600080829050601f8151111562000248578260405163305a27a960e01b8152600401620001c5919062000400565b8051620002558262000450565b179392505050565b6000602082840312156200027057600080fd5b81516001600160a01b03811681146200028857600080fd5b9392505050565b634e487b7160e01b600052604160045260246000fd5b600181811c90821680620002ba57607f821691505b602082108103620002db57634e487b7160e01b600052602260045260246000fd5b50919050565b601f8211156200032f57600081815260208120601f850160051c810160208610156200030a5750805b601f850160051c820191505b818110156200032b5782815560010162000316565b5050505b505050565b81516001600160401b038111156200035057620003506200028f565b6200036881620003618454620002a5565b84620002e1565b602080601f831160018114620003a05760008415620003875750858301515b600019600386901b1c1916600185901b1785556200032b565b600085815260208120601f198616915b82811015620003d157888601518255948401946001909101908401620003b0565b5085821015620003f05787850151600019600388901b60f8161c191681555b5050505050600190811b01905550565b600060208083528351808285015260005b818110156200042f5785810183015185820160400152820162000411565b506000604082860101526040601f19601f8301168501019250505092915050565b80516020808301519190811015620002db5760001960209190910360031b1b16919050565b60805160a05160c05160e05161010051610120516101405161016051613cb6620004f06000396000818161039f0152818161083901528181610fac0152612065015260006116bc01526000611691015260006129a101526000612979015260006128d4015260006128fe015260006129280152613cb66000f3fe608060405234801561001057600080fd5b50600436106101a95760003560e01c80636352211e116100f9578063a8ecc7f111610097578063c87b56dd11610071578063c87b56dd146103e7578063cb3a4171146103fa578063e90980261461040d578063e985e9c51461042d57600080fd5b8063a8ecc7f11461039a578063adb94f53146103c1578063b88d4fde146103d457600080fd5b806384b0196e116100d357806384b0196e1461034457806395d89b411461035f578063a22cb46514610367578063a574cea41461037a57600080fd5b80636352211e146102fe57806370a08231146103115780637ecebe001461032457600080fd5b806323b872dd1161016657806342966c681161014057806342966c68146102b25780635410f982146102c55780635932e133146102d8578063605a1934146102eb57600080fd5b806323b872dd1461026c57806327baf07a1461027f57806342842e0e1461029f57600080fd5b806301ffc9a7146101ae57806306fdde03146101d6578063081812fc146101eb578063095ea7b3146102165780630daf3af21461022b57806314086b4c1461024b575b600080fd5b6101c16101bc366004612f70565b610469565b60405190151581526020015b60405180910390f35b6101de6104bb565b6040516101cd9190612fdd565b6101fe6101f9366004612ff0565b61054d565b6040516001600160a01b0390911681526020016101cd565b610229610224366004613025565b610574565b005b61023e610239366004612ff0565b61068e565b6040516101cd919061304f565b61025e6102593660046130de565b610722565b6040519081526020016101cd565b61022961027a366004613168565b6109ee565b61029261028d3660046131a4565b610a20565b6040516101cd91906131bf565b6102296102ad366004613168565b610ea1565b6102296102c0366004612ff0565b610ebc565b6102296102d3366004613253565b610eed565b6102296102e63660046132cd565b611349565b6101c16102f936600461335a565b611546565b6101fe61030c366004612ff0565b61159d565b61025e61031f3660046131a4565b6115fd565b61025e6103323660046131a4565b600d6020526000908152604090205481565b61034c611683565b6040516101cd9796959493929190613386565b6101de61170c565b61022961037536600461342a565b61171b565b61038d610388366004612ff0565b61172a565b6040516101cd9190613461565b6101fe7f000000000000000000000000000000000000000000000000000000000000000081565b6102296103cf366004613502565b6118da565b6102296103e2366004613550565b611b2b565b6101de6103f5366004612ff0565b611b63565b61022961040836600461362c565b611bd7565b61042061041b366004612ff0565b611d77565b6040516101cd9190613678565b6101c161043b3660046136f2565b6001600160a01b03918216600090815260056020908152604080832093909416825291909152205460ff1690565b60006001600160e01b031982166380ac58cd60e01b148061049a57506001600160e01b03198216635b5e139f60e01b145b806104b557506301ffc9a760e01b6001600160e01b03198316145b92915050565b6060600080546104ca9061371c565b80601f01602080910402602001604051908101604052809291908181526020018280546104f69061371c565b80156105435780601f1061051857610100808354040283529160200191610543565b820191906000526020600020905b81548152906001019060200180831161052657829003601f168201915b5050505050905090565b600061055882611eb6565b506000908152600460205260409020546001600160a01b031690565b600061057f8261159d565b9050806001600160a01b0316836001600160a01b0316036105f15760405162461bcd60e51b815260206004820152602160248201527f4552433732313a20617070726f76616c20746f2063757272656e74206f776e656044820152603960f91b60648201526084015b60405180910390fd5b336001600160a01b038216148061060d575061060d813361043b565b61067f5760405162461bcd60e51b815260206004820152603d60248201527f4552433732313a20617070726f76652063616c6c6572206973206e6f7420746f60448201527f6b656e206f776e6572206f7220617070726f76656420666f7220616c6c00000060648201526084016105e8565b6106898383611f06565b505050565b606061069982611f74565b6106b55760405162461bcd60e51b81526004016105e890613756565b6000828152600a60209081526040918290206005018054835181840281018401909452808452909183018282801561071657602002820191906000526020600020905b81546001600160a01b031681526001909101906020018083116106f8575b50505050509050919050565b600061072c611f91565b600c868660405161073e92919061377d565b9081526040519081900360200190205460ff161561078b5760405162461bcd60e51b815260206004820152600a6024820152694349442065786973747360b01b60448201526064016105e8565b6001600160a01b0387166000908152600d6020526040908190205490516108be907f4260d58707dea53040fa393ac510e72a0c76f15ab9eb89cb63bd8b219ebbc1ad908a906107dd908b908b9061377d565b60405190819003812061081f9392918a9087906020019485526001600160a01b0393909316602085015260408401919091526060830152608082015260a00190565b6040516020818303038152906040528051906020012085857f00000000000000000000000000000000000000000000000000000000000000006001600160a01b031663f68e95536040518163ffffffff1660e01b8152600401602060405180830381865afa158015610895573d6000803e3d6000fd5b505050506040513d601f19601f820116820180604052508101906108b9919061378d565b611fea565b60098054600091826108cf836137bc565b9190505590506108df898261215a565b6000818152600a60205260409020806108f9898b8361381b565b506001818101889055426002830155600382015560048101805460ff191690556040805160008152602081019182905251610938916005840191612ddf565b506001600c8a8a60405161094d92919061377d565b908152604051908190036020018120805492151560ff19909316929092179091556001600160a01b038b169083907f522902797ecf25adb7fe6834ed0d749090896244923f1c3e0b7ca938687ea08f906109aa908d908d906138db565b60405180910390a36109bd83600161390a565b6001600160a01b038b166000908152600d6020526040902055509150506109e46001600655565b9695505050505050565b6109f9335b82612174565b610a155760405162461bcd60e51b81526004016105e89061391d565b6106898383836121f3565b60606000805b600954811015610bcb57610a3981611f74565b15610bb9576000818152600b6020908152604080832080548251818502810185019093528083529192909190849084015b82821015610b4e576000848152602090819020604080516060810182526003860290920180546001600160a01b0316835260018101549383019390935260028301805492939291840191610abd9061371c565b80601f0160208091040260200160405190810160405280929190818152602001828054610ae99061371c565b8015610b365780601f10610b0b57610100808354040283529160200191610b36565b820191906000526020600020905b815481529060010190602001808311610b1957829003601f168201915b50505050508152505081526020019060010190610a6a565b50505050905060005b8151811015610bb657856001600160a01b0316828281518110610b7c57610b7c61396a565b6020026020010151600001516001600160a01b031603610ba45783610ba0816137bc565b9450505b80610bae816137bc565b915050610b57565b50505b80610bc3816137bc565b915050610a26565b60008267ffffffffffffffff811115610be657610be661353a565b604051908082528060200260200182016040528015610c4b57816020015b610c3860405180608001604052806000815260200160006001600160a01b0316815260200160008152602001606081525090565b815260200190600190039081610c045790505b50905060008092505b600954831015610e9857610c6783611f74565b15610e86576000838152600b6020908152604080832080548251818502810185019093528083529192909190849084015b82821015610d7c576000848152602090819020604080516060810182526003860290920180546001600160a01b0316835260018101549383019390935260028301805492939291840191610ceb9061371c565b80601f0160208091040260200160405190810160405280929190818152602001828054610d179061371c565b8015610d645780601f10610d3957610100808354040283529160200191610d64565b820191906000526020600020905b815481529060010190602001808311610d4757829003601f168201915b50505050508152505081526020019060010190610c98565b50505050905060005b8151811015610e8357876001600160a01b0316828281518110610daa57610daa61396a565b6020026020010151600001516001600160a01b031603610e71576040518060800160405280868152602001838381518110610de757610de761396a565b6020026020010151600001516001600160a01b03168152602001838381518110610e1357610e1361396a565b6020026020010151602001518152602001838381518110610e3657610e3661396a565b602002602001015160400151815250848481518110610e5757610e5761396a565b60200260200101819052508280610e6d906137bc565b9350505b80610e7b816137bc565b915050610d85565b50505b82610e90816137bc565b935050610c54565b50949350505050565b61068983838360405180602001604052806000815250611b2b565b610ec5336109f3565b610ee15760405162461bcd60e51b81526004016105e89061391d565b610eea81612357565b50565b610ef5611f91565b610efe85611f74565b610f1a5760405162461bcd60e51b81526004016105e890613756565b336000908152600d602052604090819020549051611008907f83de15a940c014217e5e6d947b2069016ff3db9b20ab909ee11daa3198d86958908890610f63908990899061377d565b604051908190038120610f92939291869060200193845260208401929092526040830152606082015260800190565b6040516020818303038152906040528051906020012084847f00000000000000000000000000000000000000000000000000000000000000006001600160a01b03166369d0b5176040518163ffffffff1660e01b8152600401602060405180830381865afa158015610895573d6000803e3d6000fd5b6000868152600a60205260409020600581015461105f5760405162461bcd60e51b81526020600482015260156024820152744e6f2070656e64696e67206365727469666965727360581b60448201526064016105e8565b33600090815260068201602052604090205460ff16156110b55760405162461bcd60e51b8152602060048201526011602482015270105b1c9958591e4818d95c9d1a599a5959607a1b60448201526064016105e8565b6000805b600583015481101561111957336001600160a01b03168360050182815481106110e4576110e461396a565b6000918252602090912001546001600160a01b0316036111075760019150611119565b80611111816137bc565b9150506110b9565b50806111675760405162461bcd60e51b815260206004820152601760248201527f4e6f7420612070656e64696e672063657274696669657200000000000000000060448201526064016105e8565b3360008181526006840160209081526040808320805460ff191660011790558b8352600b825291829020825160608101845293845242848301528251601f8b0183900483028101830184528a81529093928301918b908b90819084018382808284376000920182905250939094525050835460018082018655948252602091829020845160039092020180546001600160a01b0319166001600160a01b03909216919091178155908301519381019390935550604081015190919060028201906112319082613980565b5060019150600090505b60058401548110156112a9578360060160008560050183815481106112625761126261396a565b60009182526020808320909101546001600160a01b0316835282019290925260400190205460ff1661129757600091506112a9565b806112a1816137bc565b91505061123b565b5080156112eb5760048301805460ff1916600117905560405189907f97e9904b465a16c0109b057283670d6604a4b922ad2118b21d3e57e0ac7b07fb90600090a25b6112f684600161390a565b336000818152600d602052604080822093909355915190918b917f918964200d1db051ccc3615a6304633e7319e7fdb9fcfc49dc2edc28492a5dd59190a3505050506113426001600655565b5050505050565b611351611f91565b3361135b8661159d565b6001600160a01b03161461139d5760405162461bcd60e51b81526020600482015260096024820152682737ba1037bbb732b960b91b60448201526064016105e8565b336000908152600d6020908152604091829020549151611442917f97564ab60455c81f6534b3c8e747c873d73e1d6718706864111bb7cfc3a661c49189916113e9918a918a9101613a40565b60408051601f1981840301815282825280516020918201209083019490945281019190915260608101919091526080810183905260a0015b6040516020818303038152906040528051906020012084846000801b611fea565b6000868152600a6020526040902061145e600582018787612e44565b5060005b858110156114d35760008260060160008989858181106114845761148461396a565b905060200201602081019061149991906131a4565b6001600160a01b031681526020810191909152604001600020805460ff1916911515919091179055806114cb816137bc565b915050611462565b5060048101805460ff191690556114eb82600161390a565b336000908152600d602052604090819020919091555187907fcb91c8cb883cfe7799d6199c4c6bbb14705ef74cb5dcf57c5e3ef16798106a51906115329089908990613a80565b60405180910390a250506113426001600655565b600061155183611f74565b61156d5760405162461bcd60e51b81526004016105e890613756565b506000828152600a602090815260408083206001600160a01b038516845260060190915290205460ff1692915050565b6000818152600260205260408120546001600160a01b0316806104b55760405162461bcd60e51b8152602060048201526018602482015277115490cdcc8c4e881a5b9d985b1a59081d1bdad95b88125160421b60448201526064016105e8565b60006001600160a01b0382166116675760405162461bcd60e51b815260206004820152602960248201527f4552433732313a2061646472657373207a65726f206973206e6f7420612076616044820152683634b21037bbb732b960b91b60648201526084016105e8565b506001600160a01b031660009081526003602052604090205490565b6000606080828080836116b77f000000000000000000000000000000000000000000000000000000000000000060076123ec565b6116e27f000000000000000000000000000000000000000000000000000000000000000060086123ec565b60408051600080825260208201909252600f60f81b9b939a50919850469750309650945092509050565b6060600180546104ca9061371c565b611726338383612497565b5050565b6117686040518060c0016040528060608152602001600080191681526020016000815260200160008152602001600015158152602001606081525090565b61177182611f74565b61178d5760405162461bcd60e51b81526004016105e890613756565b6000828152600a602052604090819020815160c081019092528054909190819083906117b89061371c565b80601f01602080910402602001604051908101604052809291908181526020018280546117e49061371c565b80156118315780601f1061180657610100808354040283529160200191611831565b820191906000526020600020905b81548152906001019060200180831161181457829003601f168201915b505050505081526020018260010154815260200182600201548152602001826003015481526020018260040160009054906101000a900460ff1615158152602001826005018054806020026020016040519081016040528092919081815260200182805480156118ca57602002820191906000526020600020905b81546001600160a01b031681526001909101906020018083116118ac575b5050505050815250915050919050565b6118e2611f91565b336118ec8761159d565b6001600160a01b03161461192e5760405162461bcd60e51b81526020600482015260096024820152682737ba1037bbb732b960b91b60448201526064016105e8565b600c858560405161194092919061377d565b9081526040519081900360200190205460ff161561198d5760405162461bcd60e51b815260206004820152600a6024820152694349442065786973747360b01b60448201526064016105e8565b336000908152600d602052604090819020549051611a0c907f45a1a5abf66d42aa8faab61450264544b1e02a27fa150c4ed0c608157ccb8ee29089906119d6908a908a9061377d565b60408051918290038220602083019490945281019190915260608101919091526080810186905260a0810183905260c001611421565b6000878152600a60205260408082209051600c91611a2991613ac1565b9081526040805160209281900383019020805460ff1916931515939093179092556000898152600a90915220611a6086888361381b565b506000878152600a6020526040812060018101869055600301805491611a85836137bc565b91905055506001600c8787604051611a9e92919061377d565b908152604051908190036020019020805491151560ff19909216919091179055611ac981600161390a565b336000908152600d602052604090819020919091555187907f459157ba24c7ab9878b165ef465fa6ae2ab42bcd8445f576be378768b0c4730990611b1090899089906138db565b60405180910390a250611b236001600655565b505050505050565b611b353383612174565b611b515760405162461bcd60e51b81526004016105e89061391d565b611b5d84848484612565565b50505050565b6060611b6e82611eb6565b6000611b8560408051602081019091526000815290565b90506000815111611ba55760405180602001604052806000815250611bd0565b80611baf84612598565b604051602001611bc0929190613b37565b6040516020818303038152906040525b9392505050565b611bdf611f91565b611be93384612174565b611c265760405162461bcd60e51b815260206004820152600e60248201526d139bdd08185d5d1a1bdc9a5e995960921b60448201526064016105e8565b336000908152600d60209081526040918290205482517ff5f9e7cf988b2d996cdc7f86640081eb71866c3d2e3c7b8d4f164147552b87679281019290925291810185905260608101829052611c7d90608001611421565b6000848152600a60205260408082209051600c91611c9a91613ac1565b9081526040805160209281900383019020805460ff1916931515939093179092556000868152600a90915290812090611cd38282612e97565b600060018301819055600283018190556003830181905560048301805460ff19169055611d04906005840190612ed1565b50506000848152600b60205260408120611d1d91612eef565b611d2684612357565b611d3181600161390a565b336000908152600d602052604080822092909255905185917f23c8e7ecf38ad1e9e1639dfb4b258fc9942ae76b580d2ba43c4a73b9291812c991a2506106896001600655565b6060611d8282611f74565b611d9e5760405162461bcd60e51b81526004016105e890613756565b6000828152600b6020908152604080832080548251818502810185019093528083529193909284015b82821015611eab576000848152602090819020604080516060810182526003860290920180546001600160a01b0316835260018101549383019390935260028301805492939291840191611e1a9061371c565b80601f0160208091040260200160405190810160405280929190818152602001828054611e469061371c565b8015611e935780601f10611e6857610100808354040283529160200191611e93565b820191906000526020600020905b815481529060010190602001808311611e7657829003601f168201915b50505050508152505081526020019060010190611dc7565b505050509050919050565b611ebf81611f74565b610eea5760405162461bcd60e51b8152602060048201526018602482015277115490cdcc8c4e881a5b9d985b1a59081d1bdad95b88125160421b60448201526064016105e8565b600081815260046020526040902080546001600160a01b0319166001600160a01b0384169081179091558190611f3b8261159d565b6001600160a01b03167f8c5be1e5ebec7d5bd14f71427d1e84f3dd0314c0f7b2291e5b200ac8c7c3b92560405160405180910390a45050565b6000908152600260205260409020546001600160a01b0316151590565b600260065403611fe35760405162461bcd60e51b815260206004820152601f60248201527f5265656e7472616e637947756172643a207265656e7472616e742063616c6c0060448201526064016105e8565b6002600655565b600061203784848080601f016020809104026020016040519081016040528093929190818152602001838380828437600092019190915250612031925089915061262b9050565b90612658565b9050811561211057604051632474521560e21b8152600481018390526001600160a01b0382811660248301527f000000000000000000000000000000000000000000000000000000000000000016906391d1485490604401602060405180830381865afa1580156120ac573d6000803e3d6000fd5b505050506040513d601f19601f820116820180604052508101906120d09190613b66565b6121105760405162461bcd60e51b8152602060048201526011602482015270556e617574686f72697a656420726f6c6560781b60448201526064016105e8565b6001600160a01b03811633146113425760405162461bcd60e51b815260206004820152600f60248201526e0a6d2cedccae440dad2e6dac2e8c6d608b1b60448201526064016105e8565b61172682826040518060200160405280600081525061267c565b6000806121808361159d565b9050806001600160a01b0316846001600160a01b031614806121c757506001600160a01b0380821660009081526005602090815260408083209388168352929052205460ff165b806121eb5750836001600160a01b03166121e08461054d565b6001600160a01b0316145b949350505050565b826001600160a01b03166122068261159d565b6001600160a01b03161461222c5760405162461bcd60e51b81526004016105e890613b83565b6001600160a01b03821661228e5760405162461bcd60e51b8152602060048201526024808201527f4552433732313a207472616e7366657220746f20746865207a65726f206164646044820152637265737360e01b60648201526084016105e8565b826001600160a01b03166122a18261159d565b6001600160a01b0316146122c75760405162461bcd60e51b81526004016105e890613b83565b600081815260046020908152604080832080546001600160a01b03199081169091556001600160a01b0387811680865260038552838620805460001901905590871680865283862080546001019055868652600290945282852080549092168417909155905184937fddf252ad1be2c89b69c2b068fc378daa952ba7f163c4a11628f55a4df523b3ef91a4505050565b60006123628261159d565b905061236d8261159d565b600083815260046020908152604080832080546001600160a01b03199081169091556001600160a01b0385168085526003845282852080546000190190558785526002909352818420805490911690555192935084927fddf252ad1be2c89b69c2b068fc378daa952ba7f163c4a11628f55a4df523b3ef908390a45050565b606060ff8314612406576123ff836126af565b90506104b5565b8180546124129061371c565b80601f016020809104026020016040519081016040528092919081815260200182805461243e9061371c565b801561248b5780601f106124605761010080835404028352916020019161248b565b820191906000526020600020905b81548152906001019060200180831161246e57829003601f168201915b505050505090506104b5565b816001600160a01b0316836001600160a01b0316036124f85760405162461bcd60e51b815260206004820152601960248201527f4552433732313a20617070726f766520746f2063616c6c65720000000000000060448201526064016105e8565b6001600160a01b03838116600081815260056020908152604080832094871680845294825291829020805460ff191686151590811790915591519182527f17307eab39ab6107e8899845ad3d59bd9653f200f220920489ca2b5937696c31910160405180910390a3505050565b6125708484846121f3565b61257c848484846126ee565b611b5d5760405162461bcd60e51b81526004016105e890613bc8565b606060006125a5836127ef565b600101905060008167ffffffffffffffff8111156125c5576125c561353a565b6040519080825280601f01601f1916602001820160405280156125ef576020820181803683370190505b5090508181016020015b600019016f181899199a1a9b1b9c1cb0b131b232b360811b600a86061a8153600a85049450846125f957509392505050565b60006104b56126386128c7565b8360405161190160f01b8152600281019290925260228201526042902090565b600080600061266785856129f7565b9150915061267481612a3c565b509392505050565b6126868383612b86565b61269360008484846126ee565b6106895760405162461bcd60e51b81526004016105e890613bc8565b606060006126bc83612cf3565b604080516020808252818301909252919250600091906020820181803683375050509182525060208101929092525090565b60006001600160a01b0384163b156127e457604051630a85bd0160e11b81526001600160a01b0385169063150b7a0290612732903390899088908890600401613c1a565b6020604051808303816000875af192505050801561276d575060408051601f3d908101601f1916820190925261276a91810190613c4d565b60015b6127ca573d80801561279b576040519150601f19603f3d011682016040523d82523d6000602084013e6127a0565b606091505b5080516000036127c25760405162461bcd60e51b81526004016105e890613bc8565b805181602001fd5b6001600160e01b031916630a85bd0160e11b1490506121eb565b506001949350505050565b60008072184f03e93ff9f4daa797ed6e38ed64bf6a1f0160401b831061282e5772184f03e93ff9f4daa797ed6e38ed64bf6a1f0160401b830492506040015b6d04ee2d6d415b85acef8100000000831061285a576d04ee2d6d415b85acef8100000000830492506020015b662386f26fc10000831061287857662386f26fc10000830492506010015b6305f5e1008310612890576305f5e100830492506008015b61271083106128a457612710830492506004015b606483106128b6576064830492506002015b600a83106104b55760010192915050565b6000306001600160a01b037f00000000000000000000000000000000000000000000000000000000000000001614801561292057507f000000000000000000000000000000000000000000000000000000000000000046145b1561294a57507f000000000000000000000000000000000000000000000000000000000000000090565b6129f2604080517f8b73c3c69bb8fe3d512ecc4cf759cc79239f7b179b0ffacaa9a75d522b39400f60208201527f0000000000000000000000000000000000000000000000000000000000000000918101919091527f000000000000000000000000000000000000000000000000000000000000000060608201524660808201523060a082015260009060c00160405160208183030381529060405280519060200120905090565b905090565b6000808251604103612a2d5760208301516040840151606085015160001a612a2187828585612d1b565b94509450505050612a35565b506000905060025b9250929050565b6000816004811115612a5057612a50613c6a565b03612a585750565b6001816004811115612a6c57612a6c613c6a565b03612ab95760405162461bcd60e51b815260206004820152601860248201527f45434453413a20696e76616c6964207369676e6174757265000000000000000060448201526064016105e8565b6002816004811115612acd57612acd613c6a565b03612b1a5760405162461bcd60e51b815260206004820152601f60248201527f45434453413a20696e76616c6964207369676e6174757265206c656e6774680060448201526064016105e8565b6003816004811115612b2e57612b2e613c6a565b03610eea5760405162461bcd60e51b815260206004820152602260248201527f45434453413a20696e76616c6964207369676e6174757265202773272076616c604482015261756560f01b60648201526084016105e8565b6001600160a01b038216612bdc5760405162461bcd60e51b815260206004820181905260248201527f4552433732313a206d696e7420746f20746865207a65726f206164647265737360448201526064016105e8565b612be581611f74565b15612c325760405162461bcd60e51b815260206004820152601c60248201527f4552433732313a20746f6b656e20616c7265616479206d696e7465640000000060448201526064016105e8565b612c3b81611f74565b15612c885760405162461bcd60e51b815260206004820152601c60248201527f4552433732313a20746f6b656e20616c7265616479206d696e7465640000000060448201526064016105e8565b6001600160a01b038216600081815260036020908152604080832080546001019055848352600290915280822080546001600160a01b0319168417905551839291907fddf252ad1be2c89b69c2b068fc378daa952ba7f163c4a11628f55a4df523b3ef908290a45050565b600060ff8216601f8111156104b557604051632cd44ac360e21b815260040160405180910390fd5b6000807f7fffffffffffffffffffffffffffffff5d576e7357a4501ddfe92f46681b20a0831115612d525750600090506003612dd6565b6040805160008082526020820180845289905260ff881692820192909252606081018690526080810185905260019060a0016020604051602081039080840390855afa158015612da6573d6000803e3d6000fd5b5050604051601f1901519150506001600160a01b038116612dcf57600060019250925050612dd6565b9150600090505b94509492505050565b828054828255906000526020600020908101928215612e34579160200282015b82811115612e3457825182546001600160a01b0319166001600160a01b03909116178255602090920191600190910190612dff565b50612e40929150612f10565b5090565b828054828255906000526020600020908101928215612e34579160200282015b82811115612e345781546001600160a01b0319166001600160a01b03843516178255602090920191600190910190612e64565b508054612ea39061371c565b6000825580601f10612eb3575050565b601f016020900490600052602060002090810190610eea9190612f10565b5080546000825590600052602060002090810190610eea9190612f10565b5080546000825560030290600052602060002090810190610eea9190612f25565b5b80821115612e405760008155600101612f11565b80821115612e405780546001600160a01b0319168155600060018201819055612f516002830182612e97565b50600301612f25565b6001600160e01b031981168114610eea57600080fd5b600060208284031215612f8257600080fd5b8135611bd081612f5a565b60005b83811015612fa8578181015183820152602001612f90565b50506000910152565b60008151808452612fc9816020860160208601612f8d565b601f01601f19169290920160200192915050565b602081526000611bd06020830184612fb1565b60006020828403121561300257600080fd5b5035919050565b80356001600160a01b038116811461302057600080fd5b919050565b6000806040838503121561303857600080fd5b61304183613009565b946020939093013593505050565b6020808252825182820181905260009190848201906040850190845b818110156130905783516001600160a01b03168352928401929184019160010161306b565b50909695505050505050565b60008083601f8401126130ae57600080fd5b50813567ffffffffffffffff8111156130c657600080fd5b602083019150836020828501011115612a3557600080fd5b600080600080600080608087890312156130f757600080fd5b61310087613009565b9550602087013567ffffffffffffffff8082111561311d57600080fd5b6131298a838b0161309c565b909750955060408901359450606089013591508082111561314957600080fd5b5061315689828a0161309c565b979a9699509497509295939492505050565b60008060006060848603121561317d57600080fd5b61318684613009565b925061319460208501613009565b9150604084013590509250925092565b6000602082840312156131b657600080fd5b611bd082613009565b60006020808301818452808551808352604092508286019150828160051b87010184880160005b8381101561324557888303603f19018552815180518452878101516001600160a01b031688850152868101518785015260609081015160809185018290529061323181860183612fb1565b9689019694505050908601906001016131e6565b509098975050505050505050565b60008060008060006060868803121561326b57600080fd5b85359450602086013567ffffffffffffffff8082111561328a57600080fd5b61329689838a0161309c565b909650945060408801359150808211156132af57600080fd5b506132bc8882890161309c565b969995985093965092949392505050565b6000806000806000606086880312156132e557600080fd5b85359450602086013567ffffffffffffffff8082111561330457600080fd5b818801915088601f83011261331857600080fd5b81358181111561332757600080fd5b8960208260051b850101111561333c57600080fd5b6020830196508095505060408801359150808211156132af57600080fd5b6000806040838503121561336d57600080fd5b8235915061337d60208401613009565b90509250929050565b60ff60f81b881681526000602060e0818401526133a660e084018a612fb1565b83810360408501526133b8818a612fb1565b606085018990526001600160a01b038816608086015260a0850187905284810360c0860152855180825283870192509083019060005b8181101561340a578351835292840192918401916001016133ee565b50909c9b505050505050505050505050565b8015158114610eea57600080fd5b6000806040838503121561343d57600080fd5b61344683613009565b915060208301356134568161341c565b809150509250929050565b60006020808352835160c08285015261347d60e0850182612fb1565b905081850151604085015260408501516060850152606085015160808501526080850151151560a085015260a0850151601f198583030160c086015281815180845284840191508483019350600092505b808310156134f75783516001600160a01b031682529284019260019290920191908401906134ce565b509695505050505050565b6000806000806000806080878903121561351b57600080fd5b86359550602087013567ffffffffffffffff8082111561311d57600080fd5b634e487b7160e01b600052604160045260246000fd5b6000806000806080858703121561356657600080fd5b61356f85613009565b935061357d60208601613009565b925060408501359150606085013567ffffffffffffffff808211156135a157600080fd5b818701915087601f8301126135b557600080fd5b8135818111156135c7576135c761353a565b604051601f8201601f19908116603f011681019083821181831017156135ef576135ef61353a565b816040528281528a602084870101111561360857600080fd5b82602086016020830137600060208483010152809550505050505092959194509250565b60008060006040848603121561364157600080fd5b83359250602084013567ffffffffffffffff81111561365f57600080fd5b61366b8682870161309c565b9497909650939450505050565b60006020808301818452808551808352604092508286019150828160051b87010184880160005b8381101561324557888303603f19018552815180516001600160a01b03168452878101518885015286015160608785018190526136de81860183612fb1565b96890196945050509086019060010161369f565b6000806040838503121561370557600080fd5b61370e83613009565b915061337d60208401613009565b600181811c9082168061373057607f821691505b60208210810361375057634e487b7160e01b600052602260045260246000fd5b50919050565b6020808252600d908201526c24b73b30b634b2103a37b5b2b760991b604082015260600190565b8183823760009101908152919050565b60006020828403121561379f57600080fd5b5051919050565b634e487b7160e01b600052601160045260246000fd5b6000600182016137ce576137ce6137a6565b5060010190565b601f82111561068957600081815260208120601f850160051c810160208610156137fc5750805b601f850160051c820191505b81811015611b2357828155600101613808565b67ffffffffffffffff8311156138335761383361353a565b61384783613841835461371c565b836137d5565b6000601f84116001811461387b57600085156138635750838201355b600019600387901b1c1916600186901b178355611342565b600083815260209020601f19861690835b828110156138ac578685013582556020948501946001909201910161388c565b50868210156138c95760001960f88860031b161c19848701351681555b505060018560011b0183555050505050565b60208152816020820152818360408301376000818301604090810191909152601f909201601f19160101919050565b808201808211156104b5576104b56137a6565b6020808252602d908201527f4552433732313a2063616c6c6572206973206e6f7420746f6b656e206f776e6560408201526c1c881bdc88185c1c1c9bdd9959609a1b606082015260800190565b634e487b7160e01b600052603260045260246000fd5b815167ffffffffffffffff81111561399a5761399a61353a565b6139ae816139a8845461371c565b846137d5565b602080601f8311600181146139e357600084156139cb5750858301515b600019600386901b1c1916600185901b178555611b23565b600085815260208120601f198616915b82811015613a12578886015182559484019460019091019084016139f3565b5085821015613a305787850151600019600388901b60f8161c191681555b5050505050600190811b01905550565b60008184825b85811015613a75576001600160a01b03613a5f83613009565b1683526020928301929190910190600101613a46565b509095945050505050565b60208082528181018390526000908460408401835b868110156134f7576001600160a01b03613aae84613009565b1682529183019190830190600101613a95565b6000808354613acf8161371c565b60018281168015613ae75760018114613afc57613b2b565b60ff1984168752821515830287019450613b2b565b8760005260208060002060005b85811015613b225781548a820152908401908201613b09565b50505082870194505b50929695505050505050565b60008351613b49818460208801612f8d565b835190830190613b5d818360208801612f8d565b01949350505050565b600060208284031215613b7857600080fd5b8151611bd08161341c565b60208082526025908201527f4552433732313a207472616e736665722066726f6d20696e636f72726563742060408201526437bbb732b960d91b606082015260800190565b60208082526032908201527f4552433732313a207472616e7366657220746f206e6f6e20455243373231526560408201527131b2b4bb32b91034b6b83632b6b2b73a32b960711b606082015260800190565b6001600160a01b03858116825284166020820152604081018390526080606082018190526000906109e490830184612fb1565b600060208284031215613c5f57600080fd5b8151611bd081612f5a565b634e487b7160e01b600052602160045260246000fdfea26469706673582212201f54041ffdb7c0befe897cb6df62b4b1f3744d347c26de6212d4be2e02e6596964736f6c63430008130033",
  "immutableReferences": {
    "3232": [
      {
        "length": 32,
        "start": 10536
      }
    ],
    "3234": [
      {
        "length": 32,
        "start": 10494
      }
    ],
    "3236": [
      {
        "length": 32,
        "start": 10452
      }
    ],
    "3238": [
      {
        "length": 32,
        "start": 10617
      }
    ],
    "3240": [
      {
        "length": 32,
        "start": 10657
      }
    ],
    "3243": [
      {
        "length": 32,
        "start": 5777
      }
    ],
    "3246": [
      {
        "length": 32,
        "start": 5820
      }
    ],
    "5611": [
      {
        "length": 32,
        "start": 927
      },
      {
        "length": 32,
        "start": 2105
      },
      {
        "length": 32,
        "start": 4012
      },
      {
        "length": 32,
        "start": 8293
      }
    ]
  },
  "source": "// SPDX-License-Identifier: MIT\r\npragma solidity ^0.8.19;\r\n\r\nimport \"@openzeppelin/contracts/token/ERC721/ERC721.sol\";\r\nimport \"@openzeppelin/contracts/token/ERC721/extensions/ERC721Burnable.sol\";\r\nimport \"@openzeppelin/contracts/utils/cryptography/ECDSA.sol\";\r\nimport \"@openzeppelin/contracts/security/ReentrancyGuard.sol\";\r\nimport \"@openzeppelin/contracts/utils/cryptography/EIP712.sol\";\r\nimport \"./RBAC.sol\";\r\n\r\ncontract DigitalAsset is ERC721, ERC721Burnable, ReentrancyGuard, EIP712 {\r\n    using ECDSA for bytes32;\r\n\r\n    RBAC public immutable rbac;\r\n    \r\n    struct AssetMetadata {\r\n        string cid;\r\n        bytes32 contentHash;\r\n        uint256 registrationDate;\r\n        uint256 version;\r\n        bool isCertified;\r\n        address[] pendingCertifiers;\r\n        mapping(address => bool) hasCertified;\r\n    }\r\n\r\n    struct Certification {\r\n        address certifier;\r\n        uint256 timestamp;\r\n        string comment;\r\n    }\r\n\r\n    struct AssetMetadataView {\r\n        string cid;\r\n        bytes32 contentHash;\r\n        uint256 registrationDate;\r\n        uint256 version;\r\n        bool isCertified;\r\n        address[] pendingCertifiers;\r\n    }\r\n\r\n    struct CertificationWithTokenId {\r\n        uint256 tokenId;\r\n        address certifier;\r\n        uint256 timestamp;\r\n        string comment;\r\n    }\r\n\r\n    uint256 private _tokenIdCounter;\r\n    mapping(uint256 => AssetMetadata) private _metadata;\r\n    mapping(uint256 => Certification[]) private _certifications;\r\n    mapping(string => bool) private _cidRegistry;\r\n    mapping(address => uint256) public nonces;\r\n\r\n    bytes32 private constant REGISTER_TYPEHASH = \r\n        keccak256(\"Register(address to,string cid,bytes32 contentHash,uint256 nonce)\");\r\n    bytes32 private constant CERTIFY_TYPEHASH = \r\n        keccak256(\"Certify(uint256 tokenId,string comment,uint256 nonce)\");\r\n    bytes32 private constant UPDATE_TYPEHASH = \r\n        keccak256(\"Update(uint256 tokenId,string newCid,bytes32 newHash,uint256 nonce)\");\r\n    bytes32 private constant BURN_TYPEHASH = \r\n        keccak256(\"Burn(uint256 tokenId,uint256 nonce)\");\r\n    bytes32 private constant SET_CERTIFIERS_TYPEHASH = \r\n        keccak256(\"SetCertifiers(uint256 tokenId,address[] certifiers,uint256 nonce)\");\r\n\r\n    event AssetRegistered(uint256 indexed tokenId, address indexed registrant, string cid);\r\n    event AssetCertified(uint256 indexed tokenId, address indexed certifier);\r\n    event MetadataUpdated(uint256 indexed tokenId, string newCid);\r\n    event AssetBurned(uint256 indexed tokenId);\r\n    event CertifiersSet(uint256 indexed tokenId, address[] certifiers);\r\n    event AllCertified(uint256 indexed tokenId);\r\n\r\n    constructor(address rbacAddress) \r\n        ERC721(\"DigitalAsset\", \"DA\") \r\n        EIP712(\"DigitalAsset\", \"1\") \r\n    {\r\n        require(rbacAddress != address(0), \"Invalid RBAC address\");\r\n        rbac = RBAC(rbacAddress);\r\n    }\r\n\r\n    // =====================  =====================\r\n    function registerAsset(\r\n        address to,\r\n        string calldata cid,\r\n        bytes32 contentHash,\r\n        bytes calldata signature\r\n    ) external nonReentrant returns (uint256) {\r\n        require(!_cidRegistry[cid], \"CID exists\");\r\n        uint256 currentNonce = nonces[to];\r\n        _validateOperation(\r\n            keccak256(abi.encode(\r\n                REGISTER_TYPEHASH,\r\n                to,\r\n                keccak256(bytes(cid)),\r\n                contentHash,\r\n                currentNonce\r\n            )),\r\n            signature,\r\n            rbac.REGISTRAR_ROLE()\r\n        );\r\n\r\n        uint256 tokenId = _tokenIdCounter++;\r\n        _safeMint(to, tokenId);\r\n        \r\n        AssetMetadata storage metadata = _metadata[tokenId];\r\n        metadata.cid = cid;\r\n        metadata.contentHash = contentHash;\r\n        metadata.registrationDate = block.timestamp;\r\n        metadata.version = 1;\r\n        metadata.isCertified = false;\r\n        metadata.pendingCertifiers = new address[](0);\r\n        \r\n        _cidRegistry[cid] = true;\r\n        emit AssetRegistered(tokenId, to, cid);\r\n        nonces[to] = currentNonce + 1;\r\n        return tokenId;\r\n    }\r\n\r\n    function setCertifiers(\r\n        uint256 tokenId,\r\n        address[] calldata certifiers,\r\n        bytes calldata signature\r\n    ) external nonReentrant {\r\n        require(ownerOf(tokenId) == msg.sender, \"Not owner\");\r\n        uint256 currentNonce = nonces[msg.sender];\r\n        _validateOperation(\r\n            keccak256(abi.encode(\r\n                SET_CERTIFIERS_TYPEHASH,\r\n                tokenId,\r\n                keccak256(abi.encodePacked(certifiers)),\r\n                currentNonce\r\n            )),\r\n            signature,\r\n            bytes32(0)\r\n        );\r\n\r\n        AssetMetadata storage metadata = _metadata[tokenId];\r\n        metadata.pendingCertifiers = certifiers;\r\n        for (uint i = 0; i < certifiers.length; i++) {\r\n            metadata.hasCertified[certifiers[i]] = false;\r\n        }\r\n        metadata.isCertified = false;\r\n        nonces[msg.sender] = currentNonce + 1;\r\n        emit CertifiersSet(tokenId, certifiers);\r\n    }\r\n\r\n    function certifyAsset(\r\n        uint256 tokenId,\r\n        string calldata comment,\r\n        bytes calldata signature\r\n    ) external nonReentrant {\r\n        require(_exists(tokenId), \"Invalid token\");\r\n        uint256 currentNonce = nonces[msg.sender];\r\n        _validateOperation(\r\n            keccak256(abi.encode(\r\n                CERTIFY_TYPEHASH,\r\n                tokenId,\r\n                keccak256(bytes(comment)),\r\n                currentNonce\r\n            )),\r\n            signature,\r\n            rbac.CERTIFIER_ROLE()\r\n        );\r\n\r\n        AssetMetadata storage metadata = _metadata[tokenId];\r\n        require(metadata.pendingCertifiers.length > 0, \"No pending certifiers\");\r\n        require(!metadata.hasCertified[msg.sender], \"Already certified\");\r\n        \r\n        bool isPendingCertifier = false;\r\n        for (uint i = 0; i < metadata.pendingCertifiers.length; i++) {\r\n            if (metadata.pendingCertifiers[i] == msg.sender) {\r\n                isPendingCertifier = true;\r\n                break;\r\n            }\r\n        }\r\n        require(isPendingCertifier, \"Not a pending certifier\");\r\n\r\n        metadata.hasCertified[msg.sender] = true;\r\n        _certifications[tokenId].push(Certification({\r\n            certifier: msg.sender,\r\n            timestamp: block.timestamp,\r\n            comment: comment\r\n        }));\r\n\r\n        // \r\n        bool allCertified = true;\r\n        for (uint i = 0; i < metadata.pendingCertifiers.length; i++) {\r\n            if (!metadata.hasCertified[metadata.pendingCertifiers[i]]) {\r\n                allCertified = false;\r\n                break;\r\n            }\r\n        }\r\n\r\n        if (allCertified) {\r\n            metadata.isCertified = true;\r\n            emit AllCertified(tokenId);\r\n        }\r\n\r\n        nonces[msg.sender] = currentNonce + 1;\r\n        emit AssetCertified(tokenId, msg.sender);\r\n    }\r\n\r\n    function updateMetadata(\r\n        uint256 tokenId,\r\n        string calldata newCid,\r\n        bytes32 newHash,\r\n        bytes calldata signature\r\n    ) external nonReentrant {\r\n        require(ownerOf(tokenId) == msg.sender, \"Not owner\");\r\n        require(!_cidRegistry[newCid], \"CID exists\");\r\n        uint256 currentNonce = nonces[msg.sender];\r\n        _validateOperation(\r\n            keccak256(abi.encode(\r\n                UPDATE_TYPEHASH,\r\n                tokenId,\r\n                keccak256(bytes(newCid)),\r\n                newHash,\r\n                currentNonce\r\n            )),\r\n            signature,\r\n            bytes32(0)\r\n        );\r\n\r\n        _cidRegistry[_metadata[tokenId].cid] = false;\r\n        _metadata[tokenId].cid = newCid;\r\n        _metadata[tokenId].contentHash = newHash;\r\n        _metadata[tokenId].version++;\r\n        _cidRegistry[newCid] = true;\r\n        nonces[msg.sender] = currentNonce + 1;\r\n        emit MetadataUpdated(tokenId, newCid);\r\n    }\r\n\r\n    function burnAsset(\r\n        uint256 tokenId,\r\n        bytes calldata signature\r\n    ) external nonReentrant {\r\n        require(_isApprovedOrOwner(msg.sender, tokenId), \"Not authorized\");\r\n        uint256 currentNonce = nonces[msg.sender];\r\n        _validateOperation(\r\n            keccak256(abi.encode(\r\n                BURN_TYPEHASH,\r\n                tokenId,\r\n                currentNonce\r\n            )),\r\n            signature,\r\n            bytes32(0)\r\n        );\r\n\r\n        _cidRegistry[_metadata[tokenId].cid] = false;\r\n        delete _metadata[tokenId];\r\n        delete _certifications[tokenId];\r\n        _burn(tokenId);\r\n        nonces[msg.sender] = currentNonce + 1;\r\n        emit AssetBurned(tokenId);\r\n    }\r\n\r\n    // =====================  =====================\r\n    function getMetadata(uint256 tokenId) external view returns (AssetMetadataView memory) {\r\n        require(_exists(tokenId), \"Invalid token\");\r\n        AssetMetadata storage metadata = _metadata[tokenId];\r\n        return AssetMetadataView({\r\n            cid: metadata.cid,\r\n            contentHash: metadata.contentHash,\r\n            registrationDate: metadata.registrationDate,\r\n            version: metadata.version,\r\n            isCertified: metadata.isCertified,\r\n            pendingCertifiers: metadata.pendingCertifiers\r\n        });\r\n    }\r\n\r\n    function getCertifications(uint256 tokenId) external view returns (Certification[] memory) {\r\n        require(_exists(tokenId), \"Invalid token\");\r\n        return _certifications[tokenId];\r\n    }\r\n\r\n    function getPendingCertifiers(uint256 tokenId) external view returns (address[] memory) {\r\n        require(_exists(tokenId), \"Invalid token\");\r\n        return _metadata[tokenId].pendingCertifiers;\r\n    }\r\n\r\n    function hasCertified(uint256 tokenId, address certifier) external view returns (bool) {\r\n        require(_exists(tokenId), \"Invalid token\");\r\n        return _metadata[tokenId].hasCertified[certifier];\r\n    }\r\n\r\n    function getCertificationsByAddress(address certifier) external view returns (CertificationWithTokenId[] memory) {\r\n        // \r\n        uint256 count = 0;\r\n        uint256 currentTokenId = 0;\r\n        \r\n        while (currentTokenId < _tokenIdCounter) {\r\n            if (_exists(currentTokenId)) {\r\n                Certification[] memory certs = _certifications[currentTokenId];\r\n                for (uint256 i = 0; i < certs.length; i++) {\r\n                    if (certs[i].certifier == certifier) {\r\n                        count++;\r\n                    }\r\n                }\r\n            }\r\n            currentTokenId++;\r\n        }\r\n\r\n        // \r\n        CertificationWithTokenId[] memory result = new CertificationWithTokenId[](count);\r\n        uint256 resultIndex = 0;\r\n        currentTokenId = 0;\r\n\r\n        // \r\n        while (currentTokenId < _tokenIdCounter) {\r\n            if (_exists(currentTokenId)) {\r\n                Certification[] memory certs = _certifications[currentTokenId];\r\n                for (uint256 i = 0; i < certs.length; i++) {\r\n                    if (certs[i].certifier == certifier) {\r\n                        result[resultIndex] = CertificationWithTokenId({\r\n                            tokenId: currentTokenId,\r\n                            certifier: certs[i].certifier,\r\n                            timestamp: certs[i].timestamp,\r\n                            comment: certs[i].comment\r\n                        });\r\n                        resultIndex++;\r\n                    }\r\n                }\r\n            }\r\n            currentTokenId++;\r\n        }\r\n\r\n        return result;\r\n    }\r\n\r\n    // =====================  =====================\r\n    function _validateOperation(\r\n        bytes32 structHash,\r\n        bytes calldata signature,\r\n        bytes32 requiredRole\r\n    ) internal view {\r\n        address signer = _hashTypedDataV4(structHash).recover(signature);\r\n        \r\n        if(requiredRole != bytes32(0)) {\r\n            require(rbac.hasRole(requiredRole, signer), \"Unauthorized role\");\r\n        }\r\n        \r\n        require(signer == msg.sender, \"Signer mismatch\");\r\n    }\r\n}\r\n",
  "sourcePath": "D:\\work\\2025BlockAsset\\digital-asset-system\\contracts\\DigitalAsset.sol",
  "compiler": {
    "name": "solc",
    "version": "0.8.19+commit.7dd6d404.Emscripten.clang"
  },
  "schemaVersion": "3.4.16",
  "updatedAt": "2025-04-05T03:00:00.957Z",
  "networkType": "ethereum",
  "devdoc": {
    "events": {
      "Approval(address,address,uint256)": {
        "details": "Emitted when `owner` enables `approved` to manage the `tokenId` token."
      },
      "ApprovalForAll(address,address,bool)": {
        "details": "Emitted when `owner` enables or disables (`approved`) `operator` to manage all of its assets."
      },
      "EIP712DomainChanged()": {
        "details": "MAY be emitted to signal that the domain could have changed."
      },
      "Transfer(address,address,uint256)": {
        "details": "Emitted when `tokenId` token is transferred from `from` to `to`."
      }
    },
    "kind": "dev",
    "methods": {
      "approve(address,uint256)": {
        "details": "See {IERC721-approve}."
      },
      "balanceOf(address)": {
        "details": "See {IERC721-balanceOf}."
      },
      "burn(uint256)": {
        "details": "Burns `tokenId`. See {ERC721-_burn}. Requirements: - The caller must own `tokenId` or be an approved operator."
      },
      "eip712Domain()": {
        "details": "See {EIP-5267}. _Available since v4.9._"
      },
      "getApproved(uint256)": {
        "details": "See {IERC721-getApproved}."
      },
      "isApprovedForAll(address,address)": {
        "details": "See {IERC721-isApprovedForAll}."
      },
      "name()": {
        "details": "See {IERC721Metadata-name}."
      },
      "ownerOf(uint256)": {
        "details": "See {IERC721-ownerOf}."
      },
      "safeTransferFrom(address,address,uint256)": {
        "details": "See {IERC721-safeTransferFrom}."
      },
      "safeTransferFrom(address,address,uint256,bytes)": {
        "details": "See {IERC721-safeTransferFrom}."
      },
      "setApprovalForAll(address,bool)": {
        "details": "See {IERC721-setApprovalForAll}."
      },
      "supportsInterface(bytes4)": {
        "details": "See {IERC165-supportsInterface}."
      },
      "symbol()": {
        "details": "See {IERC721Metadata-symbol}."
      },
      "tokenURI(uint256)": {
        "details": "See {IERC721Metadata-tokenURI}."
      },
      "transferFrom(address,address,uint256)": {
        "details": "See {IERC721-transferFrom}."
      }
    },
    "version": 1
  },
  "userdoc": {
    "kind": "user",
    "methods": {},
    "version": 1
  }
}