{
  "contractName": "DigitalAsset",
  "abi": [
    {
      "inputs": [
        {
          "internalType": "address",
          "name": "rbacAddress",
          "type": "address"
        }
      ],
      "stateMutability": "nonpayable",
      "type": "constructor"
    },
    {
      "anonymous": false,
      "inputs": [
        {
          "indexed": true,
          "internalType": "address",
          "name": "owner",
          "type": "address"
        },
        {
          "indexed": true,
          "internalType": "address",
          "name": "approved",
          "type": "address"
        },
        {
          "indexed": true,
          "internalType": "uint256",
          "name": "tokenId",
          "type": "uint256"
        }
      ],
      "name": "Approval",
      "type": "event"
    },
    {
      "anonymous": false,
      "inputs": [
        {
          "indexed": true,
          "internalType": "address",
          "name": "owner",
          "type": "address"
        },
        {
          "indexed": true,
          "internalType": "address",
          "name": "operator",
          "type": "address"
        },
        {
          "indexed": false,
          "internalType": "bool",
          "name": "approved",
          "type": "bool"
        }
      ],
      "name": "ApprovalForAll",
      "type": "event"
    },
    {
      "anonymous": false,
      "inputs": [
        {
          "indexed": true,
          "internalType": "uint256",
          "name": "tokenId",
          "type": "uint256"
        },
        {
          "indexed": true,
          "internalType": "address",
          "name": "burner",
          "type": "address"
        },
        {
          "indexed": false,
          "internalType": "uint256",
          "name": "timestamp",
          "type": "uint256"
        }
      ],
      "name": "AssetBurned",
      "type": "event"
    },
    {
      "anonymous": false,
      "inputs": [
        {
          "indexed": true,
          "internalType": "uint256",
          "name": "tokenId",
          "type": "uint256"
        },
        {
          "indexed": true,
          "internalType": "address",
          "name": "certifier",
          "type": "address"
        },
        {
          "indexed": false,
          "internalType": "string",
          "name": "comment",
          "type": "string"
        },
        {
          "indexed": false,
          "internalType": "uint256",
          "name": "timestamp",
          "type": "uint256"
        }
      ],
      "name": "AssetCertified",
      "type": "event"
    },
    {
      "anonymous": false,
      "inputs": [
        {
          "indexed": true,
          "internalType": "uint256",
          "name": "tokenId",
          "type": "uint256"
        },
        {
          "indexed": true,
          "internalType": "address",
          "name": "registrant",
          "type": "address"
        },
        {
          "indexed": false,
          "internalType": "string",
          "name": "cid",
          "type": "string"
        },
        {
          "indexed": false,
          "internalType": "uint256",
          "name": "timestamp",
          "type": "uint256"
        }
      ],
      "name": "AssetRegistered",
      "type": "event"
    },
    {
      "anonymous": false,
      "inputs": [
        {
          "indexed": true,
          "internalType": "uint256",
          "name": "tokenId",
          "type": "uint256"
        },
        {
          "indexed": false,
          "internalType": "string",
          "name": "newCid",
          "type": "string"
        },
        {
          "indexed": false,
          "internalType": "uint256",
          "name": "newVersion",
          "type": "uint256"
        },
        {
          "indexed": false,
          "internalType": "uint256",
          "name": "timestamp",
          "type": "uint256"
        }
      ],
      "name": "MetadataUpdated",
      "type": "event"
    },
    {
      "anonymous": false,
      "inputs": [
        {
          "indexed": true,
          "internalType": "address",
          "name": "from",
          "type": "address"
        },
        {
          "indexed": true,
          "internalType": "address",
          "name": "to",
          "type": "address"
        },
        {
          "indexed": true,
          "internalType": "uint256",
          "name": "tokenId",
          "type": "uint256"
        }
      ],
      "name": "Transfer",
      "type": "event"
    },
    {
      "inputs": [
        {
          "internalType": "address",
          "name": "to",
          "type": "address"
        },
        {
          "internalType": "uint256",
          "name": "tokenId",
          "type": "uint256"
        }
      ],
      "name": "approve",
      "outputs": [],
      "stateMutability": "nonpayable",
      "type": "function"
    },
    {
      "inputs": [
        {
          "internalType": "address",
          "name": "owner",
          "type": "address"
        }
      ],
      "name": "balanceOf",
      "outputs": [
        {
          "internalType": "uint256",
          "name": "",
          "type": "uint256"
        }
      ],
      "stateMutability": "view",
      "type": "function",
      "constant": true
    },
    {
      "inputs": [
        {
          "internalType": "uint256",
          "name": "tokenId",
          "type": "uint256"
        }
      ],
      "name": "burn",
      "outputs": [],
      "stateMutability": "nonpayable",
      "type": "function"
    },
    {
      "inputs": [
        {
          "internalType": "uint256",
          "name": "tokenId",
          "type": "uint256"
        }
      ],
      "name": "getApproved",
      "outputs": [
        {
          "internalType": "address",
          "name": "",
          "type": "address"
        }
      ],
      "stateMutability": "view",
      "type": "function",
      "constant": true
    },
    {
      "inputs": [
        {
          "internalType": "address",
          "name": "owner",
          "type": "address"
        },
        {
          "internalType": "address",
          "name": "operator",
          "type": "address"
        }
      ],
      "name": "isApprovedForAll",
      "outputs": [
        {
          "internalType": "bool",
          "name": "",
          "type": "bool"
        }
      ],
      "stateMutability": "view",
      "type": "function",
      "constant": true
    },
    {
      "inputs": [],
      "name": "name",
      "outputs": [
        {
          "internalType": "string",
          "name": "",
          "type": "string"
        }
      ],
      "stateMutability": "view",
      "type": "function",
      "constant": true
    },
    {
      "inputs": [
        {
          "internalType": "uint256",
          "name": "tokenId",
          "type": "uint256"
        }
      ],
      "name": "ownerOf",
      "outputs": [
        {
          "internalType": "address",
          "name": "",
          "type": "address"
        }
      ],
      "stateMutability": "view",
      "type": "function",
      "constant": true
    },
    {
      "inputs": [],
      "name": "rbac",
      "outputs": [
        {
          "internalType": "contract RBAC",
          "name": "",
          "type": "address"
        }
      ],
      "stateMutability": "view",
      "type": "function",
      "constant": true
    },
    {
      "inputs": [
        {
          "internalType": "address",
          "name": "from",
          "type": "address"
        },
        {
          "internalType": "address",
          "name": "to",
          "type": "address"
        },
        {
          "internalType": "uint256",
          "name": "tokenId",
          "type": "uint256"
        }
      ],
      "name": "safeTransferFrom",
      "outputs": [],
      "stateMutability": "nonpayable",
      "type": "function"
    },
    {
      "inputs": [
        {
          "internalType": "address",
          "name": "from",
          "type": "address"
        },
        {
          "internalType": "address",
          "name": "to",
          "type": "address"
        },
        {
          "internalType": "uint256",
          "name": "tokenId",
          "type": "uint256"
        },
        {
          "internalType": "bytes",
          "name": "data",
          "type": "bytes"
        }
      ],
      "name": "safeTransferFrom",
      "outputs": [],
      "stateMutability": "nonpayable",
      "type": "function"
    },
    {
      "inputs": [
        {
          "internalType": "address",
          "name": "operator",
          "type": "address"
        },
        {
          "internalType": "bool",
          "name": "approved",
          "type": "bool"
        }
      ],
      "name": "setApprovalForAll",
      "outputs": [],
      "stateMutability": "nonpayable",
      "type": "function"
    },
    {
      "inputs": [],
      "name": "symbol",
      "outputs": [
        {
          "internalType": "string",
          "name": "",
          "type": "string"
        }
      ],
      "stateMutability": "view",
      "type": "function",
      "constant": true
    },
    {
      "inputs": [
        {
          "internalType": "uint256",
          "name": "tokenId",
          "type": "uint256"
        }
      ],
      "name": "tokenURI",
      "outputs": [
        {
          "internalType": "string",
          "name": "",
          "type": "string"
        }
      ],
      "stateMutability": "view",
      "type": "function",
      "constant": true
    },
    {
      "inputs": [
        {
          "internalType": "address",
          "name": "from",
          "type": "address"
        },
        {
          "internalType": "address",
          "name": "to",
          "type": "address"
        },
        {
          "internalType": "uint256",
          "name": "tokenId",
          "type": "uint256"
        }
      ],
      "name": "transferFrom",
      "outputs": [],
      "stateMutability": "nonpayable",
      "type": "function"
    },
    {
      "inputs": [
        {
          "internalType": "address",
          "name": "to",
          "type": "address"
        },
        {
          "internalType": "string",
          "name": "cid",
          "type": "string"
        },
        {
          "internalType": "bytes32",
          "name": "contentHash",
          "type": "bytes32"
        },
        {
          "internalType": "string",
          "name": "encryptedKey",
          "type": "string"
        },
        {
          "internalType": "bytes",
          "name": "signature",
          "type": "bytes"
        }
      ],
      "name": "registerAsset",
      "outputs": [
        {
          "internalType": "uint256",
          "name": "",
          "type": "uint256"
        }
      ],
      "stateMutability": "nonpayable",
      "type": "function"
    },
    {
      "inputs": [
        {
          "internalType": "uint256",
          "name": "tokenId",
          "type": "uint256"
        },
        {
          "components": [
            {
              "internalType": "address",
              "name": "certifier",
              "type": "address"
            },
            {
              "internalType": "bytes32",
              "name": "commentHash",
              "type": "bytes32"
            }
          ],
          "internalType": "struct DigitalAsset.CertifierHashComment[]",
          "name": "certifierHashComments",
          "type": "tuple[]"
        },
        {
          "internalType": "bytes[]",
          "name": "signatures",
          "type": "bytes[]"
        }
      ],
      "name": "certifyAssetWithHashComments",
      "outputs": [],
      "stateMutability": "nonpayable",
      "type": "function"
    },
    {
      "inputs": [
        {
          "internalType": "uint256",
          "name": "tokenId",
          "type": "uint256"
        },
        {
          "internalType": "string",
          "name": "newCid",
          "type": "string"
        },
        {
          "internalType": "bytes32",
          "name": "newHash",
          "type": "bytes32"
        },
        {
          "internalType": "string",
          "name": "newKey",
          "type": "string"
        }
      ],
      "name": "updateMetadata",
      "outputs": [],
      "stateMutability": "nonpayable",
      "type": "function"
    },
    {
      "inputs": [
        {
          "internalType": "uint256",
          "name": "tokenId",
          "type": "uint256"
        }
      ],
      "name": "getAssetMetadata",
      "outputs": [
        {
          "components": [
            {
              "internalType": "string",
              "name": "cid",
              "type": "string"
            },
            {
              "internalType": "bytes32",
              "name": "contentHash",
              "type": "bytes32"
            },
            {
              "internalType": "address",
              "name": "registrant",
              "type": "address"
            },
            {
              "internalType": "uint256",
              "name": "registrationDate",
              "type": "uint256"
            },
            {
              "internalType": "bool",
              "name": "isCertified",
              "type": "bool"
            },
            {
              "internalType": "string",
              "name": "encryptedKey",
              "type": "string"
            },
            {
              "internalType": "uint256",
              "name": "version",
              "type": "uint256"
            }
          ],
          "internalType": "struct DigitalAsset.AssetMetadata",
          "name": "",
          "type": "tuple"
        }
      ],
      "stateMutability": "view",
      "type": "function",
      "constant": true
    },
    {
      "inputs": [
        {
          "internalType": "uint256",
          "name": "tokenId",
          "type": "uint256"
        }
      ],
      "name": "getCertificationHistory",
      "outputs": [
        {
          "components": [
            {
              "internalType": "address",
              "name": "certifier",
              "type": "address"
            },
            {
              "internalType": "uint256",
              "name": "timestamp",
              "type": "uint256"
            },
            {
              "internalType": "string",
              "name": "comment",
              "type": "string"
            }
          ],
          "internalType": "struct DigitalAsset.Certification[]",
          "name": "",
          "type": "tuple[]"
        }
      ],
      "stateMutability": "view",
      "type": "function",
      "constant": true
    },
    {
      "inputs": [
        {
          "internalType": "uint256",
          "name": "tokenId",
          "type": "uint256"
        },
        {
          "internalType": "bytes32",
          "name": "hash",
          "type": "bytes32"
        }
      ],
      "name": "verifyIntegrity",
      "outputs": [
        {
          "internalType": "bool",
          "name": "",
          "type": "bool"
        }
      ],
      "stateMutability": "view",
      "type": "function",
      "constant": true
    },
    {
      "inputs": [
        {
          "internalType": "bytes4",
          "name": "interfaceId",
          "type": "bytes4"
        }
      ],
      "name": "supportsInterface",
      "outputs": [
        {
          "internalType": "bool",
          "name": "",
          "type": "bool"
        }
      ],
      "stateMutability": "view",
      "type": "function",
      "constant": true
    },
    {
      "inputs": [
        {
          "internalType": "uint256",
          "name": "tokenId",
          "type": "uint256"
        }
      ],
      "name": "burnAsset",
      "outputs": [],
      "stateMutability": "nonpayable",
      "type": "function"
    }
  ],
  "bytecode": "0x60806040523480156200001157600080fd5b50604051620036ee380380620036ee83398101604081905262000034916200012f565b6040518060400160405280601681526020017f456e74657270726973654469676974616c4173736574000000000000000000008152506040518060400160405280600381526020016245444160e81b815250816000908162000097919062000206565b506001620000a6828262000206565b50506001600655506001600160a01b038116620001095760405162461bcd60e51b815260206004820152601460248201527f496e76616c696420524241432061646472657373000000000000000000000000604482015260640160405180910390fd5b600780546001600160a01b0319166001600160a01b0392909216919091179055620002d2565b6000602082840312156200014257600080fd5b81516001600160a01b03811681146200015a57600080fd5b9392505050565b634e487b7160e01b600052604160045260246000fd5b600181811c908216806200018c57607f821691505b602082108103620001ad57634e487b7160e01b600052602260045260246000fd5b50919050565b601f8211156200020157600081815260208120601f850160051c81016020861015620001dc5750805b601f850160051c820191505b81811015620001fd57828155600101620001e8565b5050505b505050565b81516001600160401b0381111562000222576200022262000161565b6200023a8162000233845462000177565b84620001b3565b602080601f831160018114620002725760008415620002595750858301515b600019600386901b1c1916600185901b178555620001fd565b600085815260208120601f198616915b82811015620002a35788860151825594840194600190910190840162000282565b5085821015620002c25787850151600019600388901b60f8161c191681555b5050505050600190811b01905550565b61340c80620002e26000396000f3fe608060405234801561001057600080fd5b50600436106101425760003560e01c80638f08d44d116100b8578063b88d4fde1161007c578063b88d4fde146102b8578063b9722965146102cb578063c87b56dd146102de578063cf2acf84146102f1578063de1a976f14610311578063e985e9c51461032457600080fd5b80638f08d44d146102575780639103c42f1461026a57806395d89b411461028a578063a22cb46514610292578063a8ecc7f1146102a557600080fd5b806342842e0e1161010a57806342842e0e146101d757806342966c68146101ea57806354fa159d146101fd5780636352211e1461021057806370a082311461022357806383faa6c41461024457600080fd5b806301ffc9a71461014757806306fdde031461016f578063081812fc14610184578063095ea7b3146101af57806323b872dd146101c4575b600080fd5b61015a61015536600461284e565b610360565b60405190151581526020015b60405180910390f35b610177610371565b60405161016691906128bb565b6101976101923660046128ce565b610403565b6040516001600160a01b039091168152602001610166565b6101c26101bd366004612903565b61042a565b005b6101c26101d236600461292d565b610544565b6101c26101e536600461292d565b610576565b6101c26101f83660046128ce565b610591565b6101c261020b366004612a49565b6105c2565b61019761021e3660046128ce565b61077f565b610236610231366004612ac0565b6107df565b604051908152602001610166565b610236610252366004612adb565b610865565b6101c26102653660046128ce565b610d38565b61027d6102783660046128ce565b610e87565b6040516101669190612b7e565b610177610fc6565b6101c26102a0366004612c14565b610fd5565b600754610197906001600160a01b031681565b6101c26102c6366004612c4b565b610fe4565b61015a6102d9366004612ca7565b611016565b6101776102ec3660046128ce565b611055565b6103046102ff3660046128ce565b6110c9565b6040516101669190612cc9565b6101c261031f366004612e00565b6112ad565b61015a610332366004612ef0565b6001600160a01b03918216600090815260056020908152604080832093909416825291909152205460ff1690565b600061036b826119d5565b92915050565b60606000805461038090612f23565b80601f01602080910402602001604051908101604052809291908181526020018280546103ac90612f23565b80156103f95780601f106103ce576101008083540402835291602001916103f9565b820191906000526020600020905b8154815290600101906020018083116103dc57829003601f168201915b5050505050905090565b600061040e82611a25565b506000908152600460205260409020546001600160a01b031690565b60006104358261077f565b9050806001600160a01b0316836001600160a01b0316036104a75760405162461bcd60e51b815260206004820152602160248201527f4552433732313a20617070726f76616c20746f2063757272656e74206f776e656044820152603960f91b60648201526084015b60405180910390fd5b336001600160a01b03821614806104c357506104c38133610332565b6105355760405162461bcd60e51b815260206004820152603d60248201527f4552433732313a20617070726f76652063616c6c6572206973206e6f7420746f60448201527f6b656e206f776e6572206f7220617070726f76656420666f7220616c6c000000606482015260840161049e565b61053f8383611a75565b505050565b61054f335b82611ae3565b61056b5760405162461bcd60e51b815260040161049e90612f5d565b61053f838383611b62565b61053f83838360405180602001604052806000815250610fe4565b61059a33610549565b6105b65760405162461bcd60e51b815260040161049e90612f5d565b6105bf81611cc6565b50565b6105ca611d5b565b336105d48561077f565b6001600160a01b03161461061c5760405162461bcd60e51b815260206004820152600f60248201526e2737ba1030b9b9b2ba1037bbb732b960891b604482015260640161049e565b600b8360405161062c9190612faa565b9081526040519081900360200190205460ff16156106815760405162461bcd60e51b815260206004820152601260248201527143494420616c72656164792065786973747360701b604482015260640161049e565b6000848152600960205260408082209051909190600b906106a3908490612fc6565b908152604051908190036020019020805491151560ff19909216919091179055806106ce858261308a565b5060018101839055600581016106e4838261308a565b506006810180549060006106f783613160565b91905055506001600b8560405161070e9190612faa565b908152604051908190036020018120805492151560ff1990931692909217909155600682015486917fa8ac72d53712678b1afd2575b423ef027b476e6cd04f9ced5f1b38968a981be691610766918891904290613179565b60405180910390a2506107796001600655565b50505050565b6000818152600260205260408120546001600160a01b03168061036b5760405162461bcd60e51b8152602060048201526018602482015277115490cdcc8c4e881a5b9d985b1a59081d1bdad95b88125160421b604482015260640161049e565b60006001600160a01b0382166108495760405162461bcd60e51b815260206004820152602960248201527f4552433732313a2061646472657373207a65726f206973206e6f7420612076616044820152683634b21037bbb732b960b91b606482015260840161049e565b506001600160a01b031660009081526003602052604090205490565b600061086f611d5b565b6007546040805163f68e955360e01b815290516001600160a01b03909216916391d1485491839163f68e9553916004808201926020929091908290030181865afa1580156108c1573d6000803e3d6000fd5b505050506040513d601f19601f820116820180604052508101906108e5919061319e565b6040516001600160e01b031960e084901b1681526004810191909152336024820152604401602060405180830381865afa158015610927573d6000803e3d6000fd5b505050506040513d601f19601f8201168201806040525081019061094b91906131b7565b6109975760405162461bcd60e51b815260206004820152601960248201527f43616c6c6572206973206e6f7420612072656769737472617200000000000000604482015260640161049e565b600b856040516109a79190612faa565b9081526040519081900360200190205460ff1615610a005760405162461bcd60e51b815260206004820152601660248201527510d25108185b1c9958591e481c9959da5cdd195c995960521b604482015260640161049e565b604080518082018252600c81526b111a59da5d185b105cdcd95d60a21b6020918201528151808301835260018152603160f81b9082015281517f8b73c3c69bb8fe3d512ecc4cf759cc79239f7b179b0ffacaa9a75d522b39400f818301527fc4288bf992b417abfe26d2360a292dbbc12bd7580e6086c5e27482f7338ed3ee818401527fc89efdaa54c0f20c7adf612882df0950f5a951637e0307cdcb4c672f298b8bc660608201524660808201523060a0808301919091528351808303909101815260c082018085528151919093012061012082019093526028808352600092916133af9060e00139805160209182012060408051928301919091526001600160a01b038a1690820152606081018790526080016040516020818303038152906040528051906020012090506000610b53838360405161190160f01b8152600281019290925260228201526042902090565b90506000610b618287611db4565b9050896001600160a01b0316816001600160a01b031614610bb85760405162461bcd60e51b8152602060048201526011602482015270496e76616c6964207369676e617475726560781b604482015260640161049e565b6008805460009182610bc983613160565b919050559050610bd98b82611dd8565b6040805160e0810182528b815260208082018c90526001600160a01b038e168284015242606083015260006080830181905260a083018c9052600160c084015284815260099091529190912081518190610c33908261308a565b506020820151600182015560408201516002820180546001600160a01b0319166001600160a01b0390921691909117905560608201516003820155608082015160048201805460ff191691151591909117905560a08201516005820190610c9a908261308a565b5060c082015181600601559050506001600b8b604051610cba9190612faa565b908152604051908190036020018120805492151560ff19909316929092179091556001600160a01b038c169082907f17bfbb947caca86ac77ea06397ced8c4f77a1a6c82a21b5a05a738ceddc1f66090610d17908e9042906131d4565b60405180910390a3945050505050610d2f6001600655565b95945050505050565b610d4133610549565b610d8d5760405162461bcd60e51b815260206004820152601f60248201527f43616c6c6572206973206e6f74206f776e6572206f7220617070726f76656400604482015260640161049e565b60008181526009602052604081208054610da690612f23565b80601f0160208091040260200160405190810160405280929190818152602001828054610dd290612f23565b8015610e1f5780601f10610df457610100808354040283529160200191610e1f565b820191906000526020600020905b815481529060010190602001808311610e0257829003601f168201915b50505050509050610e31816000611df2565b610e3a82611e27565b610e4382611e89565b610e4c82611cc6565b604051428152339083907f50c209a01cac1c5d1739b480c343e6851226e861fab7ddcf49f08a2447c6dab09060200160405180910390a35050565b6060610e9282611ea0565b610eae5760405162461bcd60e51b815260040161049e906131f6565b6000828152600a6020908152604080832080548251818502810185019093528083529193909284015b82821015610fbb576000848152602090819020604080516060810182526003860290920180546001600160a01b0316835260018101549383019390935260028301805492939291840191610f2a90612f23565b80601f0160208091040260200160405190810160405280929190818152602001828054610f5690612f23565b8015610fa35780601f10610f7857610100808354040283529160200191610fa3565b820191906000526020600020905b815481529060010190602001808311610f8657829003601f168201915b50505050508152505081526020019060010190610ed7565b505050509050919050565b60606001805461038090612f23565b610fe0338383611ebd565b5050565b610fee3383611ae3565b61100a5760405162461bcd60e51b815260040161049e90612f5d565b61077984848484611f8b565b600061102183611ea0565b61103d5760405162461bcd60e51b815260040161049e906131f6565b50600091825260096020526040909120600101541490565b606061106082611a25565b600061107760408051602081019091526000815290565b9050600081511161109757604051806020016040528060008152506110c2565b806110a184611fbe565b6040516020016110b292919061321f565b6040516020818303038152906040525b9392505050565b6040805160e08101825260608082526000602083018190529282018390528082018390526080820183905260a082015260c081019190915261110a82611ea0565b6111265760405162461bcd60e51b815260040161049e906131f6565b60008281526009602052604090819020815160e0810190925280548290829061114e90612f23565b80601f016020809104026020016040519081016040528092919081815260200182805461117a90612f23565b80156111c75780601f1061119c576101008083540402835291602001916111c7565b820191906000526020600020905b8154815290600101906020018083116111aa57829003601f168201915b50505091835250506001820154602082015260028201546001600160a01b0316604082015260038201546060820152600482015460ff161515608082015260058201805460a09092019161121a90612f23565b80601f016020809104026020016040519081016040528092919081815260200182805461124690612f23565b80156112935780601f1061126857610100808354040283529160200191611293565b820191906000526020600020905b81548152906001019060200180831161127657829003601f168201915b505050505081526020016006820154815250509050919050565b600754604080516369d0b51760e01b815290516001600160a01b03909216916391d148549183916369d0b517916004808201926020929091908290030181865afa1580156112ff573d6000803e3d6000fd5b505050506040513d601f19601f82011682018060405250810190611323919061319e565b6040516001600160e01b031960e084901b1681526004810191909152336024820152604401602060405180830381865afa158015611365573d6000803e3d6000fd5b505050506040513d601f19601f8201168201806040525081019061138991906131b7565b6113d55760405162461bcd60e51b815260206004820152601960248201527f43616c6c6572206973206e6f7420612063657274696669657200000000000000604482015260640161049e565b6113de83611ea0565b6113fa5760405162461bcd60e51b815260040161049e906131f6565b6002815110156114415760405162461bcd60e51b81526020600482015260126024820152715265717569726573206d756c74692d73696760701b604482015260640161049e565b805182511461149d5760405162461bcd60e51b815260206004820152602260248201527f436f6d6d656e747320616e64207369676e617475726573206d757374206d61746044820152610c6d60f31b606482015260840161049e565b6000815167ffffffffffffffff8111156114b9576114b9612969565b6040519080825280602002602001820160405280156114e2578160200160208202803683370190505b50905060005b82518110156119245760008482815181106115055761150561324e565b602002602001015160000151905060008583815181106115275761152761324e565b602002602001015160200151905060008782604051602001611553929190918252602082015260400190565b60408051601f198184030181529082905280516020918201207f19457468657265756d205369676e6564204d6573736167653a0a33320000000091830191909152603c820152605c016040516020818303038152906040528051906020012090506115d7818786815181106115ca576115ca61324e565b6020026020010151611db4565b8585815181106115e9576115e961324e565b60200260200101906001600160a01b031690816001600160a01b031681525050826001600160a01b03168585815181106116255761162561324e565b60200260200101516001600160a01b03161461168e5760405162461bcd60e51b815260206004820152602260248201527f5369676e617475726520646f6573206e6f74206d61746368206365727469666960448201526132b960f11b606482015260840161049e565b600754604080516369d0b51760e01b815290516001600160a01b03909216916391d148549183916369d0b517916004808201926020929091908290030181865afa1580156116e0573d6000803e3d6000fd5b505050506040513d601f19601f82011682018060405250810190611704919061319e565b8787815181106117165761171661324e565b60200260200101516040518363ffffffff1660e01b815260040161174d9291909182526001600160a01b0316602082015260400190565b602060405180830381865afa15801561176a573d6000803e3d6000fd5b505050506040513d601f19601f8201168201806040525081019061178e91906131b7565b6117ce5760405162461bcd60e51b815260206004820152601160248201527024b73b30b634b21031b2b93a34b334b2b960791b604482015260640161049e565b60005b84811015611871578581815181106117eb576117eb61324e565b60200260200101516001600160a01b031686868151811061180e5761180e61324e565b60200260200101516001600160a01b03160361185f5760405162461bcd60e51b815260206004820152601060248201526f223ab83634b1b0ba329039b4b3b732b960811b604482015260640161049e565b8061186981613160565b9150506117d1565b50600a60008981526020019081526020016000206040518060600160405280856001600160a01b031681526020014281526020016118ae85612051565b90528154600180820184556000938452602093849020835160039093020180546001600160a01b0319166001600160a01b0390931692909217825592820151928101929092556040810151909190600282019061190b908261308a565b505050505050808061191c90613160565b9150506114e8565b5060008481526009602052604090819020600401805460ff1916600117905551339085907f2d19605611c52f4be2cfdb84951e70a10fabc0e8da4cbb26c930512e3b54319e906119c79042906040808252602f908201527f4d756c7469706c65206365727469666965727320617070726f7665642077697460608201526e68206861736820636f6d6d656e747360881b6080820152602081019190915260a00190565b60405180910390a350505050565b60006001600160e01b031982166380ac58cd60e01b1480611a0657506001600160e01b03198216635b5e139f60e01b145b8061036b57506301ffc9a760e01b6001600160e01b031983161461036b565b611a2e81611ea0565b6105bf5760405162461bcd60e51b8152602060048201526018602482015277115490cdcc8c4e881a5b9d985b1a59081d1bdad95b88125160421b604482015260640161049e565b600081815260046020526040902080546001600160a01b0319166001600160a01b0384169081179091558190611aaa8261077f565b6001600160a01b03167f8c5be1e5ebec7d5bd14f71427d1e84f3dd0314c0f7b2291e5b200ac8c7c3b92560405160405180910390a45050565b600080611aef8361077f565b9050806001600160a01b0316846001600160a01b03161480611b3657506001600160a01b0380821660009081526005602090815260408083209388168352929052205460ff165b80611b5a5750836001600160a01b0316611b4f84610403565b6001600160a01b0316145b949350505050565b826001600160a01b0316611b758261077f565b6001600160a01b031614611b9b5760405162461bcd60e51b815260040161049e90613264565b6001600160a01b038216611bfd5760405162461bcd60e51b8152602060048201526024808201527f4552433732313a207472616e7366657220746f20746865207a65726f206164646044820152637265737360e01b606482015260840161049e565b826001600160a01b0316611c108261077f565b6001600160a01b031614611c365760405162461bcd60e51b815260040161049e90613264565b600081815260046020908152604080832080546001600160a01b03199081169091556001600160a01b0387811680865260038552838620805460001901905590871680865283862080546001019055868652600290945282852080549092168417909155905184937fddf252ad1be2c89b69c2b068fc378daa952ba7f163c4a11628f55a4df523b3ef91a4505050565b6000611cd18261077f565b9050611cdc8261077f565b600083815260046020908152604080832080546001600160a01b03199081169091556001600160a01b0385168085526003845282852080546000190190558785526002909352818420805490911690555192935084927fddf252ad1be2c89b69c2b068fc378daa952ba7f163c4a11628f55a4df523b3ef908390a45050565b600260065403611dad5760405162461bcd60e51b815260206004820152601f60248201527f5265656e7472616e637947756172643a207265656e7472616e742063616c6c00604482015260640161049e565b6002600655565b6000806000611dc385856121c3565b91509150611dd081612208565b509392505050565b610fe0828260405180602001604052806000815250612352565b80600b83604051611e039190612faa565b908152604051908190036020019020805491151560ff199092169190911790555050565b600081815260096020526040812090611e40828261278f565b6000600183018190556002830180546001600160a01b03191690556003830181905560048301805460ff19169055611e7c90600584019061278f565b6006820160009055505050565b6000818152600a602052604081206105bf916127c9565b6000908152600260205260409020546001600160a01b0316151590565b816001600160a01b0316836001600160a01b031603611f1e5760405162461bcd60e51b815260206004820152601960248201527f4552433732313a20617070726f766520746f2063616c6c657200000000000000604482015260640161049e565b6001600160a01b03838116600081815260056020908152604080832094871680845294825291829020805460ff191686151590811790915591519182527f17307eab39ab6107e8899845ad3d59bd9653f200f220920489ca2b5937696c31910160405180910390a3505050565b611f96848484611b62565b611fa284848484612385565b6107795760405162461bcd60e51b815260040161049e906132a9565b60606000611fcb83612486565b600101905060008167ffffffffffffffff811115611feb57611feb612969565b6040519080825280601f01601f191660200182016040528015612015576020820181803683370190505b5090508181016020015b600019016f181899199a1a9b1b9c1cb0b131b232b360811b600a86061a8153600a850494508461201f57509392505050565b6040805181815260608181018352916000919060208201818036833701905050905060005b60208110156121bc57600a60048583602081106120955761209561324e565b1a60f81b6001600160f81b031916901c60f81c60ff16106120b75760576120ba565b60305b60048583602081106120ce576120ce61324e565b1a60f81b6001600160f81b031916901c60f81c6120eb91906132fb565b60f81b826120fa836002613314565b8151811061210a5761210a61324e565b60200101906001600160f81b031916908160001a905350600a8482602081106121355761213561324e565b1a600f1610612145576057612148565b60305b84826020811061215a5761215a61324e565b6121699291600f911a166132fb565b60f81b82612178836002613314565b61218390600161332b565b815181106121935761219361324e565b60200101906001600160f81b031916908160001a905350806121b481613160565b915050612076565b5092915050565b60008082516041036121f95760208301516040840151606085015160001a6121ed8782858561255e565b94509450505050612201565b506000905060025b9250929050565b600081600481111561221c5761221c61333e565b036122245750565b60018160048111156122385761223861333e565b036122855760405162461bcd60e51b815260206004820152601860248201527f45434453413a20696e76616c6964207369676e61747572650000000000000000604482015260640161049e565b60028160048111156122995761229961333e565b036122e65760405162461bcd60e51b815260206004820152601f60248201527f45434453413a20696e76616c6964207369676e6174757265206c656e67746800604482015260640161049e565b60038160048111156122fa576122fa61333e565b036105bf5760405162461bcd60e51b815260206004820152602260248201527f45434453413a20696e76616c6964207369676e6174757265202773272076616c604482015261756560f01b606482015260840161049e565b61235c8383612622565b6123696000848484612385565b61053f5760405162461bcd60e51b815260040161049e906132a9565b60006001600160a01b0384163b1561247b57604051630a85bd0160e11b81526001600160a01b0385169063150b7a02906123c9903390899088908890600401613354565b6020604051808303816000875af1925050508015612404575060408051601f3d908101601f1916820190925261240191810190613391565b60015b612461573d808015612432576040519150601f19603f3d011682016040523d82523d6000602084013e612437565b606091505b5080516000036124595760405162461bcd60e51b815260040161049e906132a9565b805181602001fd5b6001600160e01b031916630a85bd0160e11b149050611b5a565b506001949350505050565b60008072184f03e93ff9f4daa797ed6e38ed64bf6a1f0160401b83106124c55772184f03e93ff9f4daa797ed6e38ed64bf6a1f0160401b830492506040015b6d04ee2d6d415b85acef810000000083106124f1576d04ee2d6d415b85acef8100000000830492506020015b662386f26fc10000831061250f57662386f26fc10000830492506010015b6305f5e1008310612527576305f5e100830492506008015b612710831061253b57612710830492506004015b6064831061254d576064830492506002015b600a831061036b5760010192915050565b6000807f7fffffffffffffffffffffffffffffff5d576e7357a4501ddfe92f46681b20a08311156125955750600090506003612619565b6040805160008082526020820180845289905260ff881692820192909252606081018690526080810185905260019060a0016020604051602081039080840390855afa1580156125e9573d6000803e3d6000fd5b5050604051601f1901519150506001600160a01b03811661261257600060019250925050612619565b9150600090505b94509492505050565b6001600160a01b0382166126785760405162461bcd60e51b815260206004820181905260248201527f4552433732313a206d696e7420746f20746865207a65726f2061646472657373604482015260640161049e565b61268181611ea0565b156126ce5760405162461bcd60e51b815260206004820152601c60248201527f4552433732313a20746f6b656e20616c7265616479206d696e74656400000000604482015260640161049e565b6126d781611ea0565b156127245760405162461bcd60e51b815260206004820152601c60248201527f4552433732313a20746f6b656e20616c7265616479206d696e74656400000000604482015260640161049e565b6001600160a01b038216600081815260036020908152604080832080546001019055848352600290915280822080546001600160a01b0319168417905551839291907fddf252ad1be2c89b69c2b068fc378daa952ba7f163c4a11628f55a4df523b3ef908290a45050565b50805461279b90612f23565b6000825580601f106127ab575050565b601f0160209004906000526020600020908101906105bf91906127ea565b50805460008255600302906000526020600020908101906105bf9190612803565b5b808211156127ff57600081556001016127eb565b5090565b808211156127ff5780546001600160a01b031916815560006001820181905561282f600283018261278f565b50600301612803565b6001600160e01b0319811681146105bf57600080fd5b60006020828403121561286057600080fd5b81356110c281612838565b60005b8381101561288657818101518382015260200161286e565b50506000910152565b600081518084526128a781602086016020860161286b565b601f01601f19169290920160200192915050565b6020815260006110c2602083018461288f565b6000602082840312156128e057600080fd5b5035919050565b80356001600160a01b03811681146128fe57600080fd5b919050565b6000806040838503121561291657600080fd5b61291f836128e7565b946020939093013593505050565b60008060006060848603121561294257600080fd5b61294b846128e7565b9250612959602085016128e7565b9150604084013590509250925092565b634e487b7160e01b600052604160045260246000fd5b6040805190810167ffffffffffffffff811182821017156129a2576129a2612969565b60405290565b604051601f8201601f1916810167ffffffffffffffff811182821017156129d1576129d1612969565b604052919050565b600082601f8301126129ea57600080fd5b813567ffffffffffffffff811115612a0457612a04612969565b612a17601f8201601f19166020016129a8565b818152846020838601011115612a2c57600080fd5b816020850160208301376000918101602001919091529392505050565b60008060008060808587031215612a5f57600080fd5b84359350602085013567ffffffffffffffff80821115612a7e57600080fd5b612a8a888389016129d9565b9450604087013593506060870135915080821115612aa757600080fd5b50612ab4878288016129d9565b91505092959194509250565b600060208284031215612ad257600080fd5b6110c2826128e7565b600080600080600060a08688031215612af357600080fd5b612afc866128e7565b9450602086013567ffffffffffffffff80821115612b1957600080fd5b612b2589838a016129d9565b9550604088013594506060880135915080821115612b4257600080fd5b612b4e89838a016129d9565b93506080880135915080821115612b6457600080fd5b50612b71888289016129d9565b9150509295509295909350565b60006020808301818452808551808352604092508286019150828160051b87010184880160005b83811015612bf857888303603f19018552815180516001600160a01b0316845287810151888501528601516060878501819052612be48186018361288f565b968901969450505090860190600101612ba5565b509098975050505050505050565b80151581146105bf57600080fd5b60008060408385031215612c2757600080fd5b612c30836128e7565b91506020830135612c4081612c06565b809150509250929050565b60008060008060808587031215612c6157600080fd5b612c6a856128e7565b9350612c78602086016128e7565b925060408501359150606085013567ffffffffffffffff811115612c9b57600080fd5b612ab4878288016129d9565b60008060408385031215612cba57600080fd5b50508035926020909101359150565b602081526000825160e06020840152612ce661010084018261288f565b90506020840151604084015260018060a01b036040850151166060840152606084015160808401526080840151151560a084015260a0840151601f198483030160c0850152612d35828261288f565b91505060c084015160e08401528091505092915050565b600067ffffffffffffffff821115612d6657612d66612969565b5060051b60200190565b600082601f830112612d8157600080fd5b81356020612d96612d9183612d4c565b6129a8565b82815260059290921b84018101918181019086841115612db557600080fd5b8286015b84811015612df557803567ffffffffffffffff811115612dd95760008081fd5b612de78986838b01016129d9565b845250918301918301612db9565b509695505050505050565b600080600060608486031215612e1557600080fd5b8335925060208085013567ffffffffffffffff80821115612e3557600080fd5b818701915087601f830112612e4957600080fd5b8135612e57612d9182612d4c565b81815260069190911b8301840190848101908a831115612e7657600080fd5b938501935b82851015612ec0576040858c031215612e945760008081fd5b612e9c61297f565b612ea5866128e7565b81528587013587820152825260409094019390850190612e7b565b965050506040870135925080831115612ed857600080fd5b5050612ee686828701612d70565b9150509250925092565b60008060408385031215612f0357600080fd5b612f0c836128e7565b9150612f1a602084016128e7565b90509250929050565b600181811c90821680612f3757607f821691505b602082108103612f5757634e487b7160e01b600052602260045260246000fd5b50919050565b6020808252602d908201527f4552433732313a2063616c6c6572206973206e6f7420746f6b656e206f776e6560408201526c1c881bdc88185c1c1c9bdd9959609a1b606082015260800190565b60008251612fbc81846020870161286b565b9190910192915050565b6000808354612fd481612f23565b60018281168015612fec576001811461300157613030565b60ff1984168752821515830287019450613030565b8760005260208060002060005b858110156130275781548a82015290840190820161300e565b50505082870194505b50929695505050505050565b601f82111561053f57600081815260208120601f850160051c810160208610156130635750805b601f850160051c820191505b818110156130825782815560010161306f565b505050505050565b815167ffffffffffffffff8111156130a4576130a4612969565b6130b8816130b28454612f23565b8461303c565b602080601f8311600181146130ed57600084156130d55750858301515b600019600386901b1c1916600185901b178555613082565b600085815260208120601f198616915b8281101561311c578886015182559484019460019091019084016130fd565b508582101561313a5787850151600019600388901b60f8161c191681555b5050505050600190811b01905550565b634e487b7160e01b600052601160045260246000fd5b6000600182016131725761317261314a565b5060010190565b60608152600061318c606083018661288f565b60208301949094525060400152919050565b6000602082840312156131b057600080fd5b5051919050565b6000602082840312156131c957600080fd5b81516110c281612c06565b6040815260006131e7604083018561288f565b90508260208301529392505050565b6020808252600f908201526e105cdcd95d081b9bdd08195e1a5cdd608a1b604082015260600190565b6000835161323181846020880161286b565b83519083019061324581836020880161286b565b01949350505050565b634e487b7160e01b600052603260045260246000fd5b60208082526025908201527f4552433732313a207472616e736665722066726f6d20696e636f72726563742060408201526437bbb732b960d91b606082015260800190565b60208082526032908201527f4552433732313a207472616e7366657220746f206e6f6e20455243373231526560408201527131b2b4bb32b91034b6b83632b6b2b73a32b960711b606082015260800190565b60ff818116838216019081111561036b5761036b61314a565b808202811582820484141761036b5761036b61314a565b8082018082111561036b5761036b61314a565b634e487b7160e01b600052602160045260246000fd5b6001600160a01b03858116825284166020820152604081018390526080606082018190526000906133879083018461288f565b9695505050505050565b6000602082840312156133a357600080fd5b81516110c28161283856fe5265676973746572286164647265737320746f2c6279746573333220636f6e74656e744861736829a2646970667358221220f787d9f9f7dcf2ff6581007798544347257cd283c1b117c6ea9508bb9648551164736f6c63430008130033",
  "immutableReferences": {},
  "source": "// SPDX-License-Identifier: MIT\r\npragma solidity ^0.8.19;\r\n\r\nimport \"@openzeppelin/contracts/token/ERC721/ERC721.sol\";\r\nimport \"@openzeppelin/contracts/token/ERC721/extensions/ERC721Burnable.sol\";\r\nimport \"@openzeppelin/contracts/utils/cryptography/ECDSA.sol\";\r\nimport \"@openzeppelin/contracts/security/ReentrancyGuard.sol\";\r\nimport \"./RBAC.sol\"; //  RBAC \r\n\r\n/**\r\n * @title DigitalAsset\r\n * @dev \r\n */\r\ncontract DigitalAsset is ERC721, ERC721Burnable, ReentrancyGuard {\r\n    using ECDSA for bytes32;\r\n\r\n    // RBAC \r\n    RBAC public rbac;\r\n\r\n    // \r\n    struct AssetMetadata {\r\n        string cid;                // IPFS\r\n        bytes32 contentHash;       // \r\n        address registrant;        // \r\n        uint256 registrationDate; // \r\n        bool isCertified;         // \r\n        string encryptedKey;      // \r\n        uint256 version;          // \r\n    }\r\n\r\n    // \r\n    struct Certification {\r\n        address certifier;        // \r\n        uint256 timestamp;        // \r\n        string comment;           // \r\n    }\r\n\r\n    // \r\n    struct CertifierComment {\r\n        address certifier;        // \r\n        string comment;           // \r\n    }\r\n\r\n    // \r\n    struct CertifierHashComment {\r\n        address certifier;        // \r\n        bytes32 commentHash;      // \r\n    }\r\n\r\n    // \r\n    uint256 private _tokenIdCounter; // Token ID \r\n    mapping(uint256 => AssetMetadata) private _metadata; // Token ID \r\n    mapping(uint256 => Certification[]) private _certificationHistory; // Token ID \r\n    mapping(string => bool) private _cidRegistry; // CID \r\n\r\n    // \r\n    event AssetRegistered(\r\n        uint256 indexed tokenId,\r\n        address indexed registrant,\r\n        string cid,\r\n        uint256 timestamp\r\n    );\r\n    event AssetCertified(\r\n        uint256 indexed tokenId,\r\n        address indexed certifier,\r\n        string comment,\r\n        uint256 timestamp\r\n    );\r\n    event MetadataUpdated(\r\n        uint256 indexed tokenId,\r\n        string newCid,\r\n        uint256 newVersion,\r\n        uint256 timestamp\r\n    );\r\n    event AssetBurned(\r\n        uint256 indexed tokenId,\r\n        address indexed burner,\r\n        uint256 timestamp\r\n    );\r\n\r\n    /**\r\n     * @dev \r\n     * @param rbacAddress RBAC\r\n     */\r\n    constructor(address rbacAddress) ERC721(\"EnterpriseDigitalAsset\", \"EDA\") {\r\n        require(rbacAddress != address(0), \"Invalid RBAC address\");\r\n        rbac = RBAC(rbacAddress);\r\n    }\r\n\r\n    /**\r\n     * @dev \r\n     */\r\n    modifier onlyRegistrar() {\r\n        require(\r\n            rbac.hasRole(rbac.REGISTRAR_ROLE(), msg.sender),\r\n            \"Caller is not a registrar\"\r\n        );\r\n        _;\r\n    }\r\n\r\n    /**\r\n     * @dev \r\n     */\r\n    modifier onlyCertifier() {\r\n        require(\r\n            rbac.hasRole(rbac.CERTIFIER_ROLE(), msg.sender),\r\n            \"Caller is not a certifier\"\r\n        );\r\n        _;\r\n    }\r\n\r\n    /**\r\n     * @dev \r\n     * @param to \r\n     * @param cid IPFS\r\n     * @param contentHash \r\n     * @param encryptedKey \r\n     * @param signature \r\n     */\r\n    function registerAsset(\r\n        address to,\r\n        string memory cid,\r\n        bytes32 contentHash,\r\n        string memory encryptedKey,\r\n        bytes memory signature\r\n    ) external nonReentrant onlyRegistrar returns (uint256) {\r\n        require(!_cidRegistry[cid], \"CID already registered\");\r\n\r\n        //  EIP-712 \r\n        bytes32 domainSeparator = keccak256(abi.encode(\r\n            keccak256(\"EIP712Domain(string name,string version,uint256 chainId,address verifyingContract)\"),\r\n            keccak256(bytes(\"DigitalAsset\")),\r\n            keccak256(bytes(\"1\")),\r\n            block.chainid,\r\n            address(this)\r\n        ));\r\n\r\n        bytes32 structHash = keccak256(abi.encode(\r\n            keccak256(bytes(\"Register(address to,bytes32 contentHash)\")),\r\n            to,\r\n            contentHash\r\n        ));\r\n\r\n        bytes32 messageHash = ECDSA.toTypedDataHash(domainSeparator, structHash);\r\n\r\n        // \r\n        address recovered = ECDSA.recover(messageHash, signature);\r\n        require(recovered == to, \"Invalid signature\");\r\n\r\n        //  Token ID  NFT\r\n        uint256 tokenId = _tokenIdCounter++;\r\n        _safeMint(to, tokenId);\r\n\r\n        // \r\n        _metadata[tokenId] = AssetMetadata({\r\n            cid: cid,\r\n            contentHash: contentHash,\r\n            registrant: to,\r\n            registrationDate: block.timestamp,\r\n            isCertified: false,\r\n            encryptedKey: encryptedKey,\r\n            version: 1\r\n        });\r\n\r\n        //  CID \r\n        _cidRegistry[cid] = true;\r\n\r\n        // \r\n        emit AssetRegistered(tokenId, to, cid, block.timestamp);\r\n        return tokenId;\r\n    }\r\n\r\n    /**\r\n     * @dev  - \r\n     * @param tokenId  ID\r\n     * @param certifierHashComments \r\n     * @param signatures \r\n     */\r\n    function certifyAssetWithHashComments(\r\n        uint256 tokenId,\r\n        CertifierHashComment[] memory certifierHashComments,\r\n        bytes[] memory signatures\r\n    ) external onlyCertifier {\r\n        require(_exists(tokenId), \"Asset not exist\");\r\n        require(signatures.length >= 2, \"Requires multi-sig\");\r\n        require(certifierHashComments.length == signatures.length, \"Comments and signatures must match\");\r\n\r\n        // \r\n        address[] memory signers = new address[](signatures.length);\r\n        for (uint i = 0; i < signatures.length; i++) {\r\n            address certifier = certifierHashComments[i].certifier;\r\n            bytes32 commentHash = certifierHashComments[i].commentHash;\r\n            \r\n            // \r\n            bytes32 messageHash = keccak256(\r\n                abi.encodePacked(\r\n                    \"\\x19Ethereum Signed Message:\\n32\",\r\n                    keccak256(abi.encodePacked(tokenId, commentHash))\r\n                )\r\n            );\r\n            \r\n            signers[i] = ECDSA.recover(messageHash, signatures[i]);\r\n            require(signers[i] == certifier, \"Signature does not match certifier\");\r\n            require(\r\n                rbac.hasRole(rbac.CERTIFIER_ROLE(), signers[i]),\r\n                \"Invalid certifier\"\r\n            );\r\n            \r\n            // \r\n            for (uint j = 0; j < i; j++) {\r\n                require(signers[i] != signers[j], \"Duplicate signer\");\r\n            }\r\n            \r\n            //  - \r\n            _certificationHistory[tokenId].push(Certification({\r\n                certifier: certifier,\r\n                timestamp: block.timestamp,\r\n                comment: toHexString(commentHash)\r\n            }));\r\n        }\r\n        \r\n        // \r\n        _metadata[tokenId].isCertified = true;\r\n        \r\n        // \r\n        emit AssetCertified(tokenId, msg.sender, \"Multiple certifiers approved with hash comments\", block.timestamp);\r\n    }\r\n    \r\n    /**\r\n     * @dev \r\n     * @param value \r\n     */\r\n    function toHexString(bytes32 value) internal pure returns (string memory) {\r\n        bytes memory buffer = new bytes(64);\r\n        for (uint256 i = 0; i < 32; i++) {\r\n            buffer[i*2] = bytes1(uint8(uint8(value[i] >> 4) + (uint8(value[i] >> 4) < 10 ? 48 : 87)));\r\n            buffer[i*2+1] = bytes1(uint8(uint8(value[i] & 0x0f) + (uint8(value[i] & 0x0f) < 10 ? 48 : 87)));\r\n        }\r\n        return string(buffer);\r\n    }\r\n\r\n    /**\r\n     * @dev \r\n     * @param tokenId  ID\r\n     * @param newCid  CID\r\n     * @param newHash \r\n     * @param newKey \r\n     */\r\n    function updateMetadata(\r\n        uint256 tokenId,\r\n        string memory newCid,\r\n        bytes32 newHash,\r\n        string memory newKey\r\n    ) external nonReentrant {\r\n        require(ownerOf(tokenId) == msg.sender, \"Not asset owner\"); // \r\n        require(!_cidRegistry[newCid], \"CID already exists\");       //  CID \r\n\r\n        // \r\n        AssetMetadata storage meta = _metadata[tokenId];\r\n        _cidRegistry[meta.cid] = false; //  CID\r\n        meta.cid = newCid;\r\n        meta.contentHash = newHash;\r\n        meta.encryptedKey = newKey;\r\n        meta.version++;\r\n        _cidRegistry[newCid] = true; //  CID \r\n\r\n        // \r\n        emit MetadataUpdated(tokenId, newCid, meta.version, block.timestamp);\r\n    }\r\n\r\n    /**\r\n     * @dev \r\n     * @param tokenId  ID\r\n     */\r\n    function getAssetMetadata(uint256 tokenId) \r\n        external \r\n        view \r\n        returns (AssetMetadata memory) \r\n    {\r\n        require(_exists(tokenId), \"Asset not exist\"); // \r\n        return _metadata[tokenId];\r\n    }\r\n\r\n    /**\r\n     * @dev \r\n     * @param tokenId  ID\r\n     */\r\n    function getCertificationHistory(uint256 tokenId)\r\n        external\r\n        view\r\n        returns (Certification[] memory)\r\n    {\r\n        require(_exists(tokenId), \"Asset not exist\"); // \r\n        return _certificationHistory[tokenId];\r\n    }\r\n\r\n    /**\r\n     * @dev \r\n     * @param tokenId  ID\r\n     * @param hash \r\n     */\r\n    function verifyIntegrity(uint256 tokenId, bytes32 hash) \r\n        external \r\n        view \r\n        returns (bool) \r\n    {\r\n        require(_exists(tokenId), \"Asset not exist\"); // \r\n        return _metadata[tokenId].contentHash == hash;\r\n    }\r\n\r\n    /**\r\n     * @dev \r\n     */\r\n    function supportsInterface(bytes4 interfaceId)\r\n        public\r\n        view\r\n        override(ERC721)\r\n        returns (bool)\r\n    {\r\n        return super.supportsInterface(interfaceId);\r\n    }\r\n\r\n    // \r\n    function _setCIDRegistry(string memory cid, bool value) internal {\r\n        _cidRegistry[cid] = value;\r\n    }\r\n\r\n    function _deleteMetadata(uint256 tokenId) internal {\r\n        delete _metadata[tokenId];\r\n    }\r\n\r\n    function _deleteCertificationHistory(uint256 tokenId) internal {\r\n        delete _certificationHistory[tokenId];\r\n    }\r\n\r\n    /**\r\n     * @dev  - \r\n     * @param tokenId ID\r\n     */\r\n    function burnAsset(uint256 tokenId) external {\r\n        require(_isApprovedOrOwner(_msgSender(), tokenId), \"Caller is not owner or approved\");\r\n        \r\n        // CID\r\n        string memory cid = _metadata[tokenId].cid;\r\n        \r\n        // CID\r\n        _setCIDRegistry(cid, false);\r\n        \r\n        // \r\n        _deleteMetadata(tokenId);\r\n        _deleteCertificationHistory(tokenId);\r\n        \r\n        // NFT (ERC721_burn)\r\n        _burn(tokenId);\r\n        \r\n        // \r\n        emit AssetBurned(tokenId, _msgSender(), block.timestamp);\r\n    }\r\n}",
  "sourcePath": "D:\\work\\2025BlockAsset\\digital-asset-system\\contracts\\DigitalAsset.sol",
  "compiler": {
    "name": "solc",
    "version": "0.8.19+commit.7dd6d404.Emscripten.clang"
  },
  "schemaVersion": "3.4.16",
  "updatedAt": "2025-03-31T06:08:21.280Z",
  "networkType": "ethereum",
  "devdoc": {
    "details": "",
    "events": {
      "Approval(address,address,uint256)": {
        "details": "Emitted when `owner` enables `approved` to manage the `tokenId` token."
      },
      "ApprovalForAll(address,address,bool)": {
        "details": "Emitted when `owner` enables or disables (`approved`) `operator` to manage all of its assets."
      },
      "Transfer(address,address,uint256)": {
        "details": "Emitted when `tokenId` token is transferred from `from` to `to`."
      }
    },
    "kind": "dev",
    "methods": {
      "approve(address,uint256)": {
        "details": "See {IERC721-approve}."
      },
      "balanceOf(address)": {
        "details": "See {IERC721-balanceOf}."
      },
      "burn(uint256)": {
        "details": "Burns `tokenId`. See {ERC721-_burn}. Requirements: - The caller must own `tokenId` or be an approved operator."
      },
      "burnAsset(uint256)": {
        "details": " - ",
        "params": {
          "tokenId": "ID"
        }
      },
      "certifyAssetWithHashComments(uint256,(address,bytes32)[],bytes[])": {
        "details": " - ",
        "params": {
          "certifierHashComments": "",
          "signatures": "",
          "tokenId": " ID"
        }
      },
      "constructor": {
        "details": "",
        "params": {
          "rbacAddress": "RBAC"
        }
      },
      "getApproved(uint256)": {
        "details": "See {IERC721-getApproved}."
      },
      "getAssetMetadata(uint256)": {
        "details": "",
        "params": {
          "tokenId": " ID"
        }
      },
      "getCertificationHistory(uint256)": {
        "details": "",
        "params": {
          "tokenId": " ID"
        }
      },
      "isApprovedForAll(address,address)": {
        "details": "See {IERC721-isApprovedForAll}."
      },
      "name()": {
        "details": "See {IERC721Metadata-name}."
      },
      "ownerOf(uint256)": {
        "details": "See {IERC721-ownerOf}."
      },
      "registerAsset(address,string,bytes32,string,bytes)": {
        "details": "",
        "params": {
          "cid": "IPFS",
          "contentHash": "",
          "encryptedKey": "",
          "signature": "",
          "to": ""
        }
      },
      "safeTransferFrom(address,address,uint256)": {
        "details": "See {IERC721-safeTransferFrom}."
      },
      "safeTransferFrom(address,address,uint256,bytes)": {
        "details": "See {IERC721-safeTransferFrom}."
      },
      "setApprovalForAll(address,bool)": {
        "details": "See {IERC721-setApprovalForAll}."
      },
      "supportsInterface(bytes4)": {
        "details": ""
      },
      "symbol()": {
        "details": "See {IERC721Metadata-symbol}."
      },
      "tokenURI(uint256)": {
        "details": "See {IERC721Metadata-tokenURI}."
      },
      "transferFrom(address,address,uint256)": {
        "details": "See {IERC721-transferFrom}."
      },
      "updateMetadata(uint256,string,bytes32,string)": {
        "details": "",
        "params": {
          "newCid": " CID",
          "newHash": "",
          "newKey": "",
          "tokenId": " ID"
        }
      },
      "verifyIntegrity(uint256,bytes32)": {
        "details": "",
        "params": {
          "hash": "",
          "tokenId": " ID"
        }
      }
    },
    "title": "DigitalAsset",
    "version": 1
  },
  "userdoc": {
    "kind": "user",
    "methods": {},
    "version": 1
  }
}