{
  "contractName": "DigitalAsset",
  "abi": [
    {
      "inputs": [
        {
          "internalType": "address",
          "name": "rbacAddress",
          "type": "address"
        }
      ],
      "stateMutability": "nonpayable",
      "type": "constructor"
    },
    {
      "inputs": [],
      "name": "InvalidShortString",
      "type": "error"
    },
    {
      "inputs": [
        {
          "internalType": "string",
          "name": "str",
          "type": "string"
        }
      ],
      "name": "StringTooLong",
      "type": "error"
    },
    {
      "anonymous": false,
      "inputs": [
        {
          "indexed": true,
          "internalType": "uint256",
          "name": "tokenId",
          "type": "uint256"
        }
      ],
      "name": "AllCertified",
      "type": "event"
    },
    {
      "anonymous": false,
      "inputs": [
        {
          "indexed": true,
          "internalType": "address",
          "name": "owner",
          "type": "address"
        },
        {
          "indexed": true,
          "internalType": "address",
          "name": "approved",
          "type": "address"
        },
        {
          "indexed": true,
          "internalType": "uint256",
          "name": "tokenId",
          "type": "uint256"
        }
      ],
      "name": "Approval",
      "type": "event"
    },
    {
      "anonymous": false,
      "inputs": [
        {
          "indexed": true,
          "internalType": "address",
          "name": "owner",
          "type": "address"
        },
        {
          "indexed": true,
          "internalType": "address",
          "name": "operator",
          "type": "address"
        },
        {
          "indexed": false,
          "internalType": "bool",
          "name": "approved",
          "type": "bool"
        }
      ],
      "name": "ApprovalForAll",
      "type": "event"
    },
    {
      "anonymous": false,
      "inputs": [
        {
          "indexed": true,
          "internalType": "uint256",
          "name": "tokenId",
          "type": "uint256"
        }
      ],
      "name": "AssetBurned",
      "type": "event"
    },
    {
      "anonymous": false,
      "inputs": [
        {
          "indexed": true,
          "internalType": "uint256",
          "name": "tokenId",
          "type": "uint256"
        },
        {
          "indexed": true,
          "internalType": "address",
          "name": "certifier",
          "type": "address"
        }
      ],
      "name": "AssetCertified",
      "type": "event"
    },
    {
      "anonymous": false,
      "inputs": [
        {
          "indexed": true,
          "internalType": "uint256",
          "name": "tokenId",
          "type": "uint256"
        },
        {
          "indexed": true,
          "internalType": "address",
          "name": "registrant",
          "type": "address"
        },
        {
          "indexed": false,
          "internalType": "string",
          "name": "cid",
          "type": "string"
        }
      ],
      "name": "AssetRegistered",
      "type": "event"
    },
    {
      "anonymous": false,
      "inputs": [
        {
          "indexed": true,
          "internalType": "uint256",
          "name": "tokenId",
          "type": "uint256"
        },
        {
          "indexed": false,
          "internalType": "address[]",
          "name": "certifiers",
          "type": "address[]"
        }
      ],
      "name": "CertifiersSet",
      "type": "event"
    },
    {
      "anonymous": false,
      "inputs": [],
      "name": "EIP712DomainChanged",
      "type": "event"
    },
    {
      "anonymous": false,
      "inputs": [
        {
          "indexed": true,
          "internalType": "uint256",
          "name": "tokenId",
          "type": "uint256"
        },
        {
          "indexed": false,
          "internalType": "string",
          "name": "newCid",
          "type": "string"
        }
      ],
      "name": "MetadataUpdated",
      "type": "event"
    },
    {
      "anonymous": false,
      "inputs": [
        {
          "indexed": true,
          "internalType": "address",
          "name": "from",
          "type": "address"
        },
        {
          "indexed": true,
          "internalType": "address",
          "name": "to",
          "type": "address"
        },
        {
          "indexed": true,
          "internalType": "uint256",
          "name": "tokenId",
          "type": "uint256"
        }
      ],
      "name": "Transfer",
      "type": "event"
    },
    {
      "inputs": [
        {
          "internalType": "address",
          "name": "to",
          "type": "address"
        },
        {
          "internalType": "uint256",
          "name": "tokenId",
          "type": "uint256"
        }
      ],
      "name": "approve",
      "outputs": [],
      "stateMutability": "nonpayable",
      "type": "function"
    },
    {
      "inputs": [
        {
          "internalType": "address",
          "name": "owner",
          "type": "address"
        }
      ],
      "name": "balanceOf",
      "outputs": [
        {
          "internalType": "uint256",
          "name": "",
          "type": "uint256"
        }
      ],
      "stateMutability": "view",
      "type": "function",
      "constant": true
    },
    {
      "inputs": [
        {
          "internalType": "uint256",
          "name": "tokenId",
          "type": "uint256"
        }
      ],
      "name": "burn",
      "outputs": [],
      "stateMutability": "nonpayable",
      "type": "function"
    },
    {
      "inputs": [],
      "name": "eip712Domain",
      "outputs": [
        {
          "internalType": "bytes1",
          "name": "fields",
          "type": "bytes1"
        },
        {
          "internalType": "string",
          "name": "name",
          "type": "string"
        },
        {
          "internalType": "string",
          "name": "version",
          "type": "string"
        },
        {
          "internalType": "uint256",
          "name": "chainId",
          "type": "uint256"
        },
        {
          "internalType": "address",
          "name": "verifyingContract",
          "type": "address"
        },
        {
          "internalType": "bytes32",
          "name": "salt",
          "type": "bytes32"
        },
        {
          "internalType": "uint256[]",
          "name": "extensions",
          "type": "uint256[]"
        }
      ],
      "stateMutability": "view",
      "type": "function",
      "constant": true
    },
    {
      "inputs": [
        {
          "internalType": "uint256",
          "name": "tokenId",
          "type": "uint256"
        }
      ],
      "name": "getApproved",
      "outputs": [
        {
          "internalType": "address",
          "name": "",
          "type": "address"
        }
      ],
      "stateMutability": "view",
      "type": "function",
      "constant": true
    },
    {
      "inputs": [
        {
          "internalType": "address",
          "name": "owner",
          "type": "address"
        },
        {
          "internalType": "address",
          "name": "operator",
          "type": "address"
        }
      ],
      "name": "isApprovedForAll",
      "outputs": [
        {
          "internalType": "bool",
          "name": "",
          "type": "bool"
        }
      ],
      "stateMutability": "view",
      "type": "function",
      "constant": true
    },
    {
      "inputs": [],
      "name": "name",
      "outputs": [
        {
          "internalType": "string",
          "name": "",
          "type": "string"
        }
      ],
      "stateMutability": "view",
      "type": "function",
      "constant": true
    },
    {
      "inputs": [
        {
          "internalType": "address",
          "name": "",
          "type": "address"
        }
      ],
      "name": "nonces",
      "outputs": [
        {
          "internalType": "uint256",
          "name": "",
          "type": "uint256"
        }
      ],
      "stateMutability": "view",
      "type": "function",
      "constant": true
    },
    {
      "inputs": [
        {
          "internalType": "uint256",
          "name": "tokenId",
          "type": "uint256"
        }
      ],
      "name": "ownerOf",
      "outputs": [
        {
          "internalType": "address",
          "name": "",
          "type": "address"
        }
      ],
      "stateMutability": "view",
      "type": "function",
      "constant": true
    },
    {
      "inputs": [],
      "name": "rbac",
      "outputs": [
        {
          "internalType": "contract RBAC",
          "name": "",
          "type": "address"
        }
      ],
      "stateMutability": "view",
      "type": "function",
      "constant": true
    },
    {
      "inputs": [
        {
          "internalType": "address",
          "name": "from",
          "type": "address"
        },
        {
          "internalType": "address",
          "name": "to",
          "type": "address"
        },
        {
          "internalType": "uint256",
          "name": "tokenId",
          "type": "uint256"
        }
      ],
      "name": "safeTransferFrom",
      "outputs": [],
      "stateMutability": "nonpayable",
      "type": "function"
    },
    {
      "inputs": [
        {
          "internalType": "address",
          "name": "from",
          "type": "address"
        },
        {
          "internalType": "address",
          "name": "to",
          "type": "address"
        },
        {
          "internalType": "uint256",
          "name": "tokenId",
          "type": "uint256"
        },
        {
          "internalType": "bytes",
          "name": "data",
          "type": "bytes"
        }
      ],
      "name": "safeTransferFrom",
      "outputs": [],
      "stateMutability": "nonpayable",
      "type": "function"
    },
    {
      "inputs": [
        {
          "internalType": "address",
          "name": "operator",
          "type": "address"
        },
        {
          "internalType": "bool",
          "name": "approved",
          "type": "bool"
        }
      ],
      "name": "setApprovalForAll",
      "outputs": [],
      "stateMutability": "nonpayable",
      "type": "function"
    },
    {
      "inputs": [
        {
          "internalType": "bytes4",
          "name": "interfaceId",
          "type": "bytes4"
        }
      ],
      "name": "supportsInterface",
      "outputs": [
        {
          "internalType": "bool",
          "name": "",
          "type": "bool"
        }
      ],
      "stateMutability": "view",
      "type": "function",
      "constant": true
    },
    {
      "inputs": [],
      "name": "symbol",
      "outputs": [
        {
          "internalType": "string",
          "name": "",
          "type": "string"
        }
      ],
      "stateMutability": "view",
      "type": "function",
      "constant": true
    },
    {
      "inputs": [
        {
          "internalType": "uint256",
          "name": "tokenId",
          "type": "uint256"
        }
      ],
      "name": "tokenURI",
      "outputs": [
        {
          "internalType": "string",
          "name": "",
          "type": "string"
        }
      ],
      "stateMutability": "view",
      "type": "function",
      "constant": true
    },
    {
      "inputs": [
        {
          "internalType": "address",
          "name": "from",
          "type": "address"
        },
        {
          "internalType": "address",
          "name": "to",
          "type": "address"
        },
        {
          "internalType": "uint256",
          "name": "tokenId",
          "type": "uint256"
        }
      ],
      "name": "transferFrom",
      "outputs": [],
      "stateMutability": "nonpayable",
      "type": "function"
    },
    {
      "inputs": [
        {
          "internalType": "address",
          "name": "to",
          "type": "address"
        },
        {
          "internalType": "string",
          "name": "cid",
          "type": "string"
        },
        {
          "internalType": "bytes32",
          "name": "contentHash",
          "type": "bytes32"
        },
        {
          "internalType": "bytes",
          "name": "signature",
          "type": "bytes"
        }
      ],
      "name": "registerAsset",
      "outputs": [
        {
          "internalType": "uint256",
          "name": "",
          "type": "uint256"
        }
      ],
      "stateMutability": "nonpayable",
      "type": "function"
    },
    {
      "inputs": [
        {
          "internalType": "uint256",
          "name": "tokenId",
          "type": "uint256"
        },
        {
          "internalType": "address[]",
          "name": "certifiers",
          "type": "address[]"
        },
        {
          "internalType": "bytes",
          "name": "signature",
          "type": "bytes"
        }
      ],
      "name": "setCertifiers",
      "outputs": [],
      "stateMutability": "nonpayable",
      "type": "function"
    },
    {
      "inputs": [
        {
          "internalType": "uint256",
          "name": "tokenId",
          "type": "uint256"
        },
        {
          "internalType": "string",
          "name": "comment",
          "type": "string"
        },
        {
          "internalType": "bytes",
          "name": "signature",
          "type": "bytes"
        }
      ],
      "name": "certifyAsset",
      "outputs": [],
      "stateMutability": "nonpayable",
      "type": "function"
    },
    {
      "inputs": [
        {
          "internalType": "uint256",
          "name": "tokenId",
          "type": "uint256"
        },
        {
          "internalType": "string",
          "name": "newCid",
          "type": "string"
        },
        {
          "internalType": "bytes32",
          "name": "newHash",
          "type": "bytes32"
        },
        {
          "internalType": "bytes",
          "name": "signature",
          "type": "bytes"
        }
      ],
      "name": "updateMetadata",
      "outputs": [],
      "stateMutability": "nonpayable",
      "type": "function"
    },
    {
      "inputs": [
        {
          "internalType": "uint256",
          "name": "tokenId",
          "type": "uint256"
        },
        {
          "internalType": "bytes",
          "name": "signature",
          "type": "bytes"
        }
      ],
      "name": "burnAsset",
      "outputs": [],
      "stateMutability": "nonpayable",
      "type": "function"
    },
    {
      "inputs": [
        {
          "internalType": "uint256",
          "name": "tokenId",
          "type": "uint256"
        }
      ],
      "name": "getMetadata",
      "outputs": [
        {
          "components": [
            {
              "internalType": "string",
              "name": "cid",
              "type": "string"
            },
            {
              "internalType": "bytes32",
              "name": "contentHash",
              "type": "bytes32"
            },
            {
              "internalType": "uint256",
              "name": "registrationDate",
              "type": "uint256"
            },
            {
              "internalType": "uint256",
              "name": "version",
              "type": "uint256"
            },
            {
              "internalType": "bool",
              "name": "isCertified",
              "type": "bool"
            },
            {
              "internalType": "address[]",
              "name": "pendingCertifiers",
              "type": "address[]"
            }
          ],
          "internalType": "struct DigitalAsset.AssetMetadataView",
          "name": "",
          "type": "tuple"
        }
      ],
      "stateMutability": "view",
      "type": "function",
      "constant": true
    },
    {
      "inputs": [
        {
          "internalType": "uint256",
          "name": "tokenId",
          "type": "uint256"
        }
      ],
      "name": "getCertifications",
      "outputs": [
        {
          "components": [
            {
              "internalType": "address",
              "name": "certifier",
              "type": "address"
            },
            {
              "internalType": "uint256",
              "name": "timestamp",
              "type": "uint256"
            },
            {
              "internalType": "string",
              "name": "comment",
              "type": "string"
            }
          ],
          "internalType": "struct DigitalAsset.Certification[]",
          "name": "",
          "type": "tuple[]"
        }
      ],
      "stateMutability": "view",
      "type": "function",
      "constant": true
    },
    {
      "inputs": [
        {
          "internalType": "uint256",
          "name": "tokenId",
          "type": "uint256"
        }
      ],
      "name": "getPendingCertifiers",
      "outputs": [
        {
          "internalType": "address[]",
          "name": "",
          "type": "address[]"
        }
      ],
      "stateMutability": "view",
      "type": "function",
      "constant": true
    },
    {
      "inputs": [
        {
          "internalType": "uint256",
          "name": "tokenId",
          "type": "uint256"
        },
        {
          "internalType": "address",
          "name": "certifier",
          "type": "address"
        }
      ],
      "name": "hasCertified",
      "outputs": [
        {
          "internalType": "bool",
          "name": "",
          "type": "bool"
        }
      ],
      "stateMutability": "view",
      "type": "function",
      "constant": true
    }
  ],
  "bytecode": "0x6101806040523480156200001257600080fd5b5060405162003c6438038062003c6483398101604081905262000035916200025d565b604080518082018252600c8082526b111a59da5d185b105cdcd95d60a21b60208084018290528451808601865260018152603160f81b81830152855180870187529384528382019290925284518086019095526002855261444160f01b9085015291926000620000a6838262000334565b506001620000b5828262000334565b5050600160065550620000ca826007620001e1565b61012052620000db816008620001e1565b61014052815160208084019190912060e052815190820120610100524660a0526200016960e05161010051604080517f8b73c3c69bb8fe3d512ecc4cf759cc79239f7b179b0ffacaa9a75d522b39400f60208201529081019290925260608201524660808201523060a082015260009060c00160405160208183030381529060405280519060200120905090565b60805250503060c0526001600160a01b038116620001ce5760405162461bcd60e51b815260206004820152601460248201527f496e76616c69642052424143206164647265737300000000000000000000000060448201526064015b60405180910390fd5b6001600160a01b03166101605262000475565b60006020835110156200020157620001f9836200021a565b905062000214565b816200020e848262000334565b5060ff90505b92915050565b600080829050601f8151111562000248578260405163305a27a960e01b8152600401620001c5919062000400565b8051620002558262000450565b179392505050565b6000602082840312156200027057600080fd5b81516001600160a01b03811681146200028857600080fd5b9392505050565b634e487b7160e01b600052604160045260246000fd5b600181811c90821680620002ba57607f821691505b602082108103620002db57634e487b7160e01b600052602260045260246000fd5b50919050565b601f8211156200032f57600081815260208120601f850160051c810160208610156200030a5750805b601f850160051c820191505b818110156200032b5782815560010162000316565b5050505b505050565b81516001600160401b038111156200035057620003506200028f565b6200036881620003618454620002a5565b84620002e1565b602080601f831160018114620003a05760008415620003875750858301515b600019600386901b1c1916600185901b1785556200032b565b600085815260208120601f198616915b82811015620003d157888601518255948401946001909101908401620003b0565b5085821015620003f05787850151600019600388901b60f8161c191681555b5050505050600190811b01905550565b600060208083528351808285015260005b818110156200042f5785810183015185820160400152820162000411565b506000604082860101526040601f19601f8301168501019250505092915050565b80516020808301519190811015620002db5760001960209190910360031b1b16919050565b60805160a05160c05160e05161010051610120516101405161016051613774620004f060003960008181610364015281816107fe01528181610af00152611ba901526000611200015260006111d5015260006124e5015260006124bd01526000612418015260006124420152600061246c01526137746000f3fe608060405234801561001057600080fd5b506004361061018e5760003560e01c806370a08231116100de578063a8ecc7f111610097578063c87b56dd11610071578063c87b56dd146103ac578063cb3a4171146103bf578063e9098026146103d2578063e985e9c5146103f257600080fd5b8063a8ecc7f11461035f578063adb94f5314610386578063b88d4fde1461039957600080fd5b806370a08231146102d65780637ecebe00146102e957806384b0196e1461030957806395d89b4114610324578063a22cb4651461032c578063a574cea41461033f57600080fd5b806323b872dd1161014b5780635410f982116101255780635410f9821461028a5780635932e1331461029d578063605a1934146102b05780636352211e146102c357600080fd5b806323b872dd1461025157806342842e0e1461026457806342966c681461027757600080fd5b806301ffc9a71461019357806306fdde03146101bb578063081812fc146101d0578063095ea7b3146101fb5780630daf3af21461021057806314086b4c14610230575b600080fd5b6101a66101a1366004612ab4565b61042e565b60405190151581526020015b60405180910390f35b6101c3610480565b6040516101b29190612b21565b6101e36101de366004612b34565b610512565b6040516001600160a01b0390911681526020016101b2565b61020e610209366004612b69565b610539565b005b61022361021e366004612b34565b610653565b6040516101b29190612b93565b61024361023e366004612c22565b6106e7565b6040519081526020016101b2565b61020e61025f366004612cac565b6109b3565b61020e610272366004612cac565b6109e5565b61020e610285366004612b34565b610a00565b61020e610298366004612ce8565b610a31565b61020e6102ab366004612d62565b610e8d565b6101a66102be366004612def565b61108a565b6101e36102d1366004612b34565b6110e1565b6102436102e4366004612e1b565b611141565b6102436102f7366004612e1b565b600d6020526000908152604090205481565b6103116111c7565b6040516101b29796959493929190612e36565b6101c3611250565b61020e61033a366004612eda565b61125f565b61035261034d366004612b34565b61126e565b6040516101b29190612f11565b6101e37f000000000000000000000000000000000000000000000000000000000000000081565b61020e610394366004612fb2565b61141e565b61020e6103a7366004613000565b61166f565b6101c36103ba366004612b34565b6116a7565b61020e6103cd3660046130dc565b61171b565b6103e56103e0366004612b34565b6118bb565b6040516101b29190613128565b6101a66104003660046131b0565b6001600160a01b03918216600090815260056020908152604080832093909416825291909152205460ff1690565b60006001600160e01b031982166380ac58cd60e01b148061045f57506001600160e01b03198216635b5e139f60e01b145b8061047a57506301ffc9a760e01b6001600160e01b03198316145b92915050565b60606000805461048f906131da565b80601f01602080910402602001604051908101604052809291908181526020018280546104bb906131da565b80156105085780601f106104dd57610100808354040283529160200191610508565b820191906000526020600020905b8154815290600101906020018083116104eb57829003601f168201915b5050505050905090565b600061051d826119fa565b506000908152600460205260409020546001600160a01b031690565b6000610544826110e1565b9050806001600160a01b0316836001600160a01b0316036105b65760405162461bcd60e51b815260206004820152602160248201527f4552433732313a20617070726f76616c20746f2063757272656e74206f776e656044820152603960f91b60648201526084015b60405180910390fd5b336001600160a01b03821614806105d257506105d28133610400565b6106445760405162461bcd60e51b815260206004820152603d60248201527f4552433732313a20617070726f76652063616c6c6572206973206e6f7420746f60448201527f6b656e206f776e6572206f7220617070726f76656420666f7220616c6c00000060648201526084016105ad565b61064e8383611a4a565b505050565b606061065e82611ab8565b61067a5760405162461bcd60e51b81526004016105ad90613214565b6000828152600a6020908152604091829020600501805483518184028101840190945280845290918301828280156106db57602002820191906000526020600020905b81546001600160a01b031681526001909101906020018083116106bd575b50505050509050919050565b60006106f1611ad5565b600c868660405161070392919061323b565b9081526040519081900360200190205460ff16156107505760405162461bcd60e51b815260206004820152600a6024820152694349442065786973747360b01b60448201526064016105ad565b6001600160a01b0387166000908152600d602052604090819020549051610883907f4260d58707dea53040fa393ac510e72a0c76f15ab9eb89cb63bd8b219ebbc1ad908a906107a2908b908b9061323b565b6040519081900381206107e49392918a9087906020019485526001600160a01b0393909316602085015260408401919091526060830152608082015260a00190565b6040516020818303038152906040528051906020012085857f00000000000000000000000000000000000000000000000000000000000000006001600160a01b031663f68e95536040518163ffffffff1660e01b8152600401602060405180830381865afa15801561085a573d6000803e3d6000fd5b505050506040513d601f19601f8201168201806040525081019061087e919061324b565b611b2e565b60098054600091826108948361327a565b9190505590506108a48982611c9e565b6000818152600a60205260409020806108be898b836132d9565b506001818101889055426002830155600382015560048101805460ff1916905560408051600081526020810191829052516108fd916005840191612923565b506001600c8a8a60405161091292919061323b565b908152604051908190036020018120805492151560ff19909316929092179091556001600160a01b038b169083907f522902797ecf25adb7fe6834ed0d749090896244923f1c3e0b7ca938687ea08f9061096f908d908d90613399565b60405180910390a36109828360016133c8565b6001600160a01b038b166000908152600d6020526040902055509150506109a96001600655565b9695505050505050565b6109be335b82611cb8565b6109da5760405162461bcd60e51b81526004016105ad906133db565b61064e838383611d37565b61064e8383836040518060200160405280600081525061166f565b610a09336109b8565b610a255760405162461bcd60e51b81526004016105ad906133db565b610a2e81611e9b565b50565b610a39611ad5565b610a4285611ab8565b610a5e5760405162461bcd60e51b81526004016105ad90613214565b336000908152600d602052604090819020549051610b4c907f83de15a940c014217e5e6d947b2069016ff3db9b20ab909ee11daa3198d86958908890610aa7908990899061323b565b604051908190038120610ad6939291869060200193845260208401929092526040830152606082015260800190565b6040516020818303038152906040528051906020012084847f00000000000000000000000000000000000000000000000000000000000000006001600160a01b03166369d0b5176040518163ffffffff1660e01b8152600401602060405180830381865afa15801561085a573d6000803e3d6000fd5b6000868152600a602052604090206005810154610ba35760405162461bcd60e51b81526020600482015260156024820152744e6f2070656e64696e67206365727469666965727360581b60448201526064016105ad565b33600090815260068201602052604090205460ff1615610bf95760405162461bcd60e51b8152602060048201526011602482015270105b1c9958591e4818d95c9d1a599a5959607a1b60448201526064016105ad565b6000805b6005830154811015610c5d57336001600160a01b0316836005018281548110610c2857610c28613428565b6000918252602090912001546001600160a01b031603610c4b5760019150610c5d565b80610c558161327a565b915050610bfd565b5080610cab5760405162461bcd60e51b815260206004820152601760248201527f4e6f7420612070656e64696e672063657274696669657200000000000000000060448201526064016105ad565b3360008181526006840160209081526040808320805460ff191660011790558b8352600b825291829020825160608101845293845242848301528251601f8b0183900483028101830184528a81529093928301918b908b90819084018382808284376000920182905250939094525050835460018082018655948252602091829020845160039092020180546001600160a01b0319166001600160a01b0390921691909117815590830151938101939093555060408101519091906002820190610d75908261343e565b5060019150600090505b6005840154811015610ded57836006016000856005018381548110610da657610da6613428565b60009182526020808320909101546001600160a01b0316835282019290925260400190205460ff16610ddb5760009150610ded565b80610de58161327a565b915050610d7f565b508015610e2f5760048301805460ff1916600117905560405189907f97e9904b465a16c0109b057283670d6604a4b922ad2118b21d3e57e0ac7b07fb90600090a25b610e3a8460016133c8565b336000818152600d602052604080822093909355915190918b917f918964200d1db051ccc3615a6304633e7319e7fdb9fcfc49dc2edc28492a5dd59190a350505050610e866001600655565b5050505050565b610e95611ad5565b33610e9f866110e1565b6001600160a01b031614610ee15760405162461bcd60e51b81526020600482015260096024820152682737ba1037bbb732b960b91b60448201526064016105ad565b336000908152600d6020908152604091829020549151610f86917f97564ab60455c81f6534b3c8e747c873d73e1d6718706864111bb7cfc3a661c4918991610f2d918a918a91016134fe565b60408051601f1981840301815282825280516020918201209083019490945281019190915260608101919091526080810183905260a0015b6040516020818303038152906040528051906020012084846000801b611b2e565b6000868152600a60205260409020610fa2600582018787612988565b5060005b85811015611017576000826006016000898985818110610fc857610fc8613428565b9050602002016020810190610fdd9190612e1b565b6001600160a01b031681526020810191909152604001600020805460ff19169115159190911790558061100f8161327a565b915050610fa6565b5060048101805460ff1916905561102f8260016133c8565b336000908152600d602052604090819020919091555187907fcb91c8cb883cfe7799d6199c4c6bbb14705ef74cb5dcf57c5e3ef16798106a5190611076908990899061353e565b60405180910390a25050610e866001600655565b600061109583611ab8565b6110b15760405162461bcd60e51b81526004016105ad90613214565b506000828152600a602090815260408083206001600160a01b038516845260060190915290205460ff1692915050565b6000818152600260205260408120546001600160a01b03168061047a5760405162461bcd60e51b8152602060048201526018602482015277115490cdcc8c4e881a5b9d985b1a59081d1bdad95b88125160421b60448201526064016105ad565b60006001600160a01b0382166111ab5760405162461bcd60e51b815260206004820152602960248201527f4552433732313a2061646472657373207a65726f206973206e6f7420612076616044820152683634b21037bbb732b960b91b60648201526084016105ad565b506001600160a01b031660009081526003602052604090205490565b6000606080828080836111fb7f00000000000000000000000000000000000000000000000000000000000000006007611f30565b6112267f00000000000000000000000000000000000000000000000000000000000000006008611f30565b60408051600080825260208201909252600f60f81b9b939a50919850469750309650945092509050565b60606001805461048f906131da565b61126a338383611fdb565b5050565b6112ac6040518060c0016040528060608152602001600080191681526020016000815260200160008152602001600015158152602001606081525090565b6112b582611ab8565b6112d15760405162461bcd60e51b81526004016105ad90613214565b6000828152600a602052604090819020815160c081019092528054909190819083906112fc906131da565b80601f0160208091040260200160405190810160405280929190818152602001828054611328906131da565b80156113755780601f1061134a57610100808354040283529160200191611375565b820191906000526020600020905b81548152906001019060200180831161135857829003601f168201915b505050505081526020018260010154815260200182600201548152602001826003015481526020018260040160009054906101000a900460ff16151581526020018260050180548060200260200160405190810160405280929190818152602001828054801561140e57602002820191906000526020600020905b81546001600160a01b031681526001909101906020018083116113f0575b5050505050815250915050919050565b611426611ad5565b33611430876110e1565b6001600160a01b0316146114725760405162461bcd60e51b81526020600482015260096024820152682737ba1037bbb732b960b91b60448201526064016105ad565b600c858560405161148492919061323b565b9081526040519081900360200190205460ff16156114d15760405162461bcd60e51b815260206004820152600a6024820152694349442065786973747360b01b60448201526064016105ad565b336000908152600d602052604090819020549051611550907f45a1a5abf66d42aa8faab61450264544b1e02a27fa150c4ed0c608157ccb8ee290899061151a908a908a9061323b565b60408051918290038220602083019490945281019190915260608101919091526080810186905260a0810183905260c001610f65565b6000878152600a60205260408082209051600c9161156d9161357f565b9081526040805160209281900383019020805460ff1916931515939093179092556000898152600a909152206115a48688836132d9565b506000878152600a60205260408120600181018690556003018054916115c98361327a565b91905055506001600c87876040516115e292919061323b565b908152604051908190036020019020805491151560ff1990921691909117905561160d8160016133c8565b336000908152600d602052604090819020919091555187907f459157ba24c7ab9878b165ef465fa6ae2ab42bcd8445f576be378768b0c47309906116549089908990613399565b60405180910390a2506116676001600655565b505050505050565b6116793383611cb8565b6116955760405162461bcd60e51b81526004016105ad906133db565b6116a1848484846120a9565b50505050565b60606116b2826119fa565b60006116c960408051602081019091526000815290565b905060008151116116e95760405180602001604052806000815250611714565b806116f3846120dc565b6040516020016117049291906135f5565b6040516020818303038152906040525b9392505050565b611723611ad5565b61172d3384611cb8565b61176a5760405162461bcd60e51b815260206004820152600e60248201526d139bdd08185d5d1a1bdc9a5e995960921b60448201526064016105ad565b336000908152600d60209081526040918290205482517ff5f9e7cf988b2d996cdc7f86640081eb71866c3d2e3c7b8d4f164147552b876792810192909252918101859052606081018290526117c190608001610f65565b6000848152600a60205260408082209051600c916117de9161357f565b9081526040805160209281900383019020805460ff1916931515939093179092556000868152600a9091529081209061181782826129db565b600060018301819055600283018190556003830181905560048301805460ff19169055611848906005840190612a15565b50506000848152600b6020526040812061186191612a33565b61186a84611e9b565b6118758160016133c8565b336000908152600d602052604080822092909255905185917f23c8e7ecf38ad1e9e1639dfb4b258fc9942ae76b580d2ba43c4a73b9291812c991a25061064e6001600655565b60606118c682611ab8565b6118e25760405162461bcd60e51b81526004016105ad90613214565b6000828152600b6020908152604080832080548251818502810185019093528083529193909284015b828210156119ef576000848152602090819020604080516060810182526003860290920180546001600160a01b031683526001810154938301939093526002830180549293929184019161195e906131da565b80601f016020809104026020016040519081016040528092919081815260200182805461198a906131da565b80156119d75780601f106119ac576101008083540402835291602001916119d7565b820191906000526020600020905b8154815290600101906020018083116119ba57829003601f168201915b5050505050815250508152602001906001019061190b565b505050509050919050565b611a0381611ab8565b610a2e5760405162461bcd60e51b8152602060048201526018602482015277115490cdcc8c4e881a5b9d985b1a59081d1bdad95b88125160421b60448201526064016105ad565b600081815260046020526040902080546001600160a01b0319166001600160a01b0384169081179091558190611a7f826110e1565b6001600160a01b03167f8c5be1e5ebec7d5bd14f71427d1e84f3dd0314c0f7b2291e5b200ac8c7c3b92560405160405180910390a45050565b6000908152600260205260409020546001600160a01b0316151590565b600260065403611b275760405162461bcd60e51b815260206004820152601f60248201527f5265656e7472616e637947756172643a207265656e7472616e742063616c6c0060448201526064016105ad565b6002600655565b6000611b7b84848080601f016020809104026020016040519081016040528093929190818152602001838380828437600092019190915250611b75925089915061216f9050565b9061219c565b90508115611c5457604051632474521560e21b8152600481018390526001600160a01b0382811660248301527f000000000000000000000000000000000000000000000000000000000000000016906391d1485490604401602060405180830381865afa158015611bf0573d6000803e3d6000fd5b505050506040513d601f19601f82011682018060405250810190611c149190613624565b611c545760405162461bcd60e51b8152602060048201526011602482015270556e617574686f72697a656420726f6c6560781b60448201526064016105ad565b6001600160a01b0381163314610e865760405162461bcd60e51b815260206004820152600f60248201526e0a6d2cedccae440dad2e6dac2e8c6d608b1b60448201526064016105ad565b61126a8282604051806020016040528060008152506121c0565b600080611cc4836110e1565b9050806001600160a01b0316846001600160a01b03161480611d0b57506001600160a01b0380821660009081526005602090815260408083209388168352929052205460ff165b80611d2f5750836001600160a01b0316611d2484610512565b6001600160a01b0316145b949350505050565b826001600160a01b0316611d4a826110e1565b6001600160a01b031614611d705760405162461bcd60e51b81526004016105ad90613641565b6001600160a01b038216611dd25760405162461bcd60e51b8152602060048201526024808201527f4552433732313a207472616e7366657220746f20746865207a65726f206164646044820152637265737360e01b60648201526084016105ad565b826001600160a01b0316611de5826110e1565b6001600160a01b031614611e0b5760405162461bcd60e51b81526004016105ad90613641565b600081815260046020908152604080832080546001600160a01b03199081169091556001600160a01b0387811680865260038552838620805460001901905590871680865283862080546001019055868652600290945282852080549092168417909155905184937fddf252ad1be2c89b69c2b068fc378daa952ba7f163c4a11628f55a4df523b3ef91a4505050565b6000611ea6826110e1565b9050611eb1826110e1565b600083815260046020908152604080832080546001600160a01b03199081169091556001600160a01b0385168085526003845282852080546000190190558785526002909352818420805490911690555192935084927fddf252ad1be2c89b69c2b068fc378daa952ba7f163c4a11628f55a4df523b3ef908390a45050565b606060ff8314611f4a57611f43836121f3565b905061047a565b818054611f56906131da565b80601f0160208091040260200160405190810160405280929190818152602001828054611f82906131da565b8015611fcf5780601f10611fa457610100808354040283529160200191611fcf565b820191906000526020600020905b815481529060010190602001808311611fb257829003601f168201915b5050505050905061047a565b816001600160a01b0316836001600160a01b03160361203c5760405162461bcd60e51b815260206004820152601960248201527f4552433732313a20617070726f766520746f2063616c6c65720000000000000060448201526064016105ad565b6001600160a01b03838116600081815260056020908152604080832094871680845294825291829020805460ff191686151590811790915591519182527f17307eab39ab6107e8899845ad3d59bd9653f200f220920489ca2b5937696c31910160405180910390a3505050565b6120b4848484611d37565b6120c084848484612232565b6116a15760405162461bcd60e51b81526004016105ad90613686565b606060006120e983612333565b600101905060008167ffffffffffffffff81111561210957612109612fea565b6040519080825280601f01601f191660200182016040528015612133576020820181803683370190505b5090508181016020015b600019016f181899199a1a9b1b9c1cb0b131b232b360811b600a86061a8153600a850494508461213d57509392505050565b600061047a61217c61240b565b8360405161190160f01b8152600281019290925260228201526042902090565b60008060006121ab858561253b565b915091506121b881612580565b509392505050565b6121ca83836126ca565b6121d76000848484612232565b61064e5760405162461bcd60e51b81526004016105ad90613686565b6060600061220083612837565b604080516020808252818301909252919250600091906020820181803683375050509182525060208101929092525090565b60006001600160a01b0384163b1561232857604051630a85bd0160e11b81526001600160a01b0385169063150b7a02906122769033908990889088906004016136d8565b6020604051808303816000875af19250505080156122b1575060408051601f3d908101601f191682019092526122ae9181019061370b565b60015b61230e573d8080156122df576040519150601f19603f3d011682016040523d82523d6000602084013e6122e4565b606091505b5080516000036123065760405162461bcd60e51b81526004016105ad90613686565b805181602001fd5b6001600160e01b031916630a85bd0160e11b149050611d2f565b506001949350505050565b60008072184f03e93ff9f4daa797ed6e38ed64bf6a1f0160401b83106123725772184f03e93ff9f4daa797ed6e38ed64bf6a1f0160401b830492506040015b6d04ee2d6d415b85acef8100000000831061239e576d04ee2d6d415b85acef8100000000830492506020015b662386f26fc1000083106123bc57662386f26fc10000830492506010015b6305f5e10083106123d4576305f5e100830492506008015b61271083106123e857612710830492506004015b606483106123fa576064830492506002015b600a831061047a5760010192915050565b6000306001600160a01b037f00000000000000000000000000000000000000000000000000000000000000001614801561246457507f000000000000000000000000000000000000000000000000000000000000000046145b1561248e57507f000000000000000000000000000000000000000000000000000000000000000090565b612536604080517f8b73c3c69bb8fe3d512ecc4cf759cc79239f7b179b0ffacaa9a75d522b39400f60208201527f0000000000000000000000000000000000000000000000000000000000000000918101919091527f000000000000000000000000000000000000000000000000000000000000000060608201524660808201523060a082015260009060c00160405160208183030381529060405280519060200120905090565b905090565b60008082516041036125715760208301516040840151606085015160001a6125658782858561285f565b94509450505050612579565b506000905060025b9250929050565b600081600481111561259457612594613728565b0361259c5750565b60018160048111156125b0576125b0613728565b036125fd5760405162461bcd60e51b815260206004820152601860248201527f45434453413a20696e76616c6964207369676e6174757265000000000000000060448201526064016105ad565b600281600481111561261157612611613728565b0361265e5760405162461bcd60e51b815260206004820152601f60248201527f45434453413a20696e76616c6964207369676e6174757265206c656e6774680060448201526064016105ad565b600381600481111561267257612672613728565b03610a2e5760405162461bcd60e51b815260206004820152602260248201527f45434453413a20696e76616c6964207369676e6174757265202773272076616c604482015261756560f01b60648201526084016105ad565b6001600160a01b0382166127205760405162461bcd60e51b815260206004820181905260248201527f4552433732313a206d696e7420746f20746865207a65726f206164647265737360448201526064016105ad565b61272981611ab8565b156127765760405162461bcd60e51b815260206004820152601c60248201527f4552433732313a20746f6b656e20616c7265616479206d696e7465640000000060448201526064016105ad565b61277f81611ab8565b156127cc5760405162461bcd60e51b815260206004820152601c60248201527f4552433732313a20746f6b656e20616c7265616479206d696e7465640000000060448201526064016105ad565b6001600160a01b038216600081815260036020908152604080832080546001019055848352600290915280822080546001600160a01b0319168417905551839291907fddf252ad1be2c89b69c2b068fc378daa952ba7f163c4a11628f55a4df523b3ef908290a45050565b600060ff8216601f81111561047a57604051632cd44ac360e21b815260040160405180910390fd5b6000807f7fffffffffffffffffffffffffffffff5d576e7357a4501ddfe92f46681b20a0831115612896575060009050600361291a565b6040805160008082526020820180845289905260ff881692820192909252606081018690526080810185905260019060a0016020604051602081039080840390855afa1580156128ea573d6000803e3d6000fd5b5050604051601f1901519150506001600160a01b0381166129135760006001925092505061291a565b9150600090505b94509492505050565b828054828255906000526020600020908101928215612978579160200282015b8281111561297857825182546001600160a01b0319166001600160a01b03909116178255602090920191600190910190612943565b50612984929150612a54565b5090565b828054828255906000526020600020908101928215612978579160200282015b828111156129785781546001600160a01b0319166001600160a01b038435161782556020909201916001909101906129a8565b5080546129e7906131da565b6000825580601f106129f7575050565b601f016020900490600052602060002090810190610a2e9190612a54565b5080546000825590600052602060002090810190610a2e9190612a54565b5080546000825560030290600052602060002090810190610a2e9190612a69565b5b808211156129845760008155600101612a55565b808211156129845780546001600160a01b0319168155600060018201819055612a9560028301826129db565b50600301612a69565b6001600160e01b031981168114610a2e57600080fd5b600060208284031215612ac657600080fd5b813561171481612a9e565b60005b83811015612aec578181015183820152602001612ad4565b50506000910152565b60008151808452612b0d816020860160208601612ad1565b601f01601f19169290920160200192915050565b6020815260006117146020830184612af5565b600060208284031215612b4657600080fd5b5035919050565b80356001600160a01b0381168114612b6457600080fd5b919050565b60008060408385031215612b7c57600080fd5b612b8583612b4d565b946020939093013593505050565b6020808252825182820181905260009190848201906040850190845b81811015612bd45783516001600160a01b031683529284019291840191600101612baf565b50909695505050505050565b60008083601f840112612bf257600080fd5b50813567ffffffffffffffff811115612c0a57600080fd5b60208301915083602082850101111561257957600080fd5b60008060008060008060808789031215612c3b57600080fd5b612c4487612b4d565b9550602087013567ffffffffffffffff80821115612c6157600080fd5b612c6d8a838b01612be0565b9097509550604089013594506060890135915080821115612c8d57600080fd5b50612c9a89828a01612be0565b979a9699509497509295939492505050565b600080600060608486031215612cc157600080fd5b612cca84612b4d565b9250612cd860208501612b4d565b9150604084013590509250925092565b600080600080600060608688031215612d0057600080fd5b85359450602086013567ffffffffffffffff80821115612d1f57600080fd5b612d2b89838a01612be0565b90965094506040880135915080821115612d4457600080fd5b50612d5188828901612be0565b969995985093965092949392505050565b600080600080600060608688031215612d7a57600080fd5b85359450602086013567ffffffffffffffff80821115612d9957600080fd5b818801915088601f830112612dad57600080fd5b813581811115612dbc57600080fd5b8960208260051b8501011115612dd157600080fd5b602083019650809550506040880135915080821115612d4457600080fd5b60008060408385031215612e0257600080fd5b82359150612e1260208401612b4d565b90509250929050565b600060208284031215612e2d57600080fd5b61171482612b4d565b60ff60f81b881681526000602060e081840152612e5660e084018a612af5565b8381036040850152612e68818a612af5565b606085018990526001600160a01b038816608086015260a0850187905284810360c0860152855180825283870192509083019060005b81811015612eba57835183529284019291840191600101612e9e565b50909c9b505050505050505050505050565b8015158114610a2e57600080fd5b60008060408385031215612eed57600080fd5b612ef683612b4d565b91506020830135612f0681612ecc565b809150509250929050565b60006020808352835160c082850152612f2d60e0850182612af5565b905081850151604085015260408501516060850152606085015160808501526080850151151560a085015260a0850151601f198583030160c086015281815180845284840191508483019350600092505b80831015612fa75783516001600160a01b03168252928401926001929092019190840190612f7e565b509695505050505050565b60008060008060008060808789031215612fcb57600080fd5b86359550602087013567ffffffffffffffff80821115612c6157600080fd5b634e487b7160e01b600052604160045260246000fd5b6000806000806080858703121561301657600080fd5b61301f85612b4d565b935061302d60208601612b4d565b925060408501359150606085013567ffffffffffffffff8082111561305157600080fd5b818701915087601f83011261306557600080fd5b81358181111561307757613077612fea565b604051601f8201601f19908116603f0116810190838211818310171561309f5761309f612fea565b816040528281528a60208487010111156130b857600080fd5b82602086016020830137600060208483010152809550505050505092959194509250565b6000806000604084860312156130f157600080fd5b83359250602084013567ffffffffffffffff81111561310f57600080fd5b61311b86828701612be0565b9497909650939450505050565b60006020808301818452808551808352604092508286019150828160051b87010184880160005b838110156131a257888303603f19018552815180516001600160a01b031684528781015188850152860151606087850181905261318e81860183612af5565b96890196945050509086019060010161314f565b509098975050505050505050565b600080604083850312156131c357600080fd5b6131cc83612b4d565b9150612e1260208401612b4d565b600181811c908216806131ee57607f821691505b60208210810361320e57634e487b7160e01b600052602260045260246000fd5b50919050565b6020808252600d908201526c24b73b30b634b2103a37b5b2b760991b604082015260600190565b8183823760009101908152919050565b60006020828403121561325d57600080fd5b5051919050565b634e487b7160e01b600052601160045260246000fd5b60006001820161328c5761328c613264565b5060010190565b601f82111561064e57600081815260208120601f850160051c810160208610156132ba5750805b601f850160051c820191505b81811015611667578281556001016132c6565b67ffffffffffffffff8311156132f1576132f1612fea565b613305836132ff83546131da565b83613293565b6000601f84116001811461333957600085156133215750838201355b600019600387901b1c1916600186901b178355610e86565b600083815260209020601f19861690835b8281101561336a578685013582556020948501946001909201910161334a565b50868210156133875760001960f88860031b161c19848701351681555b505060018560011b0183555050505050565b60208152816020820152818360408301376000818301604090810191909152601f909201601f19160101919050565b8082018082111561047a5761047a613264565b6020808252602d908201527f4552433732313a2063616c6c6572206973206e6f7420746f6b656e206f776e6560408201526c1c881bdc88185c1c1c9bdd9959609a1b606082015260800190565b634e487b7160e01b600052603260045260246000fd5b815167ffffffffffffffff81111561345857613458612fea565b61346c8161346684546131da565b84613293565b602080601f8311600181146134a157600084156134895750858301515b600019600386901b1c1916600185901b178555611667565b600085815260208120601f198616915b828110156134d0578886015182559484019460019091019084016134b1565b50858210156134ee5787850151600019600388901b60f8161c191681555b5050505050600190811b01905550565b60008184825b85811015613533576001600160a01b0361351d83612b4d565b1683526020928301929190910190600101613504565b509095945050505050565b60208082528181018390526000908460408401835b86811015612fa7576001600160a01b0361356c84612b4d565b1682529183019190830190600101613553565b600080835461358d816131da565b600182811680156135a557600181146135ba576135e9565b60ff19841687528215158302870194506135e9565b8760005260208060002060005b858110156135e05781548a8201529084019082016135c7565b50505082870194505b50929695505050505050565b60008351613607818460208801612ad1565b83519083019061361b818360208801612ad1565b01949350505050565b60006020828403121561363657600080fd5b815161171481612ecc565b60208082526025908201527f4552433732313a207472616e736665722066726f6d20696e636f72726563742060408201526437bbb732b960d91b606082015260800190565b60208082526032908201527f4552433732313a207472616e7366657220746f206e6f6e20455243373231526560408201527131b2b4bb32b91034b6b83632b6b2b73a32b960711b606082015260800190565b6001600160a01b03858116825284166020820152604081018390526080606082018190526000906109a990830184612af5565b60006020828403121561371d57600080fd5b815161171481612a9e565b634e487b7160e01b600052602160045260246000fdfea26469706673582212201a62a5ff9dbab4313f0489bb421c18de441759b0040b0680e5c32d6c7ada63d964736f6c63430008130033",
  "immutableReferences": {
    "3232": [
      {
        "length": 32,
        "start": 9324
      }
    ],
    "3234": [
      {
        "length": 32,
        "start": 9282
      }
    ],
    "3236": [
      {
        "length": 32,
        "start": 9240
      }
    ],
    "3238": [
      {
        "length": 32,
        "start": 9405
      }
    ],
    "3240": [
      {
        "length": 32,
        "start": 9445
      }
    ],
    "3243": [
      {
        "length": 32,
        "start": 4565
      }
    ],
    "3246": [
      {
        "length": 32,
        "start": 4608
      }
    ],
    "5611": [
      {
        "length": 32,
        "start": 868
      },
      {
        "length": 32,
        "start": 2046
      },
      {
        "length": 32,
        "start": 2800
      },
      {
        "length": 32,
        "start": 7081
      }
    ]
  },
  "source": "// SPDX-License-Identifier: MIT\r\npragma solidity ^0.8.19;\r\n\r\nimport \"@openzeppelin/contracts/token/ERC721/ERC721.sol\";\r\nimport \"@openzeppelin/contracts/token/ERC721/extensions/ERC721Burnable.sol\";\r\nimport \"@openzeppelin/contracts/utils/cryptography/ECDSA.sol\";\r\nimport \"@openzeppelin/contracts/security/ReentrancyGuard.sol\";\r\nimport \"@openzeppelin/contracts/utils/cryptography/EIP712.sol\";\r\nimport \"./RBAC.sol\";\r\n\r\ncontract DigitalAsset is ERC721, ERC721Burnable, ReentrancyGuard, EIP712 {\r\n    using ECDSA for bytes32;\r\n\r\n    RBAC public immutable rbac;\r\n    \r\n    struct AssetMetadata {\r\n        string cid;\r\n        bytes32 contentHash;\r\n        uint256 registrationDate;\r\n        uint256 version;\r\n        bool isCertified;\r\n        address[] pendingCertifiers;  // \r\n        mapping(address => bool) hasCertified;  // \r\n    }\r\n\r\n    struct Certification {\r\n        address certifier;\r\n        uint256 timestamp;\r\n        string comment;\r\n    }\r\n\r\n    struct AssetMetadataView {\r\n        string cid;\r\n        bytes32 contentHash;\r\n        uint256 registrationDate;\r\n        uint256 version;\r\n        bool isCertified;\r\n        address[] pendingCertifiers;\r\n    }\r\n\r\n    uint256 private _tokenIdCounter;\r\n    mapping(uint256 => AssetMetadata) private _metadata;\r\n    mapping(uint256 => Certification[]) private _certifications;\r\n    mapping(string => bool) private _cidRegistry;\r\n    mapping(address => uint256) public nonces;\r\n\r\n    bytes32 private constant REGISTER_TYPEHASH = \r\n        keccak256(\"Register(address to,string cid,bytes32 contentHash,uint256 nonce)\");\r\n    bytes32 private constant CERTIFY_TYPEHASH = \r\n        keccak256(\"Certify(uint256 tokenId,string comment,uint256 nonce)\");\r\n    bytes32 private constant UPDATE_TYPEHASH = \r\n        keccak256(\"Update(uint256 tokenId,string newCid,bytes32 newHash,uint256 nonce)\");\r\n    bytes32 private constant BURN_TYPEHASH = \r\n        keccak256(\"Burn(uint256 tokenId,uint256 nonce)\");\r\n    bytes32 private constant SET_CERTIFIERS_TYPEHASH = \r\n        keccak256(\"SetCertifiers(uint256 tokenId,address[] certifiers,uint256 nonce)\");\r\n\r\n    event AssetRegistered(uint256 indexed tokenId, address indexed registrant, string cid);\r\n    event AssetCertified(uint256 indexed tokenId, address indexed certifier);\r\n    event MetadataUpdated(uint256 indexed tokenId, string newCid);\r\n    event AssetBurned(uint256 indexed tokenId);\r\n    event CertifiersSet(uint256 indexed tokenId, address[] certifiers);\r\n    event AllCertified(uint256 indexed tokenId);\r\n\r\n    constructor(address rbacAddress) \r\n        ERC721(\"DigitalAsset\", \"DA\") \r\n        EIP712(\"DigitalAsset\", \"1\") \r\n    {\r\n        require(rbacAddress != address(0), \"Invalid RBAC address\");\r\n        rbac = RBAC(rbacAddress);\r\n    }\r\n\r\n    // =====================  =====================\r\n    function registerAsset(\r\n        address to,\r\n        string calldata cid,\r\n        bytes32 contentHash,\r\n        bytes calldata signature\r\n    ) external nonReentrant returns (uint256) {\r\n        require(!_cidRegistry[cid], \"CID exists\");\r\n        uint256 currentNonce = nonces[to];\r\n        _validateOperation(\r\n            keccak256(abi.encode(\r\n                REGISTER_TYPEHASH,\r\n                to,\r\n                keccak256(bytes(cid)),\r\n                contentHash,\r\n                currentNonce\r\n            )),\r\n            signature,\r\n            rbac.REGISTRAR_ROLE()\r\n        );\r\n\r\n        uint256 tokenId = _tokenIdCounter++;\r\n        _safeMint(to, tokenId);\r\n        \r\n        AssetMetadata storage metadata = _metadata[tokenId];\r\n        metadata.cid = cid;\r\n        metadata.contentHash = contentHash;\r\n        metadata.registrationDate = block.timestamp;\r\n        metadata.version = 1;\r\n        metadata.isCertified = false;\r\n        metadata.pendingCertifiers = new address[](0);\r\n        \r\n        _cidRegistry[cid] = true;\r\n        emit AssetRegistered(tokenId, to, cid);\r\n        nonces[to] = currentNonce + 1;\r\n        return tokenId;\r\n    }\r\n\r\n    function setCertifiers(\r\n        uint256 tokenId,\r\n        address[] calldata certifiers,\r\n        bytes calldata signature\r\n    ) external nonReentrant {\r\n        require(ownerOf(tokenId) == msg.sender, \"Not owner\");\r\n        uint256 currentNonce = nonces[msg.sender];\r\n        _validateOperation(\r\n            keccak256(abi.encode(\r\n                SET_CERTIFIERS_TYPEHASH,\r\n                tokenId,\r\n                keccak256(abi.encodePacked(certifiers)),\r\n                currentNonce\r\n            )),\r\n            signature,\r\n            bytes32(0)\r\n        );\r\n\r\n        AssetMetadata storage metadata = _metadata[tokenId];\r\n        metadata.pendingCertifiers = certifiers;\r\n        for (uint i = 0; i < certifiers.length; i++) {\r\n            metadata.hasCertified[certifiers[i]] = false;\r\n        }\r\n        metadata.isCertified = false;\r\n        nonces[msg.sender] = currentNonce + 1;\r\n        emit CertifiersSet(tokenId, certifiers);\r\n    }\r\n\r\n    function certifyAsset(\r\n        uint256 tokenId,\r\n        string calldata comment,\r\n        bytes calldata signature\r\n    ) external nonReentrant {\r\n        require(_exists(tokenId), \"Invalid token\");\r\n        uint256 currentNonce = nonces[msg.sender];\r\n        _validateOperation(\r\n            keccak256(abi.encode(\r\n                CERTIFY_TYPEHASH,\r\n                tokenId,\r\n                keccak256(bytes(comment)),\r\n                currentNonce\r\n            )),\r\n            signature,\r\n            rbac.CERTIFIER_ROLE()\r\n        );\r\n\r\n        AssetMetadata storage metadata = _metadata[tokenId];\r\n        require(metadata.pendingCertifiers.length > 0, \"No pending certifiers\");\r\n        require(!metadata.hasCertified[msg.sender], \"Already certified\");\r\n        \r\n        bool isPendingCertifier = false;\r\n        for (uint i = 0; i < metadata.pendingCertifiers.length; i++) {\r\n            if (metadata.pendingCertifiers[i] == msg.sender) {\r\n                isPendingCertifier = true;\r\n                break;\r\n            }\r\n        }\r\n        require(isPendingCertifier, \"Not a pending certifier\");\r\n\r\n        metadata.hasCertified[msg.sender] = true;\r\n        _certifications[tokenId].push(Certification({\r\n            certifier: msg.sender,\r\n            timestamp: block.timestamp,\r\n            comment: comment\r\n        }));\r\n\r\n        // \r\n        bool allCertified = true;\r\n        for (uint i = 0; i < metadata.pendingCertifiers.length; i++) {\r\n            if (!metadata.hasCertified[metadata.pendingCertifiers[i]]) {\r\n                allCertified = false;\r\n                break;\r\n            }\r\n        }\r\n\r\n        if (allCertified) {\r\n            metadata.isCertified = true;\r\n            emit AllCertified(tokenId);\r\n        }\r\n\r\n        nonces[msg.sender] = currentNonce + 1;\r\n        emit AssetCertified(tokenId, msg.sender);\r\n    }\r\n\r\n    function updateMetadata(\r\n        uint256 tokenId,\r\n        string calldata newCid,\r\n        bytes32 newHash,\r\n        bytes calldata signature\r\n    ) external nonReentrant {\r\n        require(ownerOf(tokenId) == msg.sender, \"Not owner\");\r\n        require(!_cidRegistry[newCid], \"CID exists\");\r\n        uint256 currentNonce = nonces[msg.sender];\r\n        _validateOperation(\r\n            keccak256(abi.encode(\r\n                UPDATE_TYPEHASH,\r\n                tokenId,\r\n                keccak256(bytes(newCid)),\r\n                newHash,\r\n                currentNonce\r\n            )),\r\n            signature,\r\n            bytes32(0)\r\n        );\r\n\r\n        _cidRegistry[_metadata[tokenId].cid] = false;\r\n        _metadata[tokenId].cid = newCid;\r\n        _metadata[tokenId].contentHash = newHash;\r\n        _metadata[tokenId].version++;\r\n        _cidRegistry[newCid] = true;\r\n        nonces[msg.sender] = currentNonce + 1;\r\n        emit MetadataUpdated(tokenId, newCid);\r\n    }\r\n\r\n    function burnAsset(\r\n        uint256 tokenId,\r\n        bytes calldata signature\r\n    ) external nonReentrant {\r\n        require(_isApprovedOrOwner(msg.sender, tokenId), \"Not authorized\");\r\n        uint256 currentNonce = nonces[msg.sender];\r\n        _validateOperation(\r\n            keccak256(abi.encode(\r\n                BURN_TYPEHASH,\r\n                tokenId,\r\n                currentNonce\r\n            )),\r\n            signature,\r\n            bytes32(0)\r\n        );\r\n\r\n        _cidRegistry[_metadata[tokenId].cid] = false;\r\n        delete _metadata[tokenId];\r\n        delete _certifications[tokenId];\r\n        _burn(tokenId);\r\n        nonces[msg.sender] = currentNonce + 1;\r\n        emit AssetBurned(tokenId);\r\n    }\r\n\r\n    // =====================  =====================\r\n    function getMetadata(uint256 tokenId) external view returns (AssetMetadataView memory) {\r\n        require(_exists(tokenId), \"Invalid token\");\r\n        AssetMetadata storage metadata = _metadata[tokenId];\r\n        return AssetMetadataView({\r\n            cid: metadata.cid,\r\n            contentHash: metadata.contentHash,\r\n            registrationDate: metadata.registrationDate,\r\n            version: metadata.version,\r\n            isCertified: metadata.isCertified,\r\n            pendingCertifiers: metadata.pendingCertifiers\r\n        });\r\n    }\r\n\r\n    function getCertifications(uint256 tokenId) external view returns (Certification[] memory) {\r\n        require(_exists(tokenId), \"Invalid token\");\r\n        return _certifications[tokenId];\r\n    }\r\n\r\n    function getPendingCertifiers(uint256 tokenId) external view returns (address[] memory) {\r\n        require(_exists(tokenId), \"Invalid token\");\r\n        return _metadata[tokenId].pendingCertifiers;\r\n    }\r\n\r\n    function hasCertified(uint256 tokenId, address certifier) external view returns (bool) {\r\n        require(_exists(tokenId), \"Invalid token\");\r\n        return _metadata[tokenId].hasCertified[certifier];\r\n    }\r\n\r\n    // =====================  =====================\r\n    function _validateOperation(\r\n        bytes32 structHash,\r\n        bytes calldata signature,\r\n        bytes32 requiredRole\r\n    ) internal view {\r\n        address signer = _hashTypedDataV4(structHash).recover(signature);\r\n        \r\n        if(requiredRole != bytes32(0)) {\r\n            require(rbac.hasRole(requiredRole, signer), \"Unauthorized role\");\r\n        }\r\n        \r\n        require(signer == msg.sender, \"Signer mismatch\");\r\n    }\r\n}\r\n",
  "sourcePath": "D:\\work\\2025BlockAsset\\digital-asset-system\\contracts\\DigitalAsset.sol",
  "compiler": {
    "name": "solc",
    "version": "0.8.19+commit.7dd6d404.Emscripten.clang"
  },
  "schemaVersion": "3.4.16",
  "updatedAt": "2025-04-03T08:37:11.534Z",
  "networkType": "ethereum",
  "devdoc": {
    "events": {
      "Approval(address,address,uint256)": {
        "details": "Emitted when `owner` enables `approved` to manage the `tokenId` token."
      },
      "ApprovalForAll(address,address,bool)": {
        "details": "Emitted when `owner` enables or disables (`approved`) `operator` to manage all of its assets."
      },
      "EIP712DomainChanged()": {
        "details": "MAY be emitted to signal that the domain could have changed."
      },
      "Transfer(address,address,uint256)": {
        "details": "Emitted when `tokenId` token is transferred from `from` to `to`."
      }
    },
    "kind": "dev",
    "methods": {
      "approve(address,uint256)": {
        "details": "See {IERC721-approve}."
      },
      "balanceOf(address)": {
        "details": "See {IERC721-balanceOf}."
      },
      "burn(uint256)": {
        "details": "Burns `tokenId`. See {ERC721-_burn}. Requirements: - The caller must own `tokenId` or be an approved operator."
      },
      "eip712Domain()": {
        "details": "See {EIP-5267}. _Available since v4.9._"
      },
      "getApproved(uint256)": {
        "details": "See {IERC721-getApproved}."
      },
      "isApprovedForAll(address,address)": {
        "details": "See {IERC721-isApprovedForAll}."
      },
      "name()": {
        "details": "See {IERC721Metadata-name}."
      },
      "ownerOf(uint256)": {
        "details": "See {IERC721-ownerOf}."
      },
      "safeTransferFrom(address,address,uint256)": {
        "details": "See {IERC721-safeTransferFrom}."
      },
      "safeTransferFrom(address,address,uint256,bytes)": {
        "details": "See {IERC721-safeTransferFrom}."
      },
      "setApprovalForAll(address,bool)": {
        "details": "See {IERC721-setApprovalForAll}."
      },
      "supportsInterface(bytes4)": {
        "details": "See {IERC165-supportsInterface}."
      },
      "symbol()": {
        "details": "See {IERC721Metadata-symbol}."
      },
      "tokenURI(uint256)": {
        "details": "See {IERC721Metadata-tokenURI}."
      },
      "transferFrom(address,address,uint256)": {
        "details": "See {IERC721-transferFrom}."
      }
    },
    "version": 1
  },
  "userdoc": {
    "kind": "user",
    "methods": {},
    "version": 1
  }
}