{
  "contractName": "RBAC",
  "abi": [
    {
      "inputs": [],
      "stateMutability": "nonpayable",
      "type": "constructor"
    },
    {
      "anonymous": false,
      "inputs": [
        {
          "indexed": true,
          "internalType": "bytes32",
          "name": "role",
          "type": "bytes32"
        },
        {
          "indexed": true,
          "internalType": "bytes32",
          "name": "previousAdminRole",
          "type": "bytes32"
        },
        {
          "indexed": true,
          "internalType": "bytes32",
          "name": "newAdminRole",
          "type": "bytes32"
        }
      ],
      "name": "RoleAdminChanged",
      "type": "event"
    },
    {
      "anonymous": false,
      "inputs": [
        {
          "indexed": true,
          "internalType": "bytes32",
          "name": "role",
          "type": "bytes32"
        },
        {
          "indexed": true,
          "internalType": "address",
          "name": "account",
          "type": "address"
        },
        {
          "indexed": true,
          "internalType": "address",
          "name": "sender",
          "type": "address"
        }
      ],
      "name": "RoleGranted",
      "type": "event"
    },
    {
      "anonymous": false,
      "inputs": [
        {
          "indexed": true,
          "internalType": "bytes32",
          "name": "role",
          "type": "bytes32"
        },
        {
          "indexed": true,
          "internalType": "address",
          "name": "account",
          "type": "address"
        },
        {
          "indexed": true,
          "internalType": "address",
          "name": "sender",
          "type": "address"
        }
      ],
      "name": "RoleRevoked",
      "type": "event"
    },
    {
      "inputs": [],
      "name": "ADMIN_ROLE",
      "outputs": [
        {
          "internalType": "bytes32",
          "name": "",
          "type": "bytes32"
        }
      ],
      "stateMutability": "view",
      "type": "function",
      "constant": true
    },
    {
      "inputs": [],
      "name": "CERTIFIER_ROLE",
      "outputs": [
        {
          "internalType": "bytes32",
          "name": "",
          "type": "bytes32"
        }
      ],
      "stateMutability": "view",
      "type": "function",
      "constant": true
    },
    {
      "inputs": [],
      "name": "DEFAULT_ADMIN_ROLE",
      "outputs": [
        {
          "internalType": "bytes32",
          "name": "",
          "type": "bytes32"
        }
      ],
      "stateMutability": "view",
      "type": "function",
      "constant": true
    },
    {
      "inputs": [],
      "name": "REGISTRAR_ROLE",
      "outputs": [
        {
          "internalType": "bytes32",
          "name": "",
          "type": "bytes32"
        }
      ],
      "stateMutability": "view",
      "type": "function",
      "constant": true
    },
    {
      "inputs": [
        {
          "internalType": "bytes32",
          "name": "role",
          "type": "bytes32"
        }
      ],
      "name": "getRoleAdmin",
      "outputs": [
        {
          "internalType": "bytes32",
          "name": "",
          "type": "bytes32"
        }
      ],
      "stateMutability": "view",
      "type": "function",
      "constant": true
    },
    {
      "inputs": [
        {
          "internalType": "bytes32",
          "name": "role",
          "type": "bytes32"
        },
        {
          "internalType": "uint256",
          "name": "index",
          "type": "uint256"
        }
      ],
      "name": "getRoleMember",
      "outputs": [
        {
          "internalType": "address",
          "name": "",
          "type": "address"
        }
      ],
      "stateMutability": "view",
      "type": "function",
      "constant": true
    },
    {
      "inputs": [
        {
          "internalType": "bytes32",
          "name": "role",
          "type": "bytes32"
        }
      ],
      "name": "getRoleMemberCount",
      "outputs": [
        {
          "internalType": "uint256",
          "name": "",
          "type": "uint256"
        }
      ],
      "stateMutability": "view",
      "type": "function",
      "constant": true
    },
    {
      "inputs": [
        {
          "internalType": "bytes32",
          "name": "role",
          "type": "bytes32"
        },
        {
          "internalType": "address",
          "name": "account",
          "type": "address"
        }
      ],
      "name": "grantRole",
      "outputs": [],
      "stateMutability": "nonpayable",
      "type": "function"
    },
    {
      "inputs": [
        {
          "internalType": "bytes32",
          "name": "role",
          "type": "bytes32"
        },
        {
          "internalType": "address",
          "name": "account",
          "type": "address"
        }
      ],
      "name": "hasRole",
      "outputs": [
        {
          "internalType": "bool",
          "name": "",
          "type": "bool"
        }
      ],
      "stateMutability": "view",
      "type": "function",
      "constant": true
    },
    {
      "inputs": [
        {
          "internalType": "bytes32",
          "name": "role",
          "type": "bytes32"
        },
        {
          "internalType": "address",
          "name": "account",
          "type": "address"
        }
      ],
      "name": "renounceRole",
      "outputs": [],
      "stateMutability": "nonpayable",
      "type": "function"
    },
    {
      "inputs": [
        {
          "internalType": "bytes32",
          "name": "role",
          "type": "bytes32"
        },
        {
          "internalType": "address",
          "name": "account",
          "type": "address"
        }
      ],
      "name": "revokeRole",
      "outputs": [],
      "stateMutability": "nonpayable",
      "type": "function"
    },
    {
      "inputs": [
        {
          "internalType": "bytes4",
          "name": "interfaceId",
          "type": "bytes4"
        }
      ],
      "name": "supportsInterface",
      "outputs": [
        {
          "internalType": "bool",
          "name": "",
          "type": "bool"
        }
      ],
      "stateMutability": "view",
      "type": "function",
      "constant": true
    },
    {
      "inputs": [
        {
          "internalType": "address[]",
          "name": "accounts",
          "type": "address[]"
        },
        {
          "internalType": "bytes32[]",
          "name": "roles",
          "type": "bytes32[]"
        }
      ],
      "name": "grantMultipleRoles",
      "outputs": [],
      "stateMutability": "nonpayable",
      "type": "function"
    },
    {
      "inputs": [
        {
          "internalType": "address",
          "name": "account",
          "type": "address"
        },
        {
          "internalType": "bytes32[]",
          "name": "roles",
          "type": "bytes32[]"
        }
      ],
      "name": "hasAnyRole",
      "outputs": [
        {
          "internalType": "bool",
          "name": "",
          "type": "bool"
        }
      ],
      "stateMutability": "view",
      "type": "function",
      "constant": true
    },
    {
      "inputs": [
        {
          "internalType": "string",
          "name": "role",
          "type": "string"
        }
      ],
      "name": "getRoleHash",
      "outputs": [
        {
          "internalType": "bytes32",
          "name": "",
          "type": "bytes32"
        }
      ],
      "stateMutability": "pure",
      "type": "function",
      "constant": true
    }
  ],
  "bytecode": "0x60806040523480156200001157600080fd5b506200001f600033620000b7565b6200005a7fedcc084d3dcd65a1f7f23c65c46722faca6953d28e43150a467cf43e5c309238600080516020620011dd833981519152620000e2565b620000957f65cb1d8422cdf0328f26b49e42e9f4524474c431da623cbe0ea455f1b67c9f77600080516020620011dd833981519152620000e2565b620000b1600080516020620011dd8339815191526000620000e2565b62000240565b620000c382826200012d565b6000828152600160205260409020620000dd9082620001ce565b505050565b600082815260208190526040808220600101805490849055905190918391839186917fbd79b86ffe0ab8e8776151514217cd7cacd52c909f66475c3af44e129f0b00ff9190a4505050565b6000828152602081815260408083206001600160a01b038516845290915290205460ff16620001ca576000828152602081815260408083206001600160a01b03851684529091529020805460ff19166001179055620001893390565b6001600160a01b0316816001600160a01b0316837f2f8788117e7eff1d82e926ec794901d17c78024a50270940304540a733656f0d60405160405180910390a45b5050565b6000620001e5836001600160a01b038416620001ee565b90505b92915050565b60008181526001830160205260408120546200023757508154600181810184556000848152602080822090930184905584548482528286019093526040902091909155620001e8565b506000620001e8565b610f8d80620002506000396000f3fe608060405234801561001057600080fd5b50600436106100f55760003560e01c80638634c58611610097578063ca15c87311610066578063ca15c87314610235578063d547741f14610248578063f275f1af1461025b578063f68e95531461027457600080fd5b80638634c586146101dc5780639010d07c146101ef57806391d148541461021a578063a217fddf1461022d57600080fd5b806336568abe116100d357806336568abe1461016857806368ca78f91461017b57806369d0b5171461018e57806375b238fc146101b557600080fd5b806301ffc9a7146100fa578063248a9ca3146101225780632f2ff15d14610153575b600080fd5b61010d610108366004610b42565b61029b565b60405190151581526020015b60405180910390f35b610145610130366004610b6c565b60009081526020819052604090206001015490565b604051908152602001610119565b610166610161366004610ba1565b6102c6565b005b610166610176366004610ba1565b6102f0565b61010d610189366004610c19565b610373565b6101457f65cb1d8422cdf0328f26b49e42e9f4524474c431da623cbe0ea455f1b67c9f7781565b6101457fa49807205ce4d355092ef5a8a18f56e8913cf4a201fbe287825b095693c2177581565b6101666101ea366004610c6c565b6103cf565b6102026101fd366004610cd8565b6105a3565b6040516001600160a01b039091168152602001610119565b61010d610228366004610ba1565b6105bb565b610145600081565b610145610243366004610b6c565b6105e4565b610166610256366004610ba1565b6105fb565b610145610269366004610d10565b805160209091012090565b6101457fedcc084d3dcd65a1f7f23c65c46722faca6953d28e43150a467cf43e5c30923881565b60006001600160e01b03198216635a05180f60e01b14806102c057506102c082610620565b92915050565b6000828152602081905260409020600101546102e181610655565b6102eb8383610662565b505050565b6001600160a01b03811633146103655760405162461bcd60e51b815260206004820152602f60248201527f416363657373436f6e74726f6c3a2063616e206f6e6c792072656e6f756e636560448201526e103937b632b9903337b91039b2b63360891b60648201526084015b60405180910390fd5b61036f8282610684565b5050565b6000805b828110156103c2576103a184848381811061039457610394610dc1565b90506020020135866105bb565b156103b05760019150506103c8565b806103ba81610ded565b915050610377565b50600090505b9392505050565b8281146104175760405162461bcd60e51b8152602060048201526016602482015275082e4e4c2f2e640d8cadccee8d040dad2e6dac2e8c6d60531b604482015260640161035c565b60005b8381101561059c57600083838381811061043657610436610dc1565b90506020020135036104a85760405162461bcd60e51b815260206004820152603560248201527f43616e6e6f74206772616e742044454641554c545f41444d494e5f524f4c45206044820152743a343937bab3b4103a3434b990333ab731ba34b7b760591b606482015260840161035c565b6104e26104dc8484848181106104c0576104c0610dc1565b9050602002013560009081526020819052604090206001015490565b336105bb565b6105425760405162461bcd60e51b815260206004820152602b60248201527f43616c6c6572206973206e6f7420617574686f72697a656420746f206772616e60448201526a74207468697320726f6c6560a81b606482015260840161035c565b61058a83838381811061055757610557610dc1565b9050602002013586868481811061057057610570610dc1565b90506020020160208101906105859190610e06565b610662565b8061059481610ded565b91505061041a565b5050505050565b60008281526001602052604081206103c890836106a6565b6000918252602082815260408084206001600160a01b0393909316845291905290205460ff1690565b60008181526001602052604081206102c0906106b2565b60008281526020819052604090206001015461061681610655565b6102eb8383610684565b60006001600160e01b03198216637965db0b60e01b14806102c057506301ffc9a760e01b6001600160e01b03198316146102c0565b61065f81336106bc565b50565b61066c8282610715565b60008281526001602052604090206102eb9082610799565b61068e82826107ae565b60008281526001602052604090206102eb9082610813565b60006103c88383610828565b60006102c0825490565b6106c682826105bb565b61036f576106d381610852565b6106de836020610864565b6040516020016106ef929190610e45565b60408051601f198184030181529082905262461bcd60e51b825261035c91600401610eba565b61071f82826105bb565b61036f576000828152602081815260408083206001600160a01b03851684529091529020805460ff191660011790556107553390565b6001600160a01b0316816001600160a01b0316837f2f8788117e7eff1d82e926ec794901d17c78024a50270940304540a733656f0d60405160405180910390a45050565b60006103c8836001600160a01b038416610a00565b6107b882826105bb565b1561036f576000828152602081815260408083206001600160a01b0385168085529252808320805460ff1916905551339285917ff6391f5c32d9c69d2a47ea670b442974b53935d1edc7fd64eb21e047a839171b9190a45050565b60006103c8836001600160a01b038416610a4f565b600082600001828154811061083f5761083f610dc1565b9060005260206000200154905092915050565b60606102c06001600160a01b03831660145b60606000610873836002610eed565b61087e906002610f04565b67ffffffffffffffff81111561089657610896610cfa565b6040519080825280601f01601f1916602001820160405280156108c0576020820181803683370190505b509050600360fc1b816000815181106108db576108db610dc1565b60200101906001600160f81b031916908160001a905350600f60fb1b8160018151811061090a5761090a610dc1565b60200101906001600160f81b031916908160001a905350600061092e846002610eed565b610939906001610f04565b90505b60018111156109b1576f181899199a1a9b1b9c1cb0b131b232b360811b85600f166010811061096d5761096d610dc1565b1a60f81b82828151811061098357610983610dc1565b60200101906001600160f81b031916908160001a90535060049490941c936109aa81610f17565b905061093c565b5083156103c85760405162461bcd60e51b815260206004820181905260248201527f537472696e67733a20686578206c656e67746820696e73756666696369656e74604482015260640161035c565b6000818152600183016020526040812054610a47575081546001818101845560008481526020808220909301849055845484825282860190935260409020919091556102c0565b5060006102c0565b60008181526001830160205260408120548015610b38576000610a73600183610f2e565b8554909150600090610a8790600190610f2e565b9050818114610aec576000866000018281548110610aa757610aa7610dc1565b9060005260206000200154905080876000018481548110610aca57610aca610dc1565b6000918252602080832090910192909255918252600188019052604090208390555b8554869080610afd57610afd610f41565b6001900381819060005260206000200160009055905585600101600086815260200190815260200160002060009055600193505050506102c0565b60009150506102c0565b600060208284031215610b5457600080fd5b81356001600160e01b0319811681146103c857600080fd5b600060208284031215610b7e57600080fd5b5035919050565b80356001600160a01b0381168114610b9c57600080fd5b919050565b60008060408385031215610bb457600080fd5b82359150610bc460208401610b85565b90509250929050565b60008083601f840112610bdf57600080fd5b50813567ffffffffffffffff811115610bf757600080fd5b6020830191508360208260051b8501011115610c1257600080fd5b9250929050565b600080600060408486031215610c2e57600080fd5b610c3784610b85565b9250602084013567ffffffffffffffff811115610c5357600080fd5b610c5f86828701610bcd565b9497909650939450505050565b60008060008060408587031215610c8257600080fd5b843567ffffffffffffffff80821115610c9a57600080fd5b610ca688838901610bcd565b90965094506020870135915080821115610cbf57600080fd5b50610ccc87828801610bcd565b95989497509550505050565b60008060408385031215610ceb57600080fd5b50508035926020909101359150565b634e487b7160e01b600052604160045260246000fd5b600060208284031215610d2257600080fd5b813567ffffffffffffffff80821115610d3a57600080fd5b818401915084601f830112610d4e57600080fd5b813581811115610d6057610d60610cfa565b604051601f8201601f19908116603f01168101908382118183101715610d8857610d88610cfa565b81604052828152876020848701011115610da157600080fd5b826020860160208301376000928101602001929092525095945050505050565b634e487b7160e01b600052603260045260246000fd5b634e487b7160e01b600052601160045260246000fd5b600060018201610dff57610dff610dd7565b5060010190565b600060208284031215610e1857600080fd5b6103c882610b85565b60005b83811015610e3c578181015183820152602001610e24565b50506000910152565b7f416363657373436f6e74726f6c3a206163636f756e7420000000000000000000815260008351610e7d816017850160208801610e21565b7001034b99036b4b9b9b4b733903937b6329607d1b6017918401918201528351610eae816028840160208801610e21565b01602801949350505050565b6020815260008251806020840152610ed9816040850160208701610e21565b601f01601f19169190910160400192915050565b80820281158282048414176102c0576102c0610dd7565b808201808211156102c0576102c0610dd7565b600081610f2657610f26610dd7565b506000190190565b818103818111156102c0576102c0610dd7565b634e487b7160e01b600052603160045260246000fdfea2646970667358221220f0e6f63d3f87ee7d3686710de3eb072cbe2e78698da3acbfef8df5a9c413b54564736f6c63430008130033a49807205ce4d355092ef5a8a18f56e8913cf4a201fbe287825b095693c21775",
  "immutableReferences": {},
  "source": "// SPDX-License-Identifier: MIT \r\n// contracts/RBAC.sol\r\npragma solidity ^0.8.19;\r\n\r\nimport \"@openzeppelin/contracts/access/AccessControlEnumerable.sol\"; // Enumerable\r\n\r\ncontract RBAC is AccessControlEnumerable { \r\n    bytes32 public constant REGISTRAR_ROLE = keccak256(\"REGISTRAR_ROLE\");\r\n    bytes32 public constant CERTIFIER_ROLE = keccak256(\"CERTIFIER_ROLE\");\r\n    bytes32 public constant ADMIN_ROLE = keccak256(\"ADMIN_ROLE\");\r\n\r\n    modifier onlyAdmin() {\r\n        require(\r\n            hasRole(DEFAULT_ADMIN_ROLE, msg.sender) || hasRole(ADMIN_ROLE, msg.sender),\r\n            \"Caller must have DEFAULT_ADMIN_ROLE or ADMIN_ROLE\"\r\n        );\r\n        _;\r\n    }\r\n\r\n    constructor() {\r\n        _grantRole(DEFAULT_ADMIN_ROLE, msg.sender);\r\n        \r\n        // \r\n        _setRoleAdmin(REGISTRAR_ROLE, ADMIN_ROLE);\r\n        _setRoleAdmin(CERTIFIER_ROLE, ADMIN_ROLE);\r\n        _setRoleAdmin(ADMIN_ROLE, DEFAULT_ADMIN_ROLE);\r\n    }\r\n\r\n    function grantMultipleRoles(\r\n        address[] calldata accounts,\r\n        bytes32[] calldata roles\r\n    ) external {\r\n        require(accounts.length == roles.length, \"Arrays length mismatch\");\r\n        \r\n        for (uint256 i = 0; i < accounts.length; i++) {\r\n            require(\r\n                roles[i] != DEFAULT_ADMIN_ROLE,\r\n                \"Cannot grant DEFAULT_ADMIN_ROLE through this function\"\r\n            );\r\n            // \r\n            require(\r\n                hasRole(getRoleAdmin(roles[i]), msg.sender),\r\n                \"Caller is not authorized to grant this role\"\r\n            );\r\n            _grantRole(roles[i], accounts[i]);\r\n        }\r\n    }\r\n\r\n    function hasAnyRole(\r\n        address account,\r\n        bytes32[] calldata roles\r\n    ) external view returns (bool) {\r\n        for (uint256 i = 0; i < roles.length; i++) {\r\n            if (hasRole(roles[i], account)) {\r\n                return true;\r\n            }\r\n        }\r\n        return false;\r\n    }\r\n\r\n    function getRoleHash(string memory role) public pure returns (bytes32) {\r\n        return keccak256(bytes(role));\r\n    }\r\n}\r\n",
  "sourcePath": "D:\\work\\2025BlockAsset\\digital-asset-system\\contracts\\RBAC.sol",
  "compiler": {
    "name": "solc",
    "version": "0.8.19+commit.7dd6d404.Emscripten.clang"
  },
  "schemaVersion": "3.4.16",
  "updatedAt": "2025-03-22T09:35:43.298Z",
  "networkType": "ethereum",
  "devdoc": {
    "events": {
      "RoleAdminChanged(bytes32,bytes32,bytes32)": {
        "details": "Emitted when `newAdminRole` is set as ``role``'s admin role, replacing `previousAdminRole` `DEFAULT_ADMIN_ROLE` is the starting admin for all roles, despite {RoleAdminChanged} not being emitted signaling this. _Available since v3.1._"
      },
      "RoleGranted(bytes32,address,address)": {
        "details": "Emitted when `account` is granted `role`. `sender` is the account that originated the contract call, an admin role bearer except when using {AccessControl-_setupRole}."
      },
      "RoleRevoked(bytes32,address,address)": {
        "details": "Emitted when `account` is revoked `role`. `sender` is the account that originated the contract call:   - if using `revokeRole`, it is the admin role bearer   - if using `renounceRole`, it is the role bearer (i.e. `account`)"
      }
    },
    "kind": "dev",
    "methods": {
      "getRoleAdmin(bytes32)": {
        "details": "Returns the admin role that controls `role`. See {grantRole} and {revokeRole}. To change a role's admin, use {_setRoleAdmin}."
      },
      "getRoleMember(bytes32,uint256)": {
        "details": "Returns one of the accounts that have `role`. `index` must be a value between 0 and {getRoleMemberCount}, non-inclusive. Role bearers are not sorted in any particular way, and their ordering may change at any point. WARNING: When using {getRoleMember} and {getRoleMemberCount}, make sure you perform all queries on the same block. See the following https://forum.openzeppelin.com/t/iterating-over-elements-on-enumerableset-in-openzeppelin-contracts/2296[forum post] for more information."
      },
      "getRoleMemberCount(bytes32)": {
        "details": "Returns the number of accounts that have `role`. Can be used together with {getRoleMember} to enumerate all bearers of a role."
      },
      "grantRole(bytes32,address)": {
        "details": "Grants `role` to `account`. If `account` had not been already granted `role`, emits a {RoleGranted} event. Requirements: - the caller must have ``role``'s admin role. May emit a {RoleGranted} event."
      },
      "hasRole(bytes32,address)": {
        "details": "Returns `true` if `account` has been granted `role`."
      },
      "renounceRole(bytes32,address)": {
        "details": "Revokes `role` from the calling account. Roles are often managed via {grantRole} and {revokeRole}: this function's purpose is to provide a mechanism for accounts to lose their privileges if they are compromised (such as when a trusted device is misplaced). If the calling account had been revoked `role`, emits a {RoleRevoked} event. Requirements: - the caller must be `account`. May emit a {RoleRevoked} event."
      },
      "revokeRole(bytes32,address)": {
        "details": "Revokes `role` from `account`. If `account` had been granted `role`, emits a {RoleRevoked} event. Requirements: - the caller must have ``role``'s admin role. May emit a {RoleRevoked} event."
      },
      "supportsInterface(bytes4)": {
        "details": "See {IERC165-supportsInterface}."
      }
    },
    "version": 1
  },
  "userdoc": {
    "kind": "user",
    "methods": {},
    "version": 1
  }
}